:020000040800F2
:10000000202B00209D010008253400081131000834
:10001000D9310008410A0008D95700080000000043
:10002000000000000000000000000000C1340008D3
:10003000B90B0008000000003534000859360008EC
:10004000B7010008B7010008B7010008B7010008B0
:10005000B7010008B7010008B7010008B7010008A0
:10006000B7010008B7010008B7010008B701000890
:10007000B7010008B7010008B7010008B701000880
:10008000B7010008B7010008B7010008B701000870
:10009000B7010008B7010008B7010008B701000860
:1000A000B7010008B7010008B7010008B701000850
:1000B0001D370008B7010008B7010008B7010008A4
:1000C000B7010008B7010008B7010008B701000830
:1000D000B7010008953A0008B7010008B701000809
:1000E000B7010008B7010008B7010008B701000810
:1000F000B7010008B7010008B7010008B701000800
:10010000B7010008B7010008B7010008B7010008EF
:10011000B7010008B7010008B7010008B7010008DF
:10012000B7010008B7010008B7010008B7010008CF
:10013000B7010008B7010008B7010008B7010008BF
:10014000B7010008B7010008B7010008293400080A
:10015000B7010008B7010008B7010008B70100089F
:10016000B7010008B7010008B7010008B70100088F
:10017000B7010008B7010008B7010008000000003F
:10018000B7010008B7010008DFF80CD000F04CFA06
:100190000048004749580008202B002006488047A7
:1001A00006480047FEE7FEE7FEE7FEE7FEE7FEE75C
:1001B000FEE7FEE7FEE7FEE70937000889010008D1
:1001C0002DE9F05F0546002092469B46884606468C
:1001D000814640241BE0284641464746224600F01F
:1001E00099F953465A46C01A914110D31146184600
:1001F000224600F080F92D1A67EB01084F4622468F
:100200000120002100F077F917EB00094E41201E74
:10021000A4F10104DFDC484631462A464346BDE8E6
:10022000F09FD2B201E000F8012B491EFBD27047CB
:100230000022F6E710B513460A4604461946FFF7B2
:10024000F0FF204610BD30B505462A460B4612F891
:10025000010B13F8014B08B1A042F8D01CB10028E3
:1002600002D06D1CF1E7284630BD421C10F8011B7E
:100270000029FBD1801A70470FB400B58DB010A9CA
:1002800009900B9000914FF0FF300A9000200C90E5
:1002900005480690054807906A4609A80F9900F09E
:1002A0005DF90DB05DF814FB7905000897050008AD
:1002B0002DE9FF5F1D464FF0FF3BD5E90146914612
:1002C0005F464FF00008A9697F1C01988847296A9A
:1002D000824688470028F6D1BAF1FF3F0CD024F4BB
:1002E000C064002E19DD600614D5BAF12B0F09D0B9
:1002F000BAF12D0F0ED103E0584604B0BDE8F09FCF
:1003000044F48064A9697F1C01988847761E824660
:10031000002E02DDBAF1300F03D0B9F1000F26D064
:1003200032E0A969761E44F400747F1C0198884766
:100330008246002E05DDBAF1780F06D0BAF1580FCB
:1003400003D0B9F1000F10D01EE0B9F1000F02D0B8
:10035000B9F1100F18D1A969761E24F400747F1C1E
:10036000019888478246102002E0082000E00A2019
:10037000814609E008FB0908A969761E44F4007467
:100380007F1C019888478246002E05DD494650466D
:1003900000F0D0F80028EDDAE96901988847A00557
:1003A00002D46FF00100A8E7E00725D1600613D55D
:1003B000600502D5C8F1000000E0404629680A1D2A
:1003C0002A600968220501D5087015E0220701D5C9
:1003D000088011E008600FE02868011D29600068AE
:1003E000210502D580F8008006E0210702D5A0F89B
:1003F000008001E0C0F8008038467EE72DE9FF5F0D
:10040000D2E901A74FF00008916999461446DDF83A
:1004100038B0464601988847054659EA0B0005D092
:1004200009E0A169761C019888470546216A28469B
:1004300088470028F5D1681C03D05FEACA7005D050
:1004400015E04FF0FF3004B0BDE8F09F2068011DBB
:100450002160D0F800800AE05FEACA7001D108F894
:10046000015BA169761C7F1E019888470546002F15
:100470001ADD681C18D0B9F1000F0DD0E81705EB94
:10048000D060421120F01F0059F822102A1A0120D2
:1004900090400142E0D107E0BBF1000FDCD1216ABE
:1004A000284688470028D7D0E16901988847BBF1E2
:1004B000000F07D1002E05DD5FEACA7002D10021CE
:1004C00088F80010A068B84203DDBBF1000F03D02C
:1004D00017B16FF00100B6E73046B4E770B50646D5
:1004E00005F0EAFB046805460A220021304600F0C8
:1004F00063F82C6070BD202A04DB203A00FA02F178
:10050000002070479140C2F1200320FA03F3194301
:1005100090407047202A04DB203A21FA02F00021A3
:10052000704721FA02F3D040C2F120029140084303
:10053000194670473A2800D2303820F02002412A6C
:1005400001D3A2F13700884201D34FF0FF3070474A
:10055000026811441378016018467047D16004495D
:1005600051610449116200211161114600F082B805
:100570005105000861060008426842B1016811F89F
:10058000013B23B1521EC0E90012184670470121F9
:10059000C160881E704742685AB1C368016843B998
:1005A00083688B4205D0491E521CC0E9001200200E
:1005B00070474FF0FF3070472DE9F04791460F46E6
:1005C00080460446002614F8015B2DB100F044F883
:1005D0000068405DC007F6D12B2D02D02D2D18D01C
:1005E000641E4A463946204600F0DAF927B13968D8
:1005F000A14201D1C7F8008071054FF002040BD56C
:100600004042002803DD05F057FB0460A007BDE869
:10061000F08746F48066E4E70028F8DA05F04CFB42
:1006200004606FF00040F2E71CB5094800900948EB
:1006300001900546009C06E0E06840F0010394E864
:10064000070098471034AC42F6D3FFF7A1FD000035
:10065000AC5D0008CC5D000800487047885D00086C
:1006600010B50446FFF7F8FF0068005D00F00100D8
:1006700010BD00002DE9F34F8BB04FF0000801F1E1
:100680000C000C464FF0010B46460DF1080A019094
:100690006269012101989047051E2DD0252D2CD08F
:1006A000216A8847C0B16269012101989047216A97
:1006B00088470028F7D1411E62690198904700E001
:1006C000761CA1690B988847216A88470028F7D1D2
:1006D000E1690B988847DBE7A1690B9888470746D3
:1006E000A84201D1761CD3E7E1690B9888477F1CAB
:1006F00002D1B8F1000F6FD046E1002762693D4694
:100700003946019890472A2804D16269012101984D
:1007100090470125DFF88492626901210198904792
:10072000A0F130010A290AD24F45E5DC07EB870129
:1007300000EB4107303FDFD445F01005ECE7E90658
:1007400001D46FF000476C280AD04C2814D06828D8
:1007500015D06A280DD074281CD07A281AD01DE034
:1007600062690121019890476C2802D045F0040588
:1007700014E045F002050DE045F020050AE062694D
:10078000012101989047682802D045F0080505E04E
:1007900045F400656269012101989047C4E9015759
:1007A00065283DD019DC58287AD00CDC452837D094
:1007B00004DC252826D0412831D131E046282FD02D
:1007C00047282CD12CE05B2877D0612828D06328DB
:1007D0007CD0642823D15AE0D0E06F2848D008DCD0
:1007E00066281DD067281BD0692821D06E2816D115
:1007F00027E0702845D0732868D0752847D078281E
:100800000DD14DE0A1690B988847054625283FF496
:1008100069AFE1690B9888476D1C3FF46AAFB3E09C
:1008200023466A466FF001000B99AFF300809EE00B
:1008300045F040006060A80723464FF0000236D420
:100840003EE0E8077FF447AF2068011D21600068A3
:10085000290501D506701BE7290701D5068017E792
:10086000A90703D5F117C0E9006111E706600FE79A
:1008700045F040006060A80723464FF0080216D4F8
:100880001EE040F60E0125EA0100606016E045F02A
:1008900040006060A80723464FF00A0207D40FE02B
:1008A00045F040006060A80708D5234610226FF08D
:1008B00001000B99AFF3008059E007E023461022B6
:1008C0006FF001000B99FFF7F3FC50E04FF00009C7
:1008D0004F464B46632802D05B2806D040E0E8062E
:1008E00001D40120A06001273AE06269012101984A
:1008F00090475E2805D14FF0010962694946019889
:100900009047216939B900210A46534643F821200E
:10091000491C0829FADBB0B3216969B9C11700EB9A
:10092000D16253110AEB830122F01F02821A0120C7
:100930000B68904003430B60626901210198904766
:100940005D28E8D1B9F1000F09D00020514651F8D7
:100950002020D24341F82020401C0828F7DB02ABBE
:10096000224600976FF001000B99FFF747FD002822
:100970000CDA401C08D1BBF1000F05D04FF0FF305E
:100980000DB0BDE8F08FFFE74046F9E7E90701D178
:1009900008F1010806444FF0000B79E6CCCCCC0CF2
:1009A0002DE9F05F82460078002715468B460AF154
:1009B0000104B946302801D09DB113E014F8010BB1
:1009C0000127782803D0582801D045B10AE00DB19D
:1009D000102D07D10027102514F8010B02E008257F
:1009E00000E00A250026B0460EE005FB080005FBE6
:1009F00006F1012701EB10461FFA80F8B6F5803F9B
:100A000000D3B94614F8010B2946FFF793FD0028DF
:100A1000EBDABBF1000F05D00FB1641E00E05446C5
:100A2000CBF80040B9F1000F06D005F045F90221DE
:100A30000160C81EBDE8F09F48EA0640FAE70000E2
:100A4000FEE70000002070470020704710B541F21B
:100A5000D054C2F2000440F68C51C2F2000120468C
:100A6000002203F0E1F940F28C51C2F2000120466D
:100A700003F0CCF9002010BD70B50D46096804469E
:100A800039B10026A05D00F073F82868013686426F
:100A9000F8D341F2D055C2F200052846214603F0B2
:100AA000B5F9284603F08CF9002070BD002070478E
:100AB00041F2D052C2F20002D2F8BC22D2F8143273
:100AC000002B1CBF0120704710B541F2D054C2F278
:100AD00000040A460146204603F0A6F92046BDE878
:100AE000104003F01FBA000080B58AB00DF1180C59
:100AF0000DF11C0E11A10DF1270208ABCDE900ECA0
:100B0000FFF7BAFB042814D19DF8270008998DF847
:100B100015000391DDE90610049003A88DF8141068
:100B200002F0ACFC10A10CA2002808BF1146084638
:100B300000E005A002F0EEFA0AB080BD2563202592
:100B4000752025752025640042616420436F6D6D1A
:100B5000616E640D0A00000051756575652046756B
:100B60006C6C0D0A000000004F4B0D0A00000000E5
:100B70000D2801D00A280FD1B0B541F2CC54C2F2F1
:100B80000004217841F28C50C2F200000025455447
:100B9000FFF7AAFF2570B0BD41F2CC52C2F20002AD
:100BA00011783E2988BF70474B1C137041F28C525C
:100BB000C2F20002505470477047000072B600BF86
:100BC000FEE7000041F6F070C2F2000000687047D6
:100BD000002804BF01207047B0B5044690F82000FB
:100BE00010B9204600F06EF82068016841F001015C
:100BF000016000F0D7F9054620684168C90705D1B2
:100C000000F0D0F9401B0B28F6D310E0016821F06A
:100C10000201016000F0C6F9054600BF2068416886
:100C200089070DD500F0BEF9401B0B28F6D3606A8A
:100C3000052140F400306062012084F82010B0BD2E
:100C4000217E0268012922F0800208BF8032026002
:100C5000617E0268012922F0400208BF4032026032
:100C6000A17E0268012922F0200208BF2032026022
:100C7000E17E0268012922F0100218BF10320260E2
:100C8000217F0268012922F0080208BF08320260B1
:100C9000617F0268012922F0040208BF0432026069
:100CA000D4E901C2D4E9033561691A432A431143E7
:100CB000ACF101021143C16100200121606284F89E
:100CC0002010B0BD80B586B046F200410068C4F285
:100CD0000001002288420592CDE90322029201928E
:100CE00001D006B080BD43F630000092C4F202008D
:100CF000036943F000730361036903F00073009319
:100D0000009B0092036843F008030360006802231D
:100D100000F0080000900098032001900490092042
:100D2000059001F5D43001A9CDE9023200F068F850
:100D300006B080BD70B5866D044600F033F994F8B6
:100D40003510022925D105462068216C026822F061
:100D500016020260426922F08002426109B9A16C68
:100D600019B1016821F008010160016821F0010159
:100D7000016000BF20680068C0070ED000F012F9C3
:100D8000401B0628F6D320206065032084F8350038
:100D90000CE080206065012008E0E06D3F2101FA51
:100DA00000F0B060012084F835000020002184F8B4
:100DB000341070BD90F83510022909D1052180F852
:100DC00035100068016821F00101016000207047C2
:100DD0008021416501207047B0B5044600F0E2F87B
:100DE000054640F21910C2F200000078611C18BFDD
:100DF000044400BF00F0D6F8401BA042FAD3B0BDB7
:100E00002DE9F04F82B000F13E4707F1FF778605EC
:100E100046EA972741F60046C4F202060822B0428D
:100E200008BF0722072F38BF3A46002400274FF09B
:100E30000009009209E000BF09F101090237B9F188
:100E4000100F04F1040400F0A4800D68012202FADE
:100E500009FC15EA0C08EFD0D1F804B00BF0030A36
:100E6000AAF10105012D12D80322856802FA07FEB6
:100E7000CA6825EA0E05BA402A4382604268CBF36D
:100E8000001522EA0C0205FA09F52A434260BAF17C
:100E9000030F1CD0C26803238E6803FA07F5AA4328
:100EA000BE403243BAF1020FC26010D16FF00302AC
:100EB00002EA59020244D2F820C004F01C050F23B4
:100EC0000E69AB402CEA0303AE4033431362026861
:100ED00003234E68BB409A4306F00303BB401A430A
:100EE00016F4403F0260A7D0002243F6440301926B
:100EF000C4F202031A6843F6004E42F480421A60BC
:100F00001A68C4F2010E02F480420192019A29F09B
:100F100003024FF6084C7244CFF6FF7C52F80C30B7
:100F200004F00C060F25B540AB43009D05FA06F60C
:100F3000334342F80C30DEF808204B6842EA0806DA
:100F400043F60C4CDD0258BF22EA0806CEF80860D2
:100F5000C4F2010CDCF800209D0242EA080658BFEA
:100F600022EA0806CCF80060DEF804209D0342EA7D
:100F7000080658BF22EA0806CEF80460DEF8002012
:100F8000DB0342EA080658BF22EA0806CEF80060F2
:100F900052E702B0BDE8F08F002A08BF0904816162
:100FA0007047000042F21850C2F20000006870471B
:100FB00040F2191042F21851C2F20000C2F20001D0
:100FC00000780A68104408607047000080B543F656
:100FD0000040C4F20200016841F400710160016840
:100FE00041F480610160016841F480710160032077
:100FF00000F088F80F2000F005F800F02BF8002032
:1010000080BD0000B0B540F21912C2F2000240F2F9
:1010100040011278C2F200014FF47A730968B3FB01
:10102000F2F20446B1FBF2F1084601F09DFA0F2CF2
:101030004FF001050CD858B94FF0FF30214600227F
:10104000002500F033F840F21C10C2F200000460EA
:101050002846B0BD82B0002043F640010190C4F2A2
:1010600002014A6842F480424A604A6802F48042BF
:101070000192019A0090086840F08050086008686A
:1010800000F080500090009802B07047002848BFE0
:10109000704700F01F01012202FA01F14EF2001226
:1010A0004009CEF2000242F82010704710B54EF60B
:1010B0000C5CCEF2000CDCF80030C3F3022E8EF094
:1010C0000704042C28BF0424BEF103034FF0FF3EA5
:1010D0000EFA04F438BF0023A14399400EFA03F33B
:1010E0009A43114300F1604200F00F03090102F539
:1010F0006442043B6344002848BF03F10C021170B2
:1011000010BD00004EF60C51CEF200010A684FF6F9
:10111000FF031A4060F30A2242F0806040F0FD7045
:1011200008607047704700000268002051627047F5
:10113000B0B5D0F800E0DEF82400D1B1DEF82830F8
:10114000B1F1010C00EB13430BD05FFA8CF10EF5FB
:101150008070002450F8045F01348C4203EB154387
:10116000F8D343EA02400EEB8C01C1F804010020E1
:10117000B0BD40EA0240CEF828000020B0BD00001B
:10118000D0F8080503F01EB901EBC102D0F808350C
:1011900000EB8200C26C184603F07CB801EBC10280
:1011A000D0F8083500EB8200D0F88C22184603F006
:1011B000CBB80000D0F8080503F006B910B5044616
:1011C00048B2B0F1FF3F01F00F0000EBC00104EBAB
:1011D000810205DD02F51F71002382F87D3204E0F3
:1011E000012302F13C0182F83D3094F8BC240870E0
:1011F000012A04BF022010BD2068012284F8BC240B
:1012000003F0F4FD002084F8BC0410BDB0B54268C2
:10121000044601F00F0082423CBF0120B0BD49B23C
:10122000B1F1FF3F09DD00EBC00104EB810202F5E3
:101230001F71002382F87D3208E000EBC00104EB4F
:101240008102012302F13C0182F83D3094F8BC2474
:101250000025012A8D70087004BF0220B0BD2068EF
:10126000012284F8BC2403F0CBFF284684F8BC5448
:10127000B0BD000001F00F0101EBC10100EB8100E6
:10128000D0F89C027047000070B5064648B2B0F135
:10129000FF3F01F00F0000EBC00107DD06EB81040A
:1012A00004F51F71002584F87D5206E006EB810CE1
:1012B00001240CF13C018CF83D404D780870002D64
:1012C000CA600B7118BF0881022B04BF002048714F
:1012D00096F8BC04012804BF022070BD30680122CA
:1012E00086F8BC2403F0B2FC002086F8BC0470BD74
:1012F00080B501F00F0C0CEBCC0100EB810ECEF8A9
:1013000094320023CEF89C328EF87D320369CEF8F9
:101310008C22012B8EF87CC208BFCEF89022006888
:101320000EF51F71DAB2BCF1000F03D003F0AEFF6F
:10133000002080BD03F0B8FE002080BDB0B504469B
:10134000406801F00F05854284BF0120B0BD48B25E
:10135000B0F1FF3F09DD01EBC10004EB800000F5B7
:101360001F71002280F87D2208E005EBC50004EB28
:101370008000012200F13C0180F83D2094F8BC047B
:10138000012201288A700D7004BF0220B0BD2068C0
:1013900084F8BC2403F05CFF2DB92068217C04F2A2
:1013A000C44203F0FFFE002084F8BC04B0BD00007E
:1013B00010B501F00F0C0CEBCC0100EB810E714667
:1013C00001F83CCF8B6100230B62036901244C7050
:1013D000012B0A6108BFCEF850200068DAB2BCF1D8
:1013E000000F03D003F052FF002010BD03F05CFE9D
:1013F000002010BD2DE9F04F89B0056882462846CF
:1014000004F0A8F810B109B0BDE8F08FDAF80000D8
:1014100004F0CEF80028F6D0D5F80808C0F30D2166
:10142000DAF80000CAF8FC1404F0C2F8800705D509
:10143000DAF80000416901F002014161DAF80000C8
:1014400005F5006604F0B4F8C00606953ED5DAF856
:101450000000816921F0100181612C6AC4F34340CE
:10146000062804F00F0519D0022828D147F6F0709D
:1014700014EA000823D005EBC5000AEB8007D7F873
:101480008C124FEA18140698224604F095F8D7F803
:101490008C0200EB1810C7F88C0207E006980AF2DD
:1014A000C441082204F088F8C4F30A1405EBC5000F
:1014B0000AEB8000D0F89C122144C0F89C12DAF8A4
:1014C0000000816941F010018161069DDAF8000099
:1014D000039604F06DF8000340F1F780DAF800009D
:1014E00004F044F8002800F0F08006460AF2C440F8
:1014F0004FF4306800244FF0000B08901AE000BF52
:1015000005EB080002218160B80642BF05EB080028
:1015100020218160B80442BF05EB08004FF4005160
:1015200081600BF1010B760808F1200804F1240416
:1015300000F0CB80F007F4D0DAF800005FFA8BF906
:10154000494604F02DF80746C0076ED005EB0800A9
:1015500001218160DAF8000008EB000C036CDCF874
:101560000820DAF81050012D28D115073AD4950635
:1015700054D4069D12F0280F57D143F20B01C4F644
:1015800054718B4202D312F4004235D10AEB0402AB
:10159000D2F89832DCF810106FF3DF41A3EB0101B1
:1015A000C2F89C12CCB9D2F89432002B00F088809B
:1015B000D2F88C020844C2F88C020EE043F20B050C
:1015C000C4F65475FF35AB421BD1100428D4069DD8
:1015D000900644BF2020CCF8080050464946FFF74B
:1015E000DDFD22E043F20B00C4F65470069D8342F9
:1015F0001BD312F4004018D04FF40040CCF8080080
:1016000013E034B9DAF8941219B9089A002103F0FA
:10161000C9FD50464946FFF7C1FD05E0202001E025
:101620004FF40040CCF80800069D380728D505EB9C
:10163000080008218160DAF8000043F20B02056C13
:1016400040448168C4F65472954205D311F40041B8
:101650001CBF4FF400418160504600F0C9FB43F2CB
:101660000B00C4F654708542069D09D3DAF81000C9
:10167000012805D1DAF80000089A012103F092FD53
:10168000F80642BF05EB080010218160B8077FF51E
:101690003BAF6869000604D50399486840F4806050
:1016A00048600AEB040090F87F1201297FF428AF0C
:1016B000002180F87F125046494600F083FA1FE768
:1016C000089A012103F06EFD87E7DAF80000CDF8F3
:1016D00020A003F06DFFDDF80CB0400340F1D9808D
:1016E0000898006803F03AFF002800F0D280824694
:1016F000089805F5106600F2C44000270190029694
:1017000006E000BF5FEA5A0A07F1010700F0C18056
:101710005FEACA70F6D00898F9B20068079103F042
:101720002DFF0446C00726D007F00F00DBF8341069
:10173000012202FA00F021EA0000CBF8340006EBA7
:1017400047108260089D286901280FD107EBC70068
:1017500005EB8000D0E912121144C16437B9406D25
:1017600020B92868019A012103F01CFD0799284639
:10177000FFF70AFD069D200742BF06EB4710082130
:101780008160E00642BF06EB4710102181606006D1
:1017900042BF06EB471040218160A00716D52846BE
:1017A000394603F0A1FE089907EBC70001EB800062
:1017B00010F83F1F012905D100210170DDE9071054
:1017C00000F0FCF906EB471002218160200699D554
:1017D000089907EBC70001EB8000814659F8541FB8
:1017E000C84658F8082F91428CD3089B83461E6840
:1017F0005BF8483F891A994238BF0B46059606EBBD
:101800004711D1F81829033392B2B2EB930F29D3C1
:1018100001F5106100F14C05049100BFD8F80000FB
:10182000D9F8001081421DD9DBF80040089A081A47
:10183000A0422968167C38BF04460598079AA3B2CF
:10184000009603F0ABFF2868D8F800102044286009
:101850000819C8F800000498E11C806980B2B0EB58
:10186000910FDBD2D9F80000D8F80010069DDDE911
:10187000026B88423FF646AF059B07F00F00D3F896
:101880003418012202FA00F021EA0000C3F83408FB
:1018900038E7DDF82080D8F8000003F089FEB0F1C9
:1018A000FF3F1ADCDBF8040020F00100CBF8040055
:1018B00098F8F404012807D1002088F8F404404681
:1018C0000021FFF72FFC02E0404600F075FAD8F83F
:1018D0000000416901F000414161D8F8000003F0C7
:1018E00067FE00050CD5DBF80800C00702D04046B3
:1018F00000F0A6FAD8F80000416901F400614161E6
:10190000D8F8000003F054FEC0045BD5DBF80400F7
:10191000102120F00100CBF80400D8F8000003F0FB
:10192000E3FDD8F80400D0B105F510614FF67F3221
:101930008A600B68013823F400130B60C1F8082299
:10194000D1F8003223F40013C1F80032D1F800328C
:1019500043F00063C1F8003201F12001E8D1DBF867
:101960001C0040F00110CBF81C00D8F8300040B14A
:10197000DBF8840040F00B00CBF884000BF144004E
:1019800008E0DBF8140042F22B010843CBF8140006
:101990000BF11000016808F2C44241F00B01016034
:1019A000DBF8000020F4FE60CBF80000D8F800005F
:1019B00098F8101003F0F6FBD8F80000416901F424
:1019C00080514161D8F8000003F0F2FD80041CD57D
:1019D000D8F8000003F07AF9D8F8000003F0ACFD65
:1019E000D8F80040C8F80C0000F0F4FA98F80C2081
:1019F0000146204603F04AFE404600F0C7F9D8F8F9
:101A00000000416901F400514161D8F8000003F081
:101A1000CFFD000708D5404600F0D2F9D8F8000005
:101A2000416901F008014161D8F8000003F0C0FDF0
:101A3000000629D50699886920F080008861D8F8C9
:101A40000400022820D3012440F2A32507E000BFB0
:101A5000D8F804000134844205F1240514D218F8A2
:101A600005000128F4D104F00F0000EBC00008EBE2
:101A700080022006D8F8000002F13C0158BF02F5B0
:101A80001F7103F0E3FCE3E7D8F8000003F090FDDA
:101A9000C0022FD5D8F80400022825D3069808F1F3
:101AA000640500F512640126012706E0D8F8040059
:101AB0000137874204F1200416D22846216815F820
:101AC000242B012AF2D1B1F1FF3FEFDC00F8016CC9
:101AD00007F00F0000EBC00008EB8001D8F8000011
:101AE0003C3103F0B3FCE1E7D8F80000416901F4B0
:101AF00080114161D8F8000003F05AFD800236D50C
:101B0000D8F8041002292CD30698013900F5326068
:101B100008F52972012303E0013900F1200020D0EB
:101B20001746066812F8245B012DF5D1B6F1FF3F88
:101B3000F2DCD8F8FC5406F4803605F00105AE421C
:101B4000EAD1069E07F8013CB76947F08007B76104
:101B500077693F06E0D4DBF8040040F40070CBF86E
:101B60000400D8F80000416901F400114161D8F87F
:101B7000000003F01DFD400008D54046FFF700FBC4
:101B8000D8F80000416901F080414161D8F80000B7
:101B900003F00EFD40077FF536ACD8F8000044682E
:101BA000600702D54046FFF705FBD8F80000416802
:101BB0002143416009B0BDE8F08F0000D0F808056E
:101BC00002F064BCD0F8080502F076BC2DE9F04FB5
:101BD0008BB0002800F086800446056890F8BD04AC
:101BE00028B9002084F8BC04204600F08BF80320BC
:101BF00084F8BD04E86BC0055CBF0020206120684C
:101C000003F04AFA206804F11C0A0A90D4E90C5047
:101C100004F1040E9AE8C0079EE80E58CDE908507A
:101C200003A880E8C0030A988DE80058CDF81CA0EE
:101C300003F05CF8002852D120680021002503F051
:101C4000E1FC616861B301200023002203EBC303C0
:101C500004EB830787F83C20D3B20132A7F8443065
:101C6000D3B2994287F83D0087F84050C7E9125532
:101C70007D65EBD800200023002200BF03EBC303E7
:101C800004EB830787F87C220132D3B2994287F8AC
:101C90007D0287F88002C7E9A200C7F89402EDD858
:101CA000A06822680A90D4E90C5004F1140E04F1E3
:101CB000240AD4E903379EE840589AE80007CDE9A2
:101CC000085002A880E8005810460A9ACDE900762C
:101CD000CDE90589CDF81CA003F0ECF838B102205D
:101CE00084F8BD04012528460BB0BDE8F08F00251F
:101CF000012084F8385084F8BD04206803F0CAF845
:101D0000F1E70000B0B586B000680024B0F1A04F44
:101D10000594CDE903440294019401D006B0B0BD0E
:101D200043F630050094C4F20205286801A940F08A
:101D300001002860286800F00100009000984FF42E
:101D4000C05001900220CDE90204032004900A2033
:101D500005900020C4F20200FFF752F868680021E5
:101D600040F08000686000946869002240F4804080
:101D70006861686900F48040009000984320FFF794
:101D800095F94320FFF782F906B0B0BD10B50446BF
:101D9000C06828B1022801D0FEF710FF012100E041
:101DA0000021D4F8080502F00DFCD4F80805BDE8C0
:101DB000104002F0BDBB0000D0F8080502F0E8BBFF
:101DC000D0F8080502F0EEBB10B5044690F8BC044C
:101DD000012804BF022010BD012084F8BC0484F84F
:101DE0003810206803F040FC002084F8BC0410BDCB
:101DF000D0F8082500F2C441104602F0F9BB0000FB
:101E000010B5044690F8BC04012804BF022010BDA0
:101E1000A16A20680122012984F8BC2406D1A169A5
:101E2000012903D0816B41F48031816303F054FBBD
:101E3000206803F01FF8002084F8BC0410BD0000E7
:101E400010B50446D0F8080502F026FC2068D0F84A
:101E5000001E41F00101C0F8001E206A002808BFE2
:101E600010BD4EF61050CEF20000016841F00601A0
:101E7000016010BD002804BF012070472DE9F0412A
:101E800043F60808C4F202080446D8F8F8030D46E1
:101E900000F00700884207D288F8F853D8F8F80312
:101EA00000F00700A84276D12068810717D54107C6
:101EB00005D5D8F8001041F4E051C8F8001001072A
:101EC00005D5D8F8001041F46041C8F80010D8F8E2
:101ED0000010A26821F0F0011143C8F80010C007FB
:101EE0003FD1D8F8F80300F00700A84207D988F8D6
:101EF000F853D8F8F80300F00700A8424BD1206847
:101F0000410707D5D8F80010E26821F4E0511143E9
:101F1000C8F80010000708D5D8F80000216920F49F
:101F2000604040EAC100C8F8000000F081F8D8F82D
:101F3000001045F68C52C1F30311C0F60002515C4B
:101F400040F2400220FA01F140F21C10C2F20000FF
:101F50000068C2F200021160FFF754F80020BDE8EB
:101F6000F0816068811E022907D258F8081C890197
:101F70005CBF0120BDE8F08110E0012807D158F8CE
:101F8000081C89035CBF0120BDE8F08106E058F819
:101F9000081C890702D40120BDE8F081D8F80010A0
:101FA00021F003010843C8F80000FEF7FBFF0646D6
:101FB00041F28837D8F80000616800F00C00B0EBFF
:101FC000810F8ED0FEF7EEFF801BB842F2D90320BE
:101FD000BDE8F08140F24000C2F2000000687047A6
:101FE00040F2400043F60801C2F20000C4F20201D0
:101FF0000068096845F69C52C1F38221C0F60002D0
:10200000515CC8407047000040F2400043F60801B0
:10201000C2F20000C4F202010068096845F69C5251
:10202000C1F34231C0F60002515CC8407047000065
:1020300010B543F60404C4F20204606800F00C0119
:1020400042F200400829C0F2F40007D0042918BF6A
:1020500010BD41F20020C0F27A0010BD216801F0ED
:102060003F02216823684902C3F3881105D4A1FB0C
:1020700000010023FEF7A4F806E041F20020C0F2C0
:102080007A004843B0FBF2F021680222C1F301411B
:1020900002EB4101B0FBF1F010BD0000002804BFCD
:1020A000012070472DE9F04182B00446007843F6E4
:1020B0000006C007C4F2020647D0B06800F00C006A
:1020C000042808D1306880033FD56068E8BB012050
:1020D00002B0BDE8F081B06800F00C00082802D121
:1020E00070684002EED46568B5F5A02F0AD0B5F54A
:1020F000803F0BD0306820F480303060306820F4AE
:10210000802006E0306840F480203060306840F481
:1021100080303060FEF746FF002D054612D000BF2C
:102120003068800311D4FEF73DFF401B6428F7D9C7
:1021300026E100BFFEF736FF401B64284FF0030086
:1021400000F2E28030688003F4D4207880071BD549
:10215000B06810F00C0F09D0B06800F00C0008282F
:1021600040F087807068400200F18380306880070B
:1021700003D5E068012840F09E803068216920F096
:10218000F80040EAC10030602078000735D420789C
:10219000400748D4A56965B3B06800F00C00082872
:1021A00040F09E80012D00F086807068E16900F4A7
:1021B00080028A4240F07F80216A00F03F028A421A
:1021C00079D147F6C071626A0140B1EB821F72D1CA
:1021D000A16A4FF6FF73C903994300F44032A1F599
:1021E00080318A4267D1E16A00F07060B0EB016F24
:1021F00061D1002002B0BDE8F0816069002840F2A2
:102200000000C4F247205AD00121C0F8801EFEF71A
:10221000C9FE0546706F8007B9D4FEF7C3FE401BA8
:102220000228F7D9ACE0306C5FEAC0080AD400207D
:102230000190306C40F080503064306C00F0805081
:102240000190019847F20007C4F200073868C00502
:1022500024D4386840F480703860FEF7A3FE054649
:102260003868C0051AD4FEF79DFE401B0228F7D936
:1022700086E0E068002857D00020C4F24720012102
:102280000160FEF78FFE0546306880073FF575AFA9
:10229000FEF788FE401B0228F6D971E0A568052DDF
:1022A00056D0012D58D0306F20F001003067306FCC
:1022B00020F0040053E0012002B0BDE8F0810021CD
:1022C000C0F8801EFEF76EFE054600BF706F8007E7
:1022D0007FF55DAFFEF766FE401B0228F6D94FE0A2
:1022E0000027C4F2472700203866FEF75BFE022D68
:1022F00005460DD13068800159D5FEF753FE401BCD
:1023000002284FF00300F5D902B0BDE8F08100BF0C
:10231000306880017FF56DAFFEF744FE401B022858
:102320004FF00300F4D9EFE70020C4F2472000216A
:102330000160FEF737FE0546306880077FF524AF61
:10234000FEF730FE401B02284FF00300F4D9DBE714
:10235000306F40F004003067306F40F001003067AC
:10236000FEF720FE002D054641F2883713D000BF4E
:10237000306F800712D4FEF715FE401BB842F7D924
:10238000032002B0BDE8F081FEF70CFE401BB8420E
:102390004FF00300B8D8306F8007F5D4B8F1000FC4
:1023A0003FF5F8AE306C20F080503064F2E604F176
:1023B0001C052FCD084340EA8210D9034FF6FF7267
:1023C0009143A1F5803140EA056008437060012027
:1023D0003866FEF7E7FD0446306880013FF509AF37
:1023E000FEF7E0FD001B02284FF00300F4D98BE755
:1023F00070B538B10446406A30B10020206104F164
:10240000140007E0012070BD6068B0F5827F03D042
:1024100004F11C00002101600026A66294F851001E
:1024200020B9204684F8506000F03CF8022084F87F
:10243000510094E80F0001F48271056802F404422F
:1024400025F040050560114403F40062236911443E
:1024500003F002026369114403F00102A369E56914
:10246000114403F40072114405F03802256A114446
:1024700005F08002A56A114305F400521143016082
:10248000626A042101EA134102F010021144416022
:10249000C16921F40061C1610120666584F85100C1
:1024A000304670BD80B586B0006843F60042C4F285
:1024B000000200219042CDE90411CDE90211019101
:1024C00024D043F20001C4F20101884249D1002026
:1024D00043F630010090C4F202014A6942F480528E
:1024E0004A614A6902F480520092009A009008689A
:1024F000E02240F0010008600868052100F00100BA
:10250000009000980020C4F202001FE043F6300063
:102510000091C4F20200026942F4004202610269C1
:1025200002F400420092009A009101684FF4E052D8
:1025300041F0040101600068062100F004000090F1
:1025400000980020C4F2020000F50060019202220F
:102550000292002203920322CDE9042101A9FEF791
:102560004FFC06B080BD0000411E0020B0EB116F93
:102570001CBF012070474EF21002CEF200025160E3
:102580004EF62351CEF20001F0230B70072190602C
:1025900011607047704700007047000090F83C20C1
:1025A000012A4FF0020255D010B5012380F83C30CB
:1025B00080F83D200268D2F804E0D2F808C00C6828
:1025C0002EF07003234341F2FF74C4F20004A242D0
:1025D00053600DDC40F2FF73C4F200039A4215DC35
:1025E000B2F1804F29D040F20043C4F2000322E050
:1025F00040F2FF33C4F201039A4212DC41F60003B9
:10260000C4F200039A4218D0002312E040F60003FF
:10261000C4F200039A4210D040F60043C4F2000313
:1026200009E044F20003C4F201039A4205D040F2EB
:102630000043C4F201039A4204D149682CF080039C
:10264000194391600121002280F83D1080F83C2060
:10265000BDE8104010467047002804BF01207047B5
:1026600010B5044690F83D0028B9002084F83C00DD
:10267000204600F01FF8022084F83D002068211D4C
:1026800001F052F8012084F8460084F83E0084F8F6
:102690003F0084F8400084F8410084F8420084F848
:1026A000430084F8440084F8450084F83D0000208D
:1026B00010BD00000068B0F1804F18BF704780B5B2
:1026C00082B00020019043F64000C4F2020001688D
:1026D000002241F0010101600068002100F00100CA
:1026E000019001981C20FEF7E1FC1C2002B0BDE81F
:1026F0008040FEF7CBBC000090F83D1001291CBFC4
:1027000001207047022180F83D10006841F2FF72FD
:10271000C168C4F20002904241F00101C1600DDCC9
:1027200040F2FF71C4F20001884215DCB0F1804F25
:1027300029D040F20041C4F2000122E040F2FF3112
:10274000C4F20101884212DC41F60001C4F200012A
:10275000884218D0002112E040F60001C4F20001C6
:10276000884210D040F60041C4F2000109E044F272
:102770000001C4F20101884205D040F20041C4F2D8
:102780000101884206D1816801F00701062904BFD2
:1027900000207047016841F001010160002070478E
:1027A00090F83C20012A4FF0020200F0C68080B56C
:1027B000012380F83C3080F83D20D0F800C04FF66F
:1027C0007772DCF8083023EA0202CCF808200B68A4
:1027D0004F2B28DC1F2B44DD202B45D0302B43D042
:1027E000402B40F0AC80D1F804E0C968DCF8203020
:1027F000DCF8202022F00102CCF82020DCF81820A0
:1028000022F0F00242EA011123F00A0242EA0E022B
:10281000CCF81810CCF82020DCF8081041F0470163
:1028200021F030017EE06F2B26DDB3F5005F47D04D
:10283000B3F5805F78D0702B40F08180D1E901E35F
:10284000C968DCF8082043EA0E0322F47F4243EA19
:1028500001211143CCF80810DCF8081041F0770191
:1028600060E00BB1102B6AD1DCF8081021F0700188
:10287000194341F0070155E0502B34D0602B5ED155
:10288000D1F804E0C968DCF8203023F01003CCF85C
:102890002030DCF81830DCF8202023F4704322F0DC
:1028A000A00243EA013142EA0E12CCF81810CCF82B
:1028B0002020DCF8081041F0670121F0100131E020
:1028C000D1E901E3C968DCF8082043EA0E0322F4E9
:1028D0007F4243EA01211143CCF80810DCF80810CC
:1028E00041F480411EE0D1F804E0C968DCF82030F2
:1028F000DCF8202022F00102CCF82020DCF818209F
:1029000022F0F00242EA011123F00A0242EA0E022A
:10291000CCF81810CCF82020DCF8081041F0570152
:1029200021F02001CCF808100022012180F83D1090
:10293000002180F83C10BDE880401046704701221D
:10294000F3E700007047000010B504460068016915
:10295000890744BFC1685FEA81713FD4206801697B
:10296000490744BFC1685FEA417143D420680169E7
:10297000090744BFC1685FEA017148D42068016952
:10298000C90644BFC1685FEAC1614CD420680169CF
:10299000C9071CBFC1685FEAC17151D120680169D4
:1029A000090644BFC1685FEA016150D4206801692B
:1029B000490644BFC1685FEA41614FD42168086994
:1029C000800646BFC8685FEA806010BD6FF02002D5
:1029D00020460A61BDE81040FFF7DEBD6FF002013E
:1029E000016101212177806980073ED02046FFF7F1
:1029F000A9FF40E06FF004010161022121778069A5
:102A000010F4407F3AD02046FFF79CFF3CE06FF087
:102A10000801016104212177C069800737D0204671
:102A2000FFF790FF39E06FF0100101610821217775
:102A3000C06910F4407F33D02046FFF783FF35E0B4
:102A40006FF001010161204600F038F8A6E76FF051
:102A5000800101612046FFF79DFDA7E76FF040016F
:102A60000161204600F02CF8A8E7204600F022F88B
:102A7000204600F021F8002020776FE7204600F084
:102A800019F8204600F018F8002020776EE720465D
:102A900000F010F8204600F00FF8002020776DE7D6
:102AA000204600F007F8204600F006F800202077C6
:102AB0006CE700007047000070470000704700009E
:102AC000704700007047000070470000B0B582B04A
:102AD000044600680168C368426901F02F05202D93
:102AE00003F0200506D12DB1204602B0BDE8B0406C
:102AF00000F0B2BE5FEA017C1EBF02F0010E03F4DB
:102B0000907212EB0E0240D1226BCD0618D5012A2D
:102B100016D113F0100213D0002101910168019128
:102B20004168019101994069400636D4A08DE18D3C
:102B3000E28D002A18BF884240F00A8102B0B0BD81
:102B40000A066ED513F080026BD094F83D1021294F
:102B5000F4D1A168B1F5805F03D12169002900F0AB
:102B60002A81216A4A1C226209784160E18C01397C
:102B70000A04E184E2D1C16821F08001C160C1682A
:102B800041F04001C16002B0B0BDC80718BF13F4E6
:102B900080705AD148075ED464E0A06B0168496830
:102BA0008AB2002ACAD0A38D9A42C7D2E185C069F1
:102BB000B0F5807F31D000BF206850E8030F216856
:102BC00020F4807041E80302002AF5D1206850E823
:102BD000050F216820F0010041E80502002AF5D127
:102BE000206850E8050F216820F0400041E8050208
:102BF000002AF5D1202084F83E000020206300BF89
:102C0000206850E8030F216820F0100041E803021B
:102C1000002AF5D1A06BFEF78DF8A08DE18D401A4A
:102C2000BCE049067FF58AAF13F040013FF486AF60
:102C3000C16821F04001C1602021204684F83D1088
:102C400002B0BDE8B04000F061BA206C40F0010075
:102C50002064480706D5BEF1000F03D0206C40F079
:102C600002002064880706D5BEF1000F03D0206C57
:102C700040F004002064BCF1000F06D55EEA0500B8
:102C800003D0206C40F008002064206C00283FF442
:102C900055AF880603D515B1204600F0DDFD20684C
:102CA0004069216C00F0400001F00801401848D054
:102CB000206850E8030F216820F4907041E8030277
:102CC000002AF5D1206850E8050F216820F00100A6
:102CD00041E80502002AF5D1206B01280AD100BF86
:102CE000206850E8030F216820F0100041E803023B
:102CF000002AF5D1202084F83E00002020632068BF
:102D00004069400651D500BF206850E8050F216892
:102D100020F0400041E80502002AF5D1A06B002810
:102D200043D043F64D01C0F600010165FEF742F8BD
:102D300000283FF403AFA06B016D02B0BDE8B040C6
:102D400008472046FFF7C0FE0020206402B0B0BD57
:102D5000401A00BF216851E8031F226821F49071D6
:102D600042E80313002BF5D1216851E8051F2268C2
:102D700021F0010142E80513002BF5D1202184F850
:102D80003E100021216300BF216851E8031F226823
:102D900021F0100142E80313002BF5D181B2204647
:102DA00002B0BDE8B040FFF78DBE204602B0BDE8DE
:102DB000B040FFF789BE216A31F8022B6FF35F2222
:102DC00042602162D2E60000002804BF0120704763
:102DD00010B5044690F83D0028B9002084F83C0066
:102DE000204600F021F8242084F83D002068C168C6
:102DF00021F40051C160204600F08CFD206801697B
:102E000021F490410161416921F02A014161C168C9
:102E100041F40051C16000202021206484F83D105D
:102E200084F83E1010BD000080B586B041F200016C
:102E30000068C4F20101002288420592CDE9032214
:102E40000292019201D006B080BD43F6300000929C
:102E5000C4F20200436943F010034361436903F085
:102E600010030093009B0092036843F00203036089
:102E7000006800F0020000900098C020019002203D
:102E8000CDE90202032004900720059001F574406B
:102E900001A9FDF7B5FF252000210022FEF706F964
:102EA0002520FEF7F3F806B080BD000090F83E3014
:102EB000202B0BD100294FF0010318BF002A01D1AC
:102EC0001846704790F83C30012B02D10223184677
:102ED000704700230363816222218285C2850364D7
:102EE00080F83E10016980F83C3021B10168CA6861
:102EF00042F48072CA600068416941F00101416199
:102F0000C16841F02001C16018467047006841F275
:102F10000001C4F20101884218BF704780B542F237
:102F20001400C2F20000007840F2201CC2F2000C33
:102F3000C0B141F6D402C2F200029CF800E013884E
:102F400042F21000C2F20000013300886FF39F23A9
:102F5000834207D0108842F21501C2F2000101F845
:102F600000E0138040F21810C2F20000007818B19F
:102F70009CF8000002F068FE41F6DC6040F220118F
:102F8000C2F20000C2F200010122BDE88040FFF75A
:102F90008DBF00002DE9F04381B0044690F83D005C
:102FA00020280DD10D4600294FF0010000F0AB8024
:102FB0001646002A00F0A78094F83C00012803D1AF
:102FC000022001B0BDE8F083012084F83C0000201D
:102FD00020642120984684F83D00FDF7E3FFA68495
:102FE000E684A1688146B1F5805F01D1206910B106
:102FF0002F46002500E00027002084F83C00E08CEC
:10300000002842D008F101060AE000BF97B117F886
:10301000010B21684860E08C0138E084E08CA0B3AB
:10302000206800680006F1D4BEB1B8F1000F0ED1DF
:1030300016E000BF35F8020B21686FF35F2048608F
:103040000027E8E701680906E0D4002EFAD0FDF772
:10305000A9FFA0EB0900404502D82068F2E700BFB5
:10306000206850E8030F216820F4D07041E8030283
:10307000002AF5D1206850E8050F216820F00100F2
:1030800041E80502002AF5D10AE020680068400600
:1030900035D4B8F1000F1DD018F101050CD012E0A5
:1030A000202084F83D0084F83E00002084F83C0095
:1030B000032001B0BDE8F083206800BF0168490625
:1030C0001DD4002DFAD0FDF76DFFA0EB090040459F
:1030D000F2D900BF206850E8030F216820F4D070B7
:1030E00041E80302002AF5D1206850E8050F216865
:1030F00020F0010041E80502002AF5D1D0E72020A8
:1031000084F83D00002001B0BDE8F0837047000066
:10311000FEE70000B0B50446FDF7A7F880B200282E
:1031200008BFB0BD41F6D40142F2100E42F2150CB8
:10313000C2F20001C2F2000EC2F2000C02E000BFB7
:1031400001380ED014F8013B0A88BEF80050013255
:103150006FF39F22AA42F3D00D880CF805300A8045
:10316000EEE7B0BD80B541F2D05040F20801C2F2A6
:103170000000C2F20001002201F052F8002818BF3E
:10318000FDF71CFD41F2D05040F24401C2F20000B4
:10319000C2F2000101F0A8FA002818BFFDF70EFDE9
:1031A00041F2D05040F2E001C2F20000C2F2000150
:1031B00000F020FE002818BFFDF700FD41F2D050BE
:1031C000C2F2000001F0BAFA002808BF80BDBDE8D5
:1031D0008040FDF7F3BC0000FEE7000080B582B040
:1031E0000A460029A0F1410018BF0122392800F247
:1031F0005080DFE800F01D242D4E4E4E4E4E4E4EB8
:103200004E4E4E4E4E4E4E4E4E4E4E4E4E363E460E
:103210004E4E4E4E4E4E1D242D4E4E4E4E4E4E4E4A
:103220004E4E4E4E4E4E4E4E4E4E4E4E4E363E46EE
:1032300041F20000C4F202004FF4005127E041F2D5
:103240000000C4F20200A0F540604FF480511EE07F
:1032500041F20000C4F20200A0F580604FF400616A
:1032600015E041F20000C4F20200A0F580500221F6
:103270000DE041F20000C4F20200A0F50060202140
:1032800005E041F20000C4F202004FF48071FDF746
:1032900083FE002001900198312806DC00BF0198D0
:1032A0000130019001983228F8DB02B080BD0000A7
:1032B0004138392888BF7047B1FA81F14A09DFE8FF
:1032C00000F0262E36494949494949494949494961
:1032D0004949494949494949491D1D4049494949BF
:1032E0004949262E3649494949494949494949499F
:1032F0004949494949494949491D1D4041F2000090
:10330000C4F20200A0F580500821FDF745BE41F24D
:103310000000C4F202004FF48061FDF73DBE41F2AF
:103320000000C4F202004FF40041FDF735BE41F247
:103330000000C4F20200A0F580604FF48071FDF738
:103340002BBE41F20000C4F20200A0F54060022151
:10335000FDF722BE70470000B0B582B04138392871
:1033600000F253800024C4F202040125DFE800F0DB
:103370001D22274D4D4D4D4D4D4D4D4D4D4D4D4DFE
:103380004D4D4D4D4D4D4D332C304D4D4D4D4D4DC5
:103390001D22274D4D4D4D4D4D4D4D4D4D4D4D4DDE
:1033A0004D4D4D4D4D4D4D332C3004F580544FF463
:1033B000805510E004F580644FF400650BE004F5DF
:1033C00040644FF4806506E004F50064102502E0D7
:1033D00004F580548025204629460122FDF7DCFDB6
:1033E000002001900198312807DC00BF00BF019840
:1033F0000130019001983228F8DB2046294600224E
:1034000002B0BDE8B040FDF7C7BD02B0B0BD0000DE
:1034100080B502F033FC02F0C1FBBDE8804002F051
:10342000DDB90000FEE7000041F6D800C2F200005E
:10343000FDF7E0BF7047000041F68C71C2F2000159
:1034400091F8602091F861309A4204BF00207047E3
:1034500091F8612002EB420251F8223001EB820226
:103460000360D2E90123C0E9012391F86100013032
:1034700000F0070081F861000120704741F68C716F
:10348000C2F2000191F8602091F86130013202F03F
:1034900007029A4204BF0020704710B591F86030CF
:1034A000D0E900E403EB4303806801EB830CCCE933
:1034B0000140012041F823E081F8602010BD0000A8
:1034C00070470000B0B584B041F6FC74C2F200044D
:1034D000207CD0B102F05AFB40F22412C2F200026A
:1034E00011686368411A994207D9617A10600846E9
:1034F000FFF732FFE0680130E0602068E168814258
:1035000024BF0020207404B0B0BD01A8FFF794FFD1
:10351000A8B101AA07CA0023C4E900010120207450
:103520009DF80D000121E360A260FFF7C1FE9DF848
:103530000C109DF80D00FFF751FE04B0B0BD9DF8D2
:103540000D0000210025FFF7B3FE257404B0B0BDC7
:1035500080B584B002F01AFB41F62071C2F200017E
:103560000A68821AD2087C2A98BF0860FDF72AFBF5
:1035700040F21411C2F2000191ED000A01EE100AAE
:1035800040F22400B8EEC11A9FED323AC2F20000B8
:1035900030EE411A90ED034A21EE032A90ED060A1F
:1035A00032EE042AB4EE402AF1EE10FA80ED032A3E
:1035B000C8BF80ED030A90ED034A90ED052AB4EEF2
:1035C000424AF1EE10FAB8BF80ED032A90ED044AAA
:1035D00090ED015A31EE444A84EE033A90ED004AF0
:1035E00090ED036A90ED027A80ED041A25EE065AFA
:1035F00024EE011A31EE051A7A2027EE033A33EE53
:10360000011AB4EE401AF1EE10FAC8BFB0EE401A3B
:10361000B4EE421AF1EE10FAB8BFB0EE421AB5EEAF
:10362000401AF1EE10FA8DF80D0001DD002002E0E5
:103630000120B1EE411A8DF80C004FF4FA70BCEE87
:10364000C10A029001A88DED010AFFF717FF04B02F
:1036500080BD00BF6F12833AFDF7AABC70B592B06F
:1036600006AC20463021FCF7E3FD002543F6400080
:103670000595CDE90355CDE901550095C4F2020049
:103680000168022641F080510160006800F080501E
:103690000090009847F200000095C4F20000016815
:1036A00041F480410160006800F48040009000987F
:1036B000012006904FF4803007904FF480000D9069
:1036C00004200E90A820CDE90F0607201190204677
:1036D0000C96FEF7E3FC10B172B600BFFEE70F20B8
:1036E000CDE901064FF4A05004904FF480500590AE
:1036F00001A805210395FEF7BDFB10B172B600BF0E
:10370000FEE712B070BD00004EF68850CEF2000009
:10371000016841F4700101607047000041F6946057
:10372000C2F20000FFF710B910B540F6FF3E036883
:10373000C4F2000E40F2004C7045C4F2010C0FDCE4
:10374000B0F1804F19D040F20042C4F20002904222
:1037500013D040F60002C4F2000290420DD010E0F7
:1037600040F60042C4F20002904206D0604504D008
:103770000022C4F20102904203D14A6823F0700390
:10378000134341F6FF72C4F2000290420DDC704513
:103790001FDCB0F1804F41D040F20042C4F2000281
:1037A00090423BD040F6000221E043F6FF72C4F2A3
:1037B0000102904220DC42F20002C4F20002904278
:1037C0002CD00022C4F20102904227D0604525D0BF
:1037D00028E040F60042C4F2000290421ED041F6BA
:1037E0000002C4F20002904218D041F60042C4F236
:1037F0000002904212D015E044F20002C4F201022D
:1038000090420BD044F60002C4F20102904205D06F
:1038100044F20042C4F20102904203D1CA6823F488
:103820004073134323F080024B69D1F800E08C68A9
:103830001A430260C46240F48062C0F828E0624526
:1038400004BF096901630121416110BD806B002142
:10385000C185C184FFF738B990F83E10222918BFFE
:1038600070478268B2F5805F01D1016991B1816AC8
:10387000B2F5805F07D00AB9026922B102685268C6
:1038800002F07F0201E0026852680A70816A013129
:10389000816207E00168826A49686FF35F2122F85C
:1038A000021B8262C18D01390A04C18500D07047B4
:1038B0000168CA6822F02002CA60CA6822F48072D5
:1038C000CA604A6922F001024A61202180F83E1054
:1038D000016B012918BFFFF719BB81B000210163FB
:1038E000016851E8031F026821F0100142E8031348
:1038F000002BF5D101680A68D20606D50022009295
:103900000A680092496800910099818D01B0FFF723
:10391000D9B8000010B504460068D4E902C2236992
:10392000016921F4405111430161626943EA0C01CC
:10393000E3691143C268194349F20C639A43114386
:10394000C1604169A26921F4407141F20043114311
:1039500040F48062C4F201039A42416102D1FEF751
:1039600053FB01E0FEF73CFBE16963681922B1F506
:10397000004FA0FB020120D15A00DB0FFCF720FC16
:1039800048F21F51C5F2EB11A0FB01235A094FF673
:103990009C73C0F6FF7303F1805302FB03003223D4
:1039A00003EBC000A0FB01014FF4F87000EA111016
:1039B00000EB0210C1F342111CE09A009B0FFCF7D0
:1039C000FFFB48F21F51C5F2EB11A0FB01235A097E
:1039D0004FF69C73C0F6FF7302FB0300322303EB28
:1039E0000010A0FB0101F02000EA511000EB0210D2
:1039F000C1F3431108442168886010BD41F2D050E2
:103A0000C2F2000090F89C02032818BF7047F0B57E
:103A100081B042F2100741F6D400C2F20007C2F2B0
:103A200000003D880088854202D10021C1B920E014
:103A300042F2150140F228120023C2F20001C2F244
:103A4000000200BFACB20E5D01355C1C3E2B6FF373
:103A50009F25D65402D885422346F3D1E1B241B125
:103A600040F22810C2F20000FDF722F8002808BF3B
:103A70003D8001B0BDE8F0407047000041F6DC60D9
:103A800040F22011C2F20000C2F200010122FFF751
:103A90000DBA000041F6DC60C2F20000FFF716B874
:103AA00070B5D0F8D42200EB8202D2F8C03243B312
:103AB00001F00F0E8C460EEB8E0100EB810151F8E8
:103AC000184F5CB1D0F8C8620EEBCE0506EB850648
:103AD000B66CB4FBF6F505FB1646A6B10024C3F898
:103AE0001442D2F8C402D0F810E0BEF1000F06D0A4
:103AF000D3F8080203F504716246F047002420461B
:103B000070BD032070BD00240C60614600220023BC
:103B100000F0CCFD204670BDB0B50446D0F8D4020C
:103B200004EB8000D0F8C05295B1204600F05EFC56
:103B3000D4F8D412C5F80C0204EB8101D1F8C412F8
:103B4000D5F80402CA6805F5037190470020B0BD9E
:103B50000320B0BD70B58121044600F089FB00252B
:103B600020460121258700F083FB20468221A4F80E
:103B7000785100F07DFBD4F8D402E56404EB8000BA
:103B8000D0F8C01289B1D0F8C40240688047D4F898
:103B9000D40204F5307656F8200001F04FF8D4F83E
:103BA000D40246F82050C4F8BC52002070BD00007A
:103BB00010B5D0F8D41200EB8100D0F8C04284B127
:103BC000D0F8C41259B194F80002FF2807D08B68CE
:103BD00094F8012221469847FF2084F80002002033
:103BE00010BD032010BD0000014640F2C0000A22B3
:103BF000C2F200000A807047F0B581B040F27C0745
:103C0000C2F2000704463846822100F0B3FA0646A5
:103C10003846012100F0AEFA05463846812100F011
:103C2000A9FA002E1CBF1021B171002D1CBF40212C
:103C3000A98000281CBF40218180432140F27C00E4
:103C4000C2F20000218001B0F0BD0000F0B581B0EB
:103C500040F27C07C2F2000704463846822100F099
:103C600089FA06463846012100F084FA05463846AE
:103C7000812100F07FFA002E1CBF1021B171002DB0
:103C80001CBF4FF40071A98000281CBF4FF40071C5
:103C90008180432140F27C00C2F20000218001B00B
:103CA000F0BD0000F0B581B040F27C07C2F2000721
:103CB00004463846822100F05DFA06463846012166
:103CC00000F058FA05463846812100F053FA002EDC
:103CD0001CBF1021B171002D1CBF4021A9800028FC
:103CE0001CBF40218180432140F27C00C2F20000D1
:103CF000218001B0F0BD00002DE9F04104464FF4F1
:103D0000077000F09DFF002850D04FF40771054662
:103D1000FCF78EFAD4F8D402402704EB8000C0F8F8
:103D2000C052207CC4F8BC52002808BF4FF4007772
:103D30002046812102223B46022600F0D3FB4FF0B1
:103D400001082046012102223B46A4F8388000F0F9
:103D5000C9FB1020A4F84E0020468221032208232C
:103D6000A4F8788100F0BEFBD4F8D4020027C5F88F
:103D7000047204EB8000D0F8C402A4F84C80006800
:103D80008047C5F81472C5F81872D5F8042252B1EC
:103D9000207C01210028204614BF40234FF40073EB
:103DA00000F0B4FB00263046BDE8F081D4F8D40220
:103DB000002104EB8000C0F8C0120220BDE8F081B1
:103DC000D0F8D41200EB8101D1F8C012002904BF51
:103DD0000320704780B590F810C0D1F8042240232A
:103DE0000121BCF1000F08BF4FF4007300F08EFBFF
:103DF000002080BD00290FBF0320D0F8D42200EBA3
:103E00008200C0F8C41218BF00207047D0F8D42236
:103E100000EB8200D0F8C00200280EBF0320C0F8DB
:103E20000412002070470000D0F8D43200EB830069
:103E3000D0F8C00200280FBF0320C0F80812C0F855
:103E4000102200207047000070B582B00446D0F800
:103E5000D4020D4604EB8000D0F8C0620021002E91
:103E60008DF80710ADF8041057D0297811F06002D2
:103E700015D0202A4DD1EA882AB349B2B1F1FF3FCB
:103E80002ADD6878314686F800022046402A28BF9D
:103E9000402286F8012200F091F800263EE0687882
:103EA0000B2836D80026DFE800F0063934343434E5
:103EB00034343434243094F89C02032829D101A9E5
:103EC000204602221DE0D0F8C402294683686878A3
:103ED00000220026984721E0D0F8C40231468368CA
:103EE00068789847EA882046072A28BF0722314683
:103EF00007E094F89C0203280BD10DF1070120463E
:103F0000012200F075F8002608E094F89C020328CE
:103F100004D02046294600F045F80326304602B07A
:103F200070BD0000D0F8D41200EB8101D1F8C0229E
:103F3000002A04BF03207047D2F8141200294FF062
:103F4000010101D00846704780B5C2F81412D2F8BA
:103F50001032D2F808228121C36200F0A7FB0021B1
:103F6000BDE880400846704780B5D0F8B822526856
:103F70009047002818BF032080BD00000020704734
:103F80000020704780B513460A46002100F0BEFAB3
:103F9000002080BD80B513460A46002100F086FB54
:103FA000002080BD10B58021044600F051FB204662
:103FB0000021BDE8104000F04BBB000080B5134667
:103FC0000A460321C0F894120021C0E9563300F0DC
:103FD0009DFA002080BD000080B50521C0F8941234
:103FE00000210022002300F091FA002080BD000093
:103FF00080B513460A460221C0F894120021C0E998
:10400000063300F053FB002080BD000080B5042182
:10401000C0F8941200210022002300F047FB00208A
:1040200080BD000010B540F26C14C2F200040A46D4
:1040300002A0214600F0BAF8204610BD43444320B8
:10404000436F6E666967000040F2CC001222C2F234
:1040500000000A807047000010B540F26C14C2F2F4
:1040600000040A4602A0214600F0A0F8204610BD38
:1040700043444320496E74657266616365000000C5
:1040800040F2F4000422C2F200000A8070470000EF
:1040900010B540F26C14C2F200040A4602A0214698
:1040A00000F084F8204610BD53544D6963726F656B
:1040B0006C656374726F6E696373000010B540F2D3
:1040C0006C14C2F200040A4602A0214600F06EF809
:1040D000204610BD53544D333220566972747561B9
:1040E0006C20436F6D506F727400000070B547F61E
:1040F0001020C1F6FF70026883684FF01A0CD218C6
:10410000A1F800C031D0406840F2F80C6FF0010116
:10411000C2F2000C4FF0370E002300BF0CEB01057C
:104120000EEB1276B2F1204F01F102014FEA127448
:1041300038BF04F1300612010E292E716B71EDD1DA
:104140000CF1100104224FF0370C00230CEB10751A
:10415000B0F1204F4FEA107638BF06F1300501F874
:10416000025F0001013A4B70F0D140F2F800C2F258
:10417000000070BDB0F802C003789C459CBF0020D1
:10418000704780B508E000BF82788A4208BF80BDD2
:1041900073449AB2624506D290F800E070444278C7
:1041A000052AF1D0F4E7002080BD0000002808BFF8
:1041B000704780B503786BB1431E4FF0000C00BF11
:1041C00093F802E00CF1010CBEF1000F03F10103C2
:1041D000F6D101E04FF0000C5FFA8CFC022303EBF8
:1041E0004C03138003220B704A7090F800E0BEF17C
:1041F000000F12D0013802234FF0000CDAB201F8A0
:1042000002E042F0010201F802C090F802E002333D
:10421000BEF1000F00F10100F0D1BDE88040704711
:10422000002804BF032070470023C0F8B832C0F84C
:10423000C4320029C0F8D03218BFC0F8B41201212E
:1042400080F89C12027000F0D5B8000080B5D0F85C
:10425000C802FCF7DBFF40F20032C100C0F20132BD
:1042600022FA01F1032888BF0321C8B280BD0000F3
:1042700080B5D0F8C802FCF7A1FF40F20032C100BF
:10428000C0F2013222FA01F1032888BF0321C8B22B
:1042900080BD0000B0B5044689B194F89C020328A3
:1042A0004FD1D4F8B8024269002A4AD00020C4F89D
:1042B000D40220469047002808BF0020B0BDD4F8A3
:1042C0009402022836D1D4E9071081420DD90B1A85
:1042D000204611461A46E361FFF75CFE20460021A6
:1042E0000022002300F012F924E00FD1A1698142DD
:1042F0000CD3D4F89802814208D220460021002233
:104300000025FFF747FEC4F89852E7E794F89C02AF
:10431000032808D1D4F8B802C16821B10020C4F83C
:10432000D402204688472046802100F091F920469B
:10433000FFF752FE94F8A00200281CBF002084F86A
:10434000A0020020B0BD000010B5044669B194F889
:104350009C0203281ED1D4F8B80282690020D2B191
:10436000C4F8D4022046904715E0D4F894020328FC
:1043700025D1D4E95703984211D9C01AC4F85C0179
:10438000984238BF0346204611461A46FFF7FAFD09
:10439000002010BD0020002808BF002010BD94F8A8
:1043A0009C02032808D1D4F8B802016921B1002089
:1043B000C4F8D402204688472046FFF727FE002095
:1043C00010BD000000207047012180F89C12D0F839
:1043D000B812002904BF0020704780B54A680179EF
:1043E0009047002818BF032080BD0000D0F8C80205
:1043F000FCF740BF017809B10020704710B541F6C5
:10440000D801C2F20001C1F80805C0F8C8124FF087
:10441000A0400422C1E9000202200022C1E90302F7
:10442000C1E906020846C1E90822C1E90B22FDF7ED
:10443000CDFB002818BFFCF7C1FB41F6D804C2F23F
:10444000000420468021FCF76FFE20460021402218
:10445000FCF76EFE204601218022FCF769FEBDE8D4
:1044600010400020704700004AB2D0F8C80201F0A6
:104470007F0101EBC10100EB810000F27E21002AE7
:1044800048BF00F13E01087870470000D0F8D42200
:1044900000EB8202D2F8B822002A04BF0320704742
:1044A00090F89C32032B05D1126A1AB180B590475F
:1044B000002080BD00207047D0F8D42200EB82029B
:1044C000D2F8B822002A04BF0320704790F89C322B
:1044D000032B05D1526A1AB180B59047002080BDE8
:1044E0000020704780B59446D0F8C8021A4663464B
:1044F000FCF7CAFE40F20032C100C0F2013222FADB
:1045000001F1032888BF0321C8B280BD80B5D0F86F
:10451000C802FCF7EDFE40F20032C100C0F20132E9
:1045200022FA01F1032888BF0321C8B280BD000030
:10453000F0B581B00126002580F89C62C0F8945245
:1045400004464560D0F8B802C4F8A45284F8A052DA
:1045500040B1426832B1204600219047054600280C
:1045600018BF032520460021002240234027FFF7E3
:10457000B9FF2046802100224023A4F86461C4F8DA
:104580006071FFF7AFFFA6842846276201B0F0BD37
:1045900090F89C12042904BF90F89D1280F89C1298
:1045A0000020704790F89C12032908D1D0F8B81267
:1045B00029B1C96919B180B58847BDE8804000209C
:1045C00070470000024600201174704780B5D0F893
:1045D000C802FDF7F9FB40F20032C100C0F201321F
:1045E00022FA01F1032888BF0321C8B280BD000070
:1045F000B0B500F2AA250446284600F069F801206B
:10460000C4F8940294F8AA02B4F8B02200F01F0192
:104610000229C4F8982208D001290CD089B9204673
:104620002946BDE8B04000F08BB820462946BDE8D9
:10463000B04000F021BA20462946BDE8B04000F065
:10464000C1BA00F080012046BDE8B040AFF3008061
:1046500080B5D0F8C802FCF771FE40F20032C1000C
:10466000C0F2013222FA01F1032888BF0321C8B247
:1046700080BD000080B5D0F8C802FDF7C1FB40F254
:104680000032C100C0F2013222FA01F1032888BFD2
:104690000321C8B280BD0000014690F89C020422AC
:1046A00081F89D02002081F89C22704780B5D0F8E7
:1046B000C802FCF77DFE40F20032C100C0F20132B8
:1046C00022FA01F1032888BF0321C8B280BD00008F
:1046D0000A7802704A7842704A8842808A888280CA
:1046E000C988C1807047000010B582B00446002020
:1046F000ADF80600B1B1D4F8D42204F52E70C4F898
:10470000B81250F82200C16A21B10DF106008847A5
:10471000C4F8D002D4F8D8020130C4F8D80200207E
:1047200002B010BD032002B010BD0000D0F8B822C6
:10473000002A04BF0020704712681047FFF79ABF95
:1047400070B582B00D460978044611F0600111D0B1
:10475000402902D0202940F0CD80D4F8D402294647
:1047600004EB8000D0F8B8028268204602B0BDE8B1
:10477000704010476878092800F2BC80DFE800F03C
:10478000051BBA2CBA5D7DBA374A94F89C020138F1
:10479000022800F2AF80E888022840F0AB80D4F80D
:1047A000A4020322002808BF0122214641F80C2F51
:1047B000204602224CE194F89C020138022800F2C3
:1047C000998068880025012840F09D80C4F8A45293
:1047D0002046FFF71BFC96E06888022800F07C80EA
:1047E000012840F087800120C4F8A40277E0E8881F
:1047F000012840F07F8094F89C02411E022980F03D
:1048000073800025214641F8085F20460122FFF70A
:10481000EFFB78E0688840F26815C2F2000510F0FE
:10482000FE0F28703ED020468021FFF711FF204662
:104830000021FFF70DFF032565E0A888002859D166
:10484000E888002856D168887F2853D894F89C12AD
:1048500003294FD000F07F052046294684F89E5258
:10486000FFF7B4FE2046FFF7D1FB002D14BF022056
:10487000012084F89C02002545E068884FF0FF3154
:1048800001EB102100220629ADF8062000F2C980B4
:10489000DFE801F004493CC7C7566000D4F8B40211
:1048A0000268B7E094F89C22C1B2032A60D0022AC1
:1048B00040F07F8099B120466160FFF737FF0546E1
:1048C000002800F08C8020468021FFF7C1FE2046A2
:1048D0000021FFF7BDFE68E0687984F8A002204659
:1048E000FFF794FB00250EE0032803D1211D20468D
:1048F0000122ADE020468021FFF7AAFE20460021DC
:104900000025FFF7A5FE284602B070BDC0B20528FD
:1049100000F28780DFE800F0036A6E72767AD4F8DE
:10492000B402426875E0217CD4F8B80200290CBFBB
:10493000816AC16A0DF1060088470646022014E02C
:10494000207C00286DD1D4F8B802416B0DF106002F
:10495000884763E0207C002863D1D4F8B802016B5B
:104960000DF106008847064607207070012062E0BE
:1049700069B360688842B2D0C1B22046FFF7F4FA4A
:10498000297820466160FFF7D1FE054600283FF4F4
:104990001FAF20468021FFF75BFE20460021FFF776
:1049A00057FE21792046FFF7DFFA022084F89C02A7
:1049B000A9E720468021FFF74BFE20460021FFF7A4
:1049C00047FE29782046FFF7CFFA03259BE7022010
:1049D00084F89C0220466160FFF7C6FA7FE7204614
:1049E000FFF714FB032084F89C028CE7D4F8B40290
:1049F00082680EE0D4F8B402C2680AE0D4F8B402C7
:104A0000026906E0D4F8B402426902E0D4F8B402C4
:104A1000826932B1207C0DF10601904706460120E3
:104A200009E020468021FFF713FE204600210026E2
:104A3000FFF70EFE002090B1EA886AB1BDF80600CB
:104A400078B1904238BF0246ADF806202046314684
:104A5000FFF7CEFA002556E72046FFF7D7FA0025E4
:104A600051E720468021FFF7F3FD20460021FFF7A4
:104A7000EFFD002547E7000070B50E46097835794F
:104A800011F0600104460AD0402901D0202977D1D5
:104A900020462946FFF772FAD8B1002070BD707821
:104AA00020B301283BD003286AD194F89C02032844
:104AB00039D1708840B915F07F0005D0F08818B959
:104AC00020462946FFF7C4FD2046FFF79FFA002045
:104AD00070BDD4F8B80282680020002AC4F8D4025D
:104AE000DBD020463146BDE87040104794F89C0268
:104AF000032823D0022808BF5FEA456040D105F0B3
:104B00007F0000EB800004EB800000F114012A0616
:104B100058BF00F5AA710020086020464CE094F8C8
:104B20009C02032836D002282AD1680628D02046C5
:104B30002946FFF78DFD2046802127E005F00F0074
:104B400000EB8000802D04EB80002CBF808CB0F83F
:104B50006401A8B105F07F0000EB800004EB800049
:104B600000F11406802D38BF00F5AA7668061FD024
:104B700020462946FFF778FC002818BF012018E0DE
:104B800020468021FFF764FD20460021FFF760FDED
:104B9000002070BD708800287FF47FAF680603D0C6
:104BA00020462946FFF752FB2046FFF72FFA6FE712
:104BB00000203060204631460222FFF719FA00201B
:104BC00070BD000070B50D460978044611F0600113
:104BD00018BF40290FD194F89C02013802280CD844
:104BE000A88810F0FE0F08D1C1B22046FFF7C8F91F
:104BF00070B1032618E02029EDD020468021FFF770
:104C000027FD204600210026FFF722FD304670BD1B
:104C1000D4F8B8028268002AEBD00020C4F8D4028D
:104C20002046294690470646E888002808BF002EFF
:104C3000ECD12046FFF7EAF9304670BD704700001E
:104C400040F26C30C2F200007047000010B50A78E4
:104C50004B78D0F81CE802F00F04012B4FEA421CFD
:104C600017D10123A34043EA0E03C0F81C38604467
:104C7000D0F800391B0427D4CB6800F510600979FF
:104C800004686FF3DF2343EA814144EA825211430F
:104C900015E04FF48032A24042EA0E02C0F81C2810
:104CA0006044D0F8002B12040ED4CA6800F53060BE
:104CB00009796FF3DF22036842EA8141194341F029
:104CC000805141F400410160002010BD0146D0F840
:104CD000000940F2FF729043C1F80009D1F80408BE
:104CE00040F480720020C1F80428704782B0049913
:104CF000DDF808C0012940F64051C0F2030135D16A
:104D0000826B4FF6BF7322F480328263C268CFF6A3
:104D1000BD731A40C260C2680B9B22F44012012B83
:104D2000C26003D1C26842F48012C26000220092C5
:104D3000009A01320092009A8A423AD80269B2F18E
:104D4000FF3FF5DC00220092026942F0010202619D
:104D5000009A01320092009A8A422AD80269D20748
:104D6000F6D10021BCF1010F3CD133E0C268089BB1
:104D700042F04002C2600022019200BF019A01325B
:104D80000192019A8A4219D80269B2F1FF3FF5DC1B
:104D900000220192026942F001020261019A01328D
:104DA0000192019A8A4209D80269D207F6D10021FC
:104DB00005E00321BCF1010F14D10BE00321826B4C
:104DC000002B14BF22F4803242F480328263BCF1A3
:104DD000010F07D1826842F006028260826842F0C9
:104DE00020028260084602B07047000080B54A7811
:104DF0000978012A4FEA41122AD10244D2F8003937
:104E000047F6000CCEF6334C02F51062B3F1FF3FCB
:104E10004FF0010E07DC136843F000631360136862
:104E200043F08043136001F00F01D0F83C380EFAD4
:104E300001F18B43C0F83C38D0F81C3823EA01015B
:104E4000C0F81C18106800EA0C010020116080BD39
:104E5000831803F53062D3F800EB47F60003CEF673
:104E6000334303F1707CBEF1FF3F4FF4803EDADC48
:104E7000D1E700000146D0F8000E20F00300C1F891
:104E8000000ED1F8040820F002020020C1F8042826
:104E9000704700000146D0F8000E20F00300C1F872
:104EA000000ED1F8040840F002020020C1F80428E6
:104EB000704700002DE9F04F82B0DDF84880DDE951
:104EC0000D4CDDF82CE000F580720F25002600BFA8
:104ED000013D42F8046FFBD1B8F1000F07D0826B9F
:104EE00022F400128263826B42F4002210E0D0F8B8
:104EF000042842F00202C0F80428826B42F4001237
:104F00008263826B22F400228263826B22F480220D
:104F100082630022C0F8002ED0F80028012CC0F8CF
:104F2000002806D1D0F80028002B18BF42F001025B
:104F300003E0D0F8002842F0030240F64055C0F2EA
:104F40000305C0F800280022009200BF009A013239
:104F50000092009AAA4216D80269B2F1FF3FF5DC2E
:104F6000002200924FF48462026100BF009A002385
:104F700001320092009AAA4288BF012304D8026934
:104F80009206F3D400E0012300220192019A01323B
:104F90000192019AAA4214D80269B2F1FF3FF5DCEE
:104FA0000022019210220261019A00240132019232
:104FB000019AAA4288BF012404D80269D206F3D418
:104FC00000E001244FF00009C0F81098C0F81498D0
:104FD000C0F81C9889B300F510664FF67F3A00229E
:104FE00035684FF09047002A08BF4FF0006707EA86
:104FF000E57501323560C6F81090C6F808A09142F8
:1050000006F12006ECD100F530664FF0000A4FF6AD
:105010007F3B002537684FF09042002D08BF4FF0CE
:10502000006202EAE77201353260C6F810A0C6F8E5
:1050300008B0A94206F12006ECD1D0F81018BEF154
:10504000000F21F48071C0F810186FF08041C0F893
:105050001890416103D1816941F01001816181693A
:1050600043F60002C8F23C021143BCF1000F81611B
:1050700003D0816941F008018161B8F1010F05D1C8
:10508000816941F0804141F00401816143EA0400FB
:1050900002B0BDE8F08F00000146806820F00102F8
:1050A00000208A6070470000F0B54B7891F800C08E
:1050B000012B23D18E6900EB4C1E00254FF6FF74A7
:1050C000DEF81079CFF6F875CEF20704002E0EF553
:1050D00010633FD03D401D611D6925401D61CD68B5
:1050E00004F10054AE4288BF8D611D6945F400256E
:1050F0001D618D691E692C40344333E000EB4C1375
:10510000D3F8100B6FF31200C3F8100BD3F8100B89
:105110006FF3DC40C3F8100B8F6903F53063002F89
:105120001CBFCF688F61CF684FF6FF70CF611E69DB
:10513000CEF2070046F400261E6100F100501E6901
:1051400038403043012A186114D10869002818BF7B
:1051500058610FE03C401C611C6944F400241C6150
:105160001C692C40012A1C610BD14869002818BF1A
:10517000CEF814094FF00441186808431860002065
:10518000F0BDDEF8002942F00442CEF8002989691A
:105190000029F4D00CF00F01012202FA01F100F60F
:1051A0003403E9E7D0F840C043F20B03C4F654736C
:1051B0009C4503D3D0F8003B002B1ED40023C0F83D
:1051C000103BD0F8103B012943F40023C0F8103BFA
:1051D000D0F8103B43F01803C0F8103BD0F8103B58
:1051E00043F0C043C0F8103B07D1C0F8142BD0F8EF
:1051F000001B41F08021C0F8001B00207047000018
:105200004A780B78012A4FEA431210440DD1D0F8A6
:10521000002922F40012C0F80029097901F0FE01EA
:10522000022913D100F510600CE0D0F8002B22F415
:105230000012C0F8002B097901F0FE01022905D106
:1052400000F53060016841F0805101600020704736
:105250000A784B785101012B084406D1D0F8001987
:10526000002900F5106106D50AE0D0F8001B0029DE
:1052700000F5306104D41AB1086820F0804008605D
:10528000086840F4001200200A607047F0B54B78BF
:1052900091F800C0012B30D1D1F818E000EB4C148C
:1052A000D4F81059BEF1000F04F510634BD06FF322
:1052B00012051D611D696FF3DC451D61CD681F6915
:1052C0000EEB0506013EB6FBF5F50026C1F6F876B5
:1052D00006EAC5453D431D6175461E696FF3DF450E
:1052E00035431D610D79012D38D11D6925F0C0456B
:1052F0001D611D6945F000552FE000EB4C13D3F8FC
:10530000107B6FF31207C3F8107BD3F8107B6FF399
:10531000DC47C3F8107B8D69CC68002D03F5306342
:1053200063D02F19013FB7FBF4F7BEB27443CC61D1
:105330000026C1F6F8761D6906EAC7472F436FF3CA
:10534000DF441F6158E06FF3DC451D611D6945F4C2
:1053500000251D611D696FF312051D61012A15D11C
:105360004A69002A18BFC4F81429097901295BD1B8
:10537000D0F80808D4F80019C0054FF0805058BF85
:105380004FF000500843C4F800094DE000F51063E9
:105390004FEA4C141D5945F004451D510D79012D5E
:1053A00049D1D0F80858E658ED054FF0805558BF60
:1053B0004FF000553543E550AAB91FFA8EF292B16D
:1053C0000B69032111FA8EF7BE0800F580504FEAF1
:1053D0000C310122043B012E88BFBA0853F8047F28
:1053E000013A0F50FAD10020F0BD1F696FF3DF447E
:1053F00027431F614FF400241F69012A47EA04076D
:105400001F6103D10A69002A18BF5A61097901296D
:105410000AD1D0F808081968C0054FF0805058BF6D
:105420004FF00050084318604FF0044118680843DB
:1054300018600020F0BDBEF1000FD4D00CF00F01B9
:10544000012202FA01F100F63403EFE781B00022F5
:1054500000924A780978012A4FEA41111BD100F5E0
:1054600010604258B2F1FF3F2FDC0A5842F0006250
:105470000A500A5842F080420A5042F2107200BFAD
:10548000009B01330093009B934221D84358B3F112
:10549000FF3FF5DD19E000F530604258B2F1FF3F03
:1054A00013DC0A5842F000620A500A5842F0804267
:1054B0000A5042F2107200BF009B01330093009B20
:1054C000934205D84358002BF6D4002001B0704712
:1054D000012001B0704700000146806840F00102E1
:1054E00000208A607047000081B040F64052C0F250
:1054F00003020023009300BF009B01330093009B35
:10550000934215D80369B3F1FF3FF5DC890100230D
:1055100020310093016100BF009901310091009991
:10552000914205D801698906F6D4002001B0704780
:10553000032001B070470000D0F8080800F0060111
:1055400080074FF0020058BF0F20002908BF08460F
:1055500070470000406900F001007047D0F818184B
:10556000D0F81C08084080B270470000D0F8181826
:10557000D0F81C080840000C70470000D0F810C894
:10558000D0F8343801F00F0223FA02F2D20100EB16
:105590004110D2B2D0F8080942EA0C010840704725
:1055A00000EB4111D1F8081BD0F8140808407047EF
:1055B000416980690840704780B5930802F0030292
:1055C0000DD004394FF4805C012B98BF012300BF3C
:1055D00050F80CE0013B41F804EFF9D1043172B10D
:1055E0004FF4805350F803C0002300BF2CFA03F09F
:1055F000013A01F8010B100403F10803F6D1084643
:1056000080BD0000B0B50446C06820F0C040E06036
:1056100091B1012926D1E068002540F00050E060FA
:105620000120FBF7D9FB6069C00705F1010014D127
:10563000312D0546F4D310E0E068002540F08040AD
:10564000E06000BF0120FBF7C7FB6069C00705F100
:10565000010002D0312D0546F4D33238B0FA80F083
:105660004009B0BD0120B0BD0246D0F8000801F0ED
:105670007F0120F4FE60C2F80008D2F8000840EA7A
:1056800001110020C2F8001870470000022A0246EB
:105690005CD145F24030CFF6277043F20053084406
:1056A000C0F20C03984202D24FF4705050E041F621
:1056B0004060CFF61B7044F240230844C0F20F0351
:1056C000984202D24FF4605042E0A1F5740044F6D3
:1056D0008073A0F51050C0F21203984202D24FF42A
:1056E000505035E0A1F183704DF22063A0F5E74002
:1056F000C0F21303984202D24FF4405028E04BF21C
:105700006060CFF6E5604EF260330844C0F21603E5
:10571000984202D24FF430501AE04DF20030CFF6EA
:10572000CE6047F240730844C0F21B03984202D295
:105730004FF420500CE045F6C030CFF6B36049F28C
:10574000C0130844C0F2210398420AD24FF410500B
:10575000D16821F47051D160D16801430020D1603B
:105760007047A1F1B77047F22053A0F55850C0F22E
:105770003803984202D24FF40050E9E745F2E04086
:10578000CFF6596049F6E0430144C0F241034FF4BB
:10579000C050994238BF4FF4E050D9E710B5DDF85A
:1057A00008C0BCF1000F14D19BB103F1030C4FEA08
:1057B0009C0E00F58054120301230439BEF1010F41
:1057C00088BF4FEA9C0300BF51F8040F013B105102
:1057D000FAD1002010BD0000FEE7000010B541F630
:1057E000F474C2F20004207858B1FBF7DBFB616867
:1057F000401A332838BF10BD02A0FDF78BFC0020F3
:10580000207010BD504F532074696D65206F757402
:1058100020210A0041F6D401C2F200010A8842F2B6
:105820001003C2F2000301321B886FF39F229A42D9
:1058300008BF7047B1F800C042F21503C2F200037E
:1058400003F80C000A80704788B00024C4F20204F8
:10585000FBF7BCFBFDF702FF002643F63000059680
:10586000CDE90366CDE901660696C4F2020001683F
:10587000002241F01001016001684FF00B0801F0B7
:105880001001069106990696016841F00401016035
:10589000016801F00401069106990696016841F03D
:1058A00080010160016801F0800106910699069669
:1058B000016841F001010160016801F001010691F8
:1058C00006990696016841F002010160016801F045
:1058D0000201069106990696016841F008010160EF
:1058E00000680B2100F00800069006982046FBF7A0
:1058F00053FB04F50065284630210022FBF74CFBE2
:1059000004F58067384641F602010022FBF744FBAC
:1059100004F5805A50464BF280510022FBF73CFBC5
:1059200004F5406948464FF450610022FBF734FB10
:1059300044F67F200190032001AC0290504621469E
:105940004FF0030B0396FBF75BFA4EF2CF30CDE935
:10595000010B284621460396FBF752FA40F2000B52
:10596000C4F2020BCDF804804FF0010858462146DE
:10597000CDE902860496FBF743FA48F214700190D1
:105980000320CDE9020658462146FBF739FA3020BC
:10599000CDE9010828462146CDE90366FBF730FA38
:1059A0004EF23D70019003200290384621460325B7
:1059B0000396FBF725FA41F60200CDE901083846C7
:1059C0002146CDE90366FBF71BFA4BF28050CDE987
:1059D000010850462146CDE90366FBF711FA4FF462
:1059E0005060CDE9010848462146CDE90366FBF742
:1059F00007FA4FF2FC2001A961C148462146FBF796
:105A0000FFF9FDF7AFFB41F6DC60ABF57041C2F288
:105A100000000C234FF4E13280E84600C0E9036641
:105A2000C0E90536C661FDF7CFF910B172B600BF07
:105A3000FEE741F69460C2F200004FF080414FF063
:105A4000FF33CDE90366CDE90166CDE90666542250
:105A500080E84600C0E903368661FCF7FDFD10B121
:105A600072B600BFFEE74FF48050019041F694609B
:105A7000C2F2000001A9FCF793FE10B172B600BF9C
:105A8000FEE741F694600024C2F2000006A9CDE9C9
:105A90000644FCF783FD10B172B600BFFEE741F685
:105AA000AC00ABF5CE31C2F20000102280E8160047
:105AB000C0E90344C0E905448483FBF789F810B1C9
:105AC00072B600BFFEE741F6E450ABF55041C2F2BA
:105AD00000004FF4827600244FF400780A25C0E9D4
