:020000040800F2
:10000000C0070020010100088526000839240008E7
:1000100021260008F5060008712E000800000000E7
:100020000000000000000000000000009127000810
:100030005907000800000000F5260008E92700081D
:100040001B0100081B0100081B0100081B01000820
:100050001B0100081B0100081B0100081B01000810
:100060001B0100081B0100081B0100081B01000800
:100070001B0100081B010008F90600081B0100080D
:100080001B0100081B0100081B0100081B010008E0
:100090001B0100081B0100081B0100085D07000888
:1000A0001B0100081B0100081B0100081B010008C0
:1000B0001B0100081B0100081B0100081B010008B0
:1000C0001B0100081B0100081B0100081B010008A0
:1000D0001B010008612E00081B0100081B0100081D
:1000E0001B0100081B0100081B010008DFF80CD0F1
:1000F00000F05AFA004800474D2F0008C0070020C2
:100100000648804706480047FEE7FEE7FEE7FEE7B1
:10011000FEE7FEE7FEE7FEE7FEE7FEE759280008F8
:10012000ED0000082DE9F0410024061B254671F181
:10013000000605DA01240027D0EB070067EB010178
:10014000161E73F1000605DA0027D2EB070201251F
:1001500067EB030300F03FF886460E4617469C46C1
:10016000AC4204D00025D0EB050E65EB010624B1AE
:100170000020D2EB000760EB030C704631463A4694
:100180006346BDE8F081D2B201E000F8012B491EC0
:10019000FBD270470022F6E710B513460A46044624
:1001A0001946FFF7F0FF204610BD30B50B4601465B
:1001B00000202022012409E021FA02F59D4205D306
:1001C00003FA02F5491B04FA02F52844151EA2F1B0
:1001D0000102F1DC30BD2DE9F05F054600209246BA
:1001E0009B4688460646814640241BE028464146F9
:1001F0004746224600F0FFF953465A46C01A91413D
:1002000010D311461846224600F0E6F92D1A67EB86
:1002100001084F4622460120002100F0DDF917EBCE
:1002200000094E41201EA4F10104DFDC484631469E
:100230002A464346BDE8F09F2DE9FE4F804681EAFD
:100240000300C00F0C46009021F0004123F0004550
:10025000B8EB0200A94105D24046214690461C4613
:100260000B46024623F00040104347D0270DC7F34A
:100270000A00C3F30A510290401A019040286BDA39
:10028000C3F3130040F4801B0098924620B1002372
:10029000D2EB030A63EB0B0B01985946C0F1400205
:1002A000504600F099F906460D4650465946019AC7
:1002B00000F0B1F910EB08006141002487EA115207
:1002C00084EAE7731A4340D0009A62B3019A012A84
:1002D0004FEA075215DC001B61EB02014FF00042B0
:1002E00002EA0752CDE90042001C41F58011324676
:1002F0002B4600F0B1F903B0BDE8F08F404621462F
:10030000F9E7001B61EB0201001C41F580130018A6
:100310005B412018A2F5001747EB030140EAD570B6
:10032000B6196D4111E06D084FEA360645EAC07511
:100330004FEA0752001B61EB0201001C41F58011DE
:1003400049084FEA30000019514132462B4603B0AC
:10035000BDE8F04F00F071B9009801224000002381
:10036000D0EB020263EBE073009821464FEAE074A1
:10037000B8EB000061EB0401E9E783F000435BE7C1
:1003800081F0004158E72DE9FE4F81EA030404F0B3
:10039000004421F0004100944FF0000B23F0004393
:1003A00050EA01045ED052EA03045BD0C3F30A545E
:1003B000C1F30A552C44A4F2F3340194A0FB025477
:1003C000C1F3130141F48011C3F3130343F4801309
:1003D00001FB024400FB034E840A970A44EA81545D
:1003E00047EA8357A4FB076802958D0A05FB07853A
:1003F0004FEA932C04FB0C542705029D4FEA065844
:1004000047EA1637B5EB08056EEB070C870E920E20
:1004100047EA811742EA8312A7FB0201B6EB0B0100
:1004200064EB00042B0D43EA0C335E1844EB1C50C4
:10043000DA465146E7FB0201C5F313044FEA0B33DA
:1004400043EA14534FEA0432019C43EA0603A4F141
:100450000C040294009CCDE900B400F0FDF803B058
:10046000BDE8F08F00200146F9E72DE9F04D81EA63
:10047000030404F0004B21F0004514464FF0000A3D
:1004800023F0004150EA050220D054EA01021DD0B9
:10049000C5F30A570246C5F31303C1F31300C1F3B2
:1004A0000A5640F4801543F48013A7EB0608101B8E
:1004B000D64608F2FD3873EB050002D308F10108B7
:1004C00001E092185B41B8F1000F03DA0020014609
:1004D000BDE8F08D00204FF48011064684460EE002
:1004E000171B73EB050705D3121B63EB05030643CC
:1004F0004CEA010C49084FEA300092185B4150EA7F
:100500000107EDD152EA030012D082EA040083EA27
:100510000501084305D0101BAB4106D20122002380
:1005200006E000224FF0004302E06FF0010253109A
:100530001AEB06004CEB085110EB0A0041EB0B01E3
:10054000BDE8F04D00F079B8C1F30A52C1F31301D0
:1005500040F2FF3341F480119A4202DA0020014652
:10056000704740F233439A42A2F2334202DC5242D5
:1005700000F041B800F030B830B5041E71F100044D
:1005800004DB4FF00044404264EB0101141E73F1A0
:10059000000405DB1C464FF00043524263EB0403AA
:1005A000994208BF904230BD1CB5094800900948E7
:1005B00001900546009C06E0E06840F0010394E8E5
:1005C000070098471034AC42F6D3FFF793FD0000C4
:1005D000E438000804390008202A04DB203A00FA35
:1005E00002F1002070479140C2F1200320FA03F38A
:1005F000194390407047202A04DB203A21FA02F088
:100600000021704721FA02F3D040C2F1200291404C
:10061000084319467047202A06DBCB17203A41FAD7
:1006200002F043EAE07306E041FA02F3D040C2F17F
:100630002002914008431946704710B5141E73F10B
:10064000000408DA401C41F1000192185B411A4392
:1006500001D120F0010010BD2DE9F04D92469B46DE
:1006600011B1B1FA81F202E0B0FA80F22032904684
:10067000FFF7B2FF04460F4640EA0A0041EA0B01C9
:1006800053465A46084313D0114653EA010019D085
:10069000C8F140025046FFF7AEFF05460E465046F1
:1006A00059464246FFF798FF084305D0012004E071
:1006B00020463946BDE8F08D0020054346EAE07645
:1006C0002C4337430A986305E40AA0EB0800002294
:1006D000FD0A44EA47540A3002D500200146E9E702
:1006E000010510196941DDE9084500196941BDE8B6
:1006F000F04DA2E7FFE7FEE780B540F21010C2F22E
:10070000000000F091F980BD84B003900291019245
:1007100000930398C16B026C0120904048600098E0
:1007200003990968486003984068102809D1FFE7D9
:100730000198039909688860029803990968C8605C
:1007400008E002980399096888600198039909688C
:10075000C860FFE704B070477047000080B54020D4
:1007600000F088FB80BD000082B0EFF3108072B60D
:10077000019040F2B010C2F200000068009062B632
:10078000009802B07047000040F2AC10C2F20000C6
:100790000068704740F2B410C2F200000068704771
:1007A00080B540F2B011C2F200010020086040F2B2
:1007B000A411C2F20001086040F2B411C2F20001BB
:1007C000086040F2AC11C2F20001086000F0FEFCCB
:1007D00040F2A811C2F20001086080BD80B586B069
:1007E00000F0F4FC0490049840F2A811C2F2000159
:1007F0000968401A0390039864283FD3FFE7EFF39A
:10080000108072B6059040F2B010C2F2000000688D
:10081000029062B6029840F2A411C2F20001009167
:100820000968401A019001984FF47A7180FB010128
:10083000039A0023FFF776FC0099024640F2B410B9
:10084000C2F2000002600068C0EB0010800048F2B5
:100850001F52C5F2EB1280FB0202901100EBD27026
:1008600040F2AC12C2F200021060029808600498D4
:1008700040F2A811C2F200010860FFE706B080BD97
:1008800081B0EFF3108072B60090FFE7FEE7000042
:1008900083B0019000208DF80300019890F82100AA
:1008A00002280DD0FFE7019904208863FFE7019932
:1008B000002081F82000FFE701208DF80B0021E0E7
:1008C00001980168086820F00E000860019801682E
:1008D000086820F0010008600198C16B026C0120DB
:1008E00090404860FFE70199012081F82100FFE76F
:1008F0000199002081F82000FFE79DF803008DF8A2
:100900000B00FFE79DF80B0003B0704780B588B07F
:10091000079000208DF81B00079890F8210002280E
:1009200007D0FFE707990420886301208DF81B009A
:1009300076E007980168086820F00E0008600798C4
:100940000168086820F00100086007980068082125
:10095000C4F20201884203D1FFE70120059047E07D
:10096000079800681C21C4F20201884203D1FFE706
:100970001020049039E0079800683021C4F2020189
:10098000884204D1FFE74FF4807003902AE0079873
:1009900000684421C4F20201884204D1FFE74FF409
:1009A000805002901BE0079800685821C4F20201B1
:1009B000884204D1FFE74FF4803001900CE00798A3
:1009C00001686C22C4F202024FF08070914208BFAD
:1009D0004FF480100190FFE701980290FFE7029822
:1009E0000390FFE703980490FFE704980590FFE762
:1009F00005980421C4F2020108600799012081F8DA
:100A00002100FFE70799002081F82000FFE7079801
:100A1000406B20B1FFE70798416B8847FFE7FFE78E
:100A20009DF81B0008B080BD80B58EB00D900D986C
:100A3000C06B00680C900D98006800680B900C98D3
:100A40000D99096CC8404007002875D5FFE79DF84F
:100A50002C00400700286FD5FFE70D98006800685C
:100A60008006002807D4FFE70D980168086820F089
:100A700004000860FFE70D9800680821C4F2020135
:100A8000884203D1FFE704200A9047E00D980068F0
:100A90001C21C4F20201884203D1FFE740200990E3
:100AA00039E00D9800683021C4F20201884204D177
:100AB000FFE74FF4806008902AE00D980068442119
:100AC000C4F20201884204D1FFE74FF4804007904E
:100AD0001BE00D9800685821C4F20201884204D13D
:100AE000FFE74FF4802006900CE00D9801686C221F
:100AF000C4F202024FF08060914208BF4FF48000C0
:100B00000690FFE706980790FFE707980890FFE731
:100B100008980990FFE709980A90FFE70A980421CE
:100B2000C4F2020108600D98C06A20B1FFE70D9879
:100B3000C16A8847FFE7B8E00C980D99096CC84076
:100B40008007002840F18080FFE79DF82C00800797
:100B5000002879D5FFE70D98006800688006002816
:100B60000BD4FFE70D980168086820F00A000860C0
:100B70000D99012081F82100FFE70D9800680821F8
:100B8000C4F20201884203D1FFE70220059047E04A
:100B90000D9800681C21C4F20201884203D1FFE7CE
:100BA0002020049039E00D9800683021C4F2020141
:100BB000884204D1FFE74FF4007003902AE00D98BB
:100BC00000684421C4F20201884204D1FFE74FF4D7
:100BD000005002901BE00D9800685821C4F20201F9
:100BE000884204D1FFE74FF4003001900CE00D98EB
:100BF00001686C22C4F202024FF00070914208BFFB
:100C00004FF400100190FFE701980290FFE702986F
:100C10000390FFE703980490FFE704980590FFE72F
:100C200005980421C4F202010860FFE70D99002035
:100C300081F82000FFE70D98806A20B1FFE70D984A
:100C4000816A8847FFE72FE00C980D99096CC8402E
:100C50000007002827D5FFE79DF82C000007002893
:100C600021D5FFE70D980168086820F00E000860A4
:100C70000D98C26B016C012000FA01F151600D99D1
:100C800088630D9981F82100FFE70D99002081F814
:100C90002000FFE70D98006B20B1FFE70D98016B76
:100CA0008847FFE7FFE7FFE7FFE70EB080BD0000E2
:100CB00083B0019000200090019820B9FFE7012047
:100CC0008DF80B0047E0019908684FF6F872CBF6F3
:100CD000FD7210444CF6CD42CCF6CC42A0FB020291
:100CE0006FF0030000EA9200086401990020C4F24A
:100CF0000200C8630199022081F821000198006870
:100D000000680090009843F6F071884300900199C4
:100D10004868D1F808C0CB680A6940EA0C0018435B
:100D200010434A6910438A691043C9690143009816
:100D30000843009000980199096808600199002013
:100D40008863019A012182F82110019981F820001D
:100D50008DF80B00FFE79DF80B0003B07047000013
:100D600080B586B0049003910292019300208DF823
:100D70000300FFE7049890F82000012804D1FFE762
:100D800002208DF817004CE00499012081F8200022
:100D9000FFE7FFE7049890F82100012832D1FFE730
:100DA0000499022081F821000499002088630498A6
:100DB0000168086820F00100086004980399029A0D
:100DC000019BFFF7A1FC0498C06A38B1FFE70498C3
:100DD0000168086840F00E0008600CE004980168A3
:100DE000086820F00400086004980168086840F072
:100DF0000A000860FFE704980168086840F00100F5
:100E0000086009E0FFE70499002081F82000FFE76F
:100E100002208DF80300FFE79DF803008DF817000E
:100E2000FFE79DF8170006B080BD000081B0ADF867
:100E30000200BDF8020040281AD1FFE740F6080082
:100E4000C4F201000068C005002808D5FFE740F2A1
:100E5000B011C2F2000108680138086007E040F2F2
:100E6000B011C2F20001086801300860FFE7FFE737
:100E700001B0704780B582B0ADF8060040F2144072
:100E8000C4F201000068BDF8061008420CD0FFE76C
:100E9000BDF8060040F21441C4F201010860BDF83B
:100EA0000600FFF7C3FFFFE702B080BD90B00F90D0
:100EB0000E9100200D900990FFE70E9800680D99A3
:100EC000C840002800F07F81FFE70D99012088408D
:100ED0000C900E9800680C9908400B900B980C9998
:100EE000884240F06C81FFE70E984068059000282A
:100EF00051D0FFE7059801283AD0FFE7059802286E
:100F00003FD0FFE7059803285FD0FFE70598112839
:100F100032D0FFE70598122838D0FFE70598002166
:100F2000C1F21101884236D0FFE705980021C1F2D5
:100F3000120188422FD0FFE705980021C1F221015C
:100F4000884228D0FFE705980021C1F2220188429B
:100F500021D0FFE705980021C1F2310188421AD063
:100F6000FFE705980021C1F23201884213D02FE03B
:100F70000E98C06809902CE00E98C0680430099063
:100F800027E00E98C0680830099022E00E98C068EB
:100F90000C3009901DE00E98806818B9FFE7042016
:100FA000099011E00E988068012806D1FFE708201B
:100FB00009900C980F99086105E0082009900C9899
:100FC0000F994861FFE7FFE703E00020099000E088
:100FD000FFE70B98FF2803D8FFE70F98049003E082
:100FE0000F9804300490FFE7049808900B98FF28AE
:100FF00004D8FFE70D988000039006E00D996FF08C
:101000001F0000EB81000390FFE70398079008980A
:101010000068079A0F21914088430999914008433D
:10102000089908600E98C079C006002840F1C68073
:10103000FFE7FFE741F21800C4F20200016841F047
:1010400001010160006800F0010006900698FFE7CA
:101050000D9820F003000821C4F2010140580A90C5
:101060000D9800F0030081000F2000FA01F10A98AA
:1010700088430A900F9840F60001C4F201018842AB
:1010800003D1FFE70020029026E00F9840F60041D0
:10109000C4F20101884203D1FFE70120019018E06A
:1010A0000F9841F20001C4F20101884203D1FFE729
:1010B000022000900AE00F9941F20042C4F20102BE
:1010C0000420914208BF03200090FFE700980190A0
:1010D000FFE701980290FFE702980D9901F00301E4
:1010E000890000FA01F10A9808430A900A980D99BC
:1010F00021F003010822C4F2010288500E98807981
:10110000C006002809D5FFE70B9A40F20841C4F257
:10111000010108681043086008E00B9A40F208419A
:10112000C4F20101086890430860FFE70E988079D7
:101130008006002809D5FFE70B9A40F20C41C4F263
:10114000010108681043086008E00B9A40F20C4166
:10115000C4F20101086890430860FFE70E988079A7
:101160008007002809D5FFE70B9A40F20441C4F23A
:10117000010108681043086008E00B9A40F204413E
:10118000C4F20101086890430860FFE70E98807977
:10119000C00748B1FFE70B9A40F20041C4F20101D9
:1011A00008681043086008E00B9A40F20041C4F25E
:1011B0000101086890430860FFE7FFE7FFE70D982B
:1011C00001300D9079E610B07047000040F2BC305D
:1011D000C2F200000068704740F20800C2F200004E
:1011E000027840F2BC31C2F2000108681044086085
:1011F0007047000080B542F20001C4F202010868A5
:1012000040F010000860032000F096F80F2000F076
:1012100005F800F03BF8002080BD000080B582B0EA
:10122000009040F20400C2F20000006840F20801A1
:10123000C2F200010A784FF47A71B1FBF2F1B0FB0F
:10124000F1F000F073FD20B1FFE701208DF80700F9
:1012500018E000980F280DD8FFE700994FF0FF30F5
:10126000002200F04FF8009840F20C01C2F2000199
:10127000086003E001208DF8070003E000208DF8EE
:101280000700FFE79DF8070002B080BD83B0FFE7CD
:1012900041F21800C4F20200016841F0010101604E
:1012A000006800F0010002900298FFE7FFE741F2BA
:1012B0001C00C4F20200016841F080510160006826
:1012C00000F0805001900198FFE7FFE70421C4F28D
:1012D000010108680090009820F0E06000900098FC
:1012E00040F00070009000980860FFE703B070477E
:1012F00080B582B08DF807009DF9070001F0BAFDB6
:1013000002B080BD80B586B08DF8170004910392BD
:101310000020029001F0C6FD02909DF91700019097
:1013200002980499039A01F0AFF90146019801F07F
:10133000C1FD06B080BD000080B582B0019001986B
:1013400001F0DAFD02B080BD80B584B00290019159
:10135000029820B9FFE701208DF80F001BE10198EA
:1013600042F20001C4F20201096801F0070188425B
:1013700016D9FFE742F20000C4F20200016821F032
:101380000701019A11430160006800F0070001990C
:10139000884204D0FFE701208DF80F00FBE0FFE753
:1013A00002980078800700282AD5FFE70298007885
:1013B0004007002809D5FFE741F20401C4F2020109
:1013C000086840F4E0600860FFE7029800780007D2
:1013D000002809D5FFE741F20401C4F202010868C0
:1013E00040F460500860FFE741F20401C4F20201DA
:1013F000086820F0F000029A926810430860FFE746
:1014000002980078C007002860D0FFE70298406883
:1014100001280ED1FFE741F20000C4F2020000688B
:101420008003002804D4FFE701208DF80F00B2E00C
:1014300021E00298406802280ED1FFE741F2000047
:10144000C4F2020000688001002804D4FFE70120F4
:101450008DF80F009FE00DE041F20000C4F20200A1
:1014600000688007002804D4FFE701208DF80F00F2
:1014700091E0FFE7FFE741F20401C4F202010868CE
:1014800020F00300029A526810430860FFF79EFEA6
:101490000090FFE741F20400C4F20200006800F08F
:1014A0000C0002994968B0EB810F0ED0FFE7FFF7FF
:1014B0008DFE0099401A41F28931884204D3FFE73A
:1014C00003208DF80F0066E0E4E7FFE7019842F2A1
:1014D0000001C4F20201096801F00701884216D236
:1014E000FFE742F20000C4F20200016821F00701A8
:1014F000019A11430160006800F0070001998842D9
:1015000004D0FFE701208DF80F0044E0FFE70298C8
:101510000078400700280CD5FFE741F20401C4F22F
:101520000201086820F4E060029AD2681043086063
:10153000FFE702980078000700280DD5FFE741F289
:101540000401C4F20201086820F46050029A126992
:1015500040EAC2000860FFE700F04CF841F20401E5
:10156000C4F202010968C9B20A0943F67E01C0F655
:101570000001895CC84040F20401C2F20001086029
:1015800040F20C00C2F200000068FFF747FE0020A6
:101590008DF80F00FFE79DF80F0004B080BD00003C
:1015A00040F20400C2F200000068704780B5FFF707
:1015B000F7FF41F20401C4F202010968C1F30222FB
:1015C00043F68E01C0F60001895CC84080BD000072
:1015D00080B5FFF7E5FF41F20401C4F2020109689A
:1015E000C1F3C22243F68E01C0F60001895CC840F7
:1015F00080BD000086B0002005900490039002900A
:10160000019041F20400C4F20200006805900598C0
:1016100000F00C000146009100283FD0FFE7009841
:10162000042804D0FFE70098082806D037E041F2EC
:101630000020C0F27A00019037E00598C0F38341A2
:1016400043F69600C0F60000405C02909DF816003C
:10165000C007C0B1FFE741F20400C4F20200006815
:10166000C0F3404143F6A600C0F60000405C049081
:10167000029841F20021C0F27A0148430499B0FB7C
:10168000F1F0039007E0029840F60011C0F23D012E
:1016900048430390FFE70398019006E0FFE741F21B
:1016A0000020C0F27A000190FFE7019806B0704771
:1016B00080B586B00490049820B9FFE701208DF82A
:1016C00017002EE304980078C007002800F0AE80D1
:1016D000FFE741F20400C4F20200006800F00C00D1
:1016E000042813D0FFE741F20400C4F202000068AE
:1016F00000F00C0008281BD1FFE741F20400C4F2FF
:1017000002000068C003002812D5FFE741F2000084
:10171000C4F2020000688003002808D5FFE704989F
:10172000406820B9FFE701208DF81700F9E27CE05E
:10173000FFE704984068B0F5803F09D1FFE741F228
:101740000001C4F20201086840F48030086032E011
:101750000498406868B9FFE741F20001C4F2020151
:10176000086820F480300860086820F48020086051
:1017700020E004984068B0F5A02F0DD1FFE741F2BA
:101780000001C4F20201086840F480200860086883
:1017900040F4803008600CE041F20001C4F2020124
:1017A000086820F480300860086820F48020086011
:1017B000FFE7FFE7FFE7FFE704984068D0B1FFE7E6
:1017C000FFF704FD0390FFE741F20000C4F20200BE
:1017D0000068800300280CD4FFE7FFF7F7FC0399AB
:1017E000401A652804D3FFE703208DF8170098E21C
:1017F000EAE719E0FFF7EAFC0390FFE741F2000097
:10180000C4F202000068800300280CD5FFE7FFF750
:10181000DDFC0399401A652804D3FFE703208DF807
:1018200017007EE2EAE7FFE7FFE7FFE704980078AA
:101830008007002840F18D80FFE741F20400C4F2E8
:101840000200006810F00C0F13D0FFE741F2040013
:10185000C4F20200006800F00C00082829D1FFE75C
:1018600041F20400C4F202000068C003002820D442
:10187000FFE741F20000C4F2020000688007002880
:1018800009D5FFE704980069012804D0FFE701208B
:101890008DF8170045E241F20001C4F20201086828
:1018A00020F0F800049A526940EAC2000860FFE79D
:1018B0004EE00498006958B3FFE70021C4F24221CA
:1018C00001200860FFF782FC0390FFE741F200006F
:1018D000C4F202000068800700280CD4FFE7FFF77D
:1018E00075FC0399401A032804D3FFE703208DF801
:1018F000170016E2EAE741F20001C4F202010868AB
:1019000020F0F800049A526940EAC20008601EE024
:101910000021C4F2422100200860FFF757FC039029
:10192000FFE741F20000C4F20200006880070028CF
:101930000CD5FFE7FFF74AFC0399401A032804D3AC
:10194000FFE703208DF81700EBE1EAE7FFE7FFE789
:10195000FFE7049800780007002848D5FFE70498BF
:10196000806918B3FFE740F28041C4F242210120B0
:101970000860FFF72BFC0390FFE741F22400C4F25C
:1019800002000068800700280CD4FFE7FFF71EFC68
:101990000399401A032804D3FFE703208DF81700AA
:1019A000BFE1EAE7012000F0A7FE1FE040F280411E
:1019B000C4F2422100200860FFF708FC0390FFE713
:1019C00041F22400C4F202000068800700280CD510
:1019D000FFE7FFF7FBFB0399401A032804D3FFE757
:1019E00003208DF817009CE1EAE7FFE7FFE7049882
:1019F00000784007002840F1D880FFE700208DF8EC
:101A0000070041F21C00C4F202000068C000002878
:101A100013D4FFE7FFE741F21C00C4F202000168A3
:101A200041F080510160006800F080500090009803
:101A3000FFE701208DF80700FFE747F20000C4F23E
:101A400000000068C005002822D4FFE747F200012B
:101A5000C4F20001086840F480700860FFF7B6FB2C
:101A60000390FFE747F20000C4F200000068C005E1
:101A700000280CD4FFE7FFF7A9FB0399401A65285B
:101A800004D3FFE703208DF817004AE1EAE7FFE7F8
:101A9000FFE70498C068012809D1FFE741F220015F
:101AA000C4F20201086840F00100086031E00498C7
:101AB000C06868B9FFE741F22001C4F2020108687A
:101AC00020F001000860086820F0040008601FE0B2
:101AD0000498C06805280DD1FFE741F22001C4F247
:101AE0000201086840F004000860086840F0010046
:101AF00008600CE041F22001C4F20201086820F005
:101B000001000860086820F004000860FFE7FFE7B4
:101B1000FFE7FFE70498C068E0B1FFE7FFF756FB77
:101B20000390FFE741F22000C4F202000068800742
:101B300000280ED4FFE7FFF749FB0399401A41F252
:101B40008931884204D3FFE703208DF81700E8E0CD
:101B5000E8E71BE0FFF73AFB0390FFE741F22000C4
:101B6000C4F202000068800700280ED5FFE7FFF7E7
:101B70002DFB0399401A41F28931884204D3FFE7D3
:101B800003208DF81700CCE0E8E7FFE79DF8070099
:101B9000012809D1FFE741F21C01C4F202010868E3
:101BA00020F080500860FFE7FFE70498C069002834
:101BB00000F0B380FFE741F20400C4F202000068C5
:101BC00000F00C00082800F08280FFE70498C0694C
:101BD00002285CD1FFE76021C4F2422100200860A6
:101BE000FFF7F4FA0390FFE741F20000C4F20200AD
:101BF0000068800100280CD5FFE7FFF7E7FA03999A
:101C0000401A032804D3FFE703208DF8170088E06B
:101C1000EAE70498006AB0F5803F0CD1FFE741F293
:101C20000401C4F20201086820F40030049A9268AA
:101C300010430860FFE741F20401C4F202010868A2
:101C400020F47410049B1A6A5B6A1A4310430860FC
:101C50006021C4F2422101200860FFF7B7FA039027
:101C6000FFE741F20000C4F2020000688001002892
:101C70000CD4FFE7FFF7AAFA0399401A032804D30C
:101C8000FFE703208DF817004BE0EAE71EE0602134
:101C9000C4F2422100200860FFF798FA0390FFE7A2
:101CA00041F20000C4F202000068800100280CD557
:101CB000FFE7FFF78BFA0399401A032804D3FFE7E5
:101CC00003208DF817002CE0EAE7FFE724E00498F2
:101CD000C069012804D1FFE701208DF8170020E03A
:101CE00041F20400C4F2020000680290029800F47D
:101CF00080300499096A884208D1FFE7029800F40D
:101D000070100499496A884204D0FFE701208DF8D9
:101D1000170006E0FFE7FFE7FFE700208DF8170058
:101D2000FFE79DF8170006B080BD000080B582B0C7
:101D30000190019800F02EFD02B080BD82B00190AC
:101D4000ADF8021002B0704781B0009001B070474A
:101D500080B592B0119011980068006810901198A9
:101D60000068C0680F901198006840690E900020CC
:101D70000D900C90109800F00F000D900D9888B900
:101D8000FFE79DF84000800600280AD5FFE79DF890
:101D90003C008006002804D5FFE7119800F070FE93
:101DA000E9E1FFE70D98002800F0C280FFE79DF809
:101DB0003800C00738B9FFE7BDF83C0010F4907F49
:101DC00000F0B680FFE79DF84000C00758B1FFE77C
:101DD0009DF83D00C00730B1FFE71199486C40F015
:101DE00001004864FFE79DF84000400700280BD53C
:101DF000FFE79DF83800C00730B1FFE71199486C44
:101E000040F002004864FFE79DF84000800700288A
:101E10000BD5FFE79DF83800C00730B1FFE71199F7
:101E2000486C40F004004864FFE79DF8400000075C
:101E3000002811D5FFE79DF83C008006002805D456
:101E4000FFE79DF83800C00730B1FFE71199486CF3
:101E500040F008004864FFE71198406C002866D005
:101E6000FFE79DF84000800600280AD5FFE79DF8AF
:101E70003C008006002804D5FFE7119800F000FE22
:101E8000FFE7119800684069C0F380100C9011982A
:101E9000406C0007002804D4FFE70C9800283ED0CF
:101EA000FFE7119800F072FD119800684069400644
:101EB00000282FD5FFE7FFE7FFE71198006850E8FB
:101EC000050F20F040000B90FFE70B991198026876
:101ED00042E805100028F0D1FFE7FFE71198C06B3A
:101EE00098B1FFE71198C16B42F65D00C0F60000A3
:101EF00048631198C06BFEF709FD28B1FFE7119800
:101F0000C06B416B8847FFE703E01198FFF71CFFA8
:101F1000FFE703E01198FFF717FFFFE706E01198CE
:101F2000FFF712FF119900204864FFE7FFE722E165
:101F30001198006B012840F0FE80FFE79DF84000FB
:101F4000C006002840F1F780FFE79DF83C00C0067E
:101F5000002840F1F080FFE7FFE700200A90119889
:101F6000006800680A901198006840680A900A9812
:101F7000FFE71198006840694006002840F1818021
:101F8000FFE71198C06B00684068ADF82600BDF807
:101F90002600002874D0FFE7BDF826001199898D2E
:101FA00088426DDAFFE7BDF826001199C8851198BF
:101FB000C06B8069202858D0FFE7FFE7FFE7119842
:101FC000006850E8030F20F480700890FFE708993C
:101FD0001198026842E803100028F0D1FFE7FFE7FC
:101FE000FFE7FFE71198006850E8050F20F00100B7
:101FF0000790FFE707991198026842E8051000284A
:10200000F0D1FFE7FFE7FFE7FFE71198006850E82E
:10201000050F20F040000690FFE70699119802682E
:1020200042E805100028F0D1FFE7FFE711992020D2
:1020300081F84200119900200863FFE7FFE711983B
:10204000006850E8030F20F010000590FFE70599A5
:102050001198026842E803100028F0D1FFE7FFE77B
:102060001198C06BFEF714FCFFE71199022048633A
:102070001198818DC28D891A89B2FFF75FFEFFE743
:1020800079E01199888DC98D401AADF81200119828
:10209000C08D00284ED0FFE7BDF81200002849D0BF
:1020A000FFE7FFE7FFE71198006850E8030F20F40F
:1020B00090700390FFE703991198026842E80310BB
:1020C0000028F0D1FFE7FFE7FFE7FFE7119800687E
:1020D00050E8050F20F001000290FFE702991198E7
:1020E000026842E805100028F0D1FFE7FFE71199E8
:1020F000202081F84200119900200863FFE7FFE7E4
:102100001198006850E8030F20F010000190FFE7DD
:1021100001991198026842E803100028F0D1FFE706
:10212000FFE71199022048631198BDF81210FFF7DC
:1021300005FEFFE71FE09DF84000000600280AD5D5
:10214000FFE79DF83C000006002804D5FFE7119842
:1021500000F03CFE0FE09DF84000400600280AD544
:10216000FFE79DF83C004006002804D5FFE71198E2
:1021700000F056FCFFE712B080BD000080B582B0D1
:102180000090009820B9FFE701208DF8070040E09B
:102190000098806908B1FFE700E0FFE7009890F839
:1021A000410040B9FFE70099002081F84000009805
:1021B00000F034F8FFE70099242081F841000098EE
:1021C0000168C86820F40050C860009800F00EFD57
:1021D00000980168086920F490400861009801683F
:1021E000486920F02A00486100980168C86840F4F6
:1021F0000050C860009900204864009A202182F8AD
:102200004110009A82F84210009948638DF8070047
:10221000FFE79DF8070002B080BD000080B58CB0DC
:102220000B9000200A900990089007900B98006886
:1022300043F60001C4F20101884269D1FFE7FFE7DC
:1022400041F21800C4F20200016841F480410160CB
:10225000006800F4804006900698FFE7FFE741F22F
:102260001800C4F20200016841F004010160006836
:1022700000F0040005900598FFE74FF40070079008
:102280000220089003200A9040F60000C4F20100EA
:10229000019007A90291FEF709FE019802994FF4F7
:1022A000806207920022039208920992FEF7FEFDD7
:1022B000039940F21010C2F2000004904422C4F2CC
:1022C000020202601022426081608022C2600161CD
:1022D000416181614FF40051C161FEF7E9FC18B121
:1022E000FFE7FEF7CDFAFFE7FFE70B9840F210118A
:1022F000C2F2000181630B984862FFE7252000903D
:1023000000221146FEF7FEFF0098FEF7F1FFFFE7FF
:102310000CB080BD81B0009001B0704780B586B030
:1023200004900391ADF80A20049890F84100202809
:102330005DD1FFE7039820B1FFE7BDF80A0020B99F
:10234000FFE701208DF8170055E003980499086213
:10235000BDF80A0004998884BDF80A000499C8846D
:10236000049900204864049A212182F841100499BC
:102370008A6B42F6F901C0F60001916204998A6BFA
:1023800042F67511C0F60001D16204998A6B42F6DB
:102390007D01C0F6000111630499896B486303A8AD
:1023A000019004980268806B019909680432BDF8B5
:1023B0000A30FEF7D5FC049801686FF04000086011
:1023C000FFE7FFE70498006850E8050F40F0800041
:1023D0000090FFE700990498026842E80510002881
:1023E000F0D1FFE7FFE700208DF8170003E002209F
:1023F0008DF81700FFE79DF8170006B080BD0000BC
:1024000080B582B001900198006843F60001C4F2E3
:102410000101884209D1FFE740F2BA11C2F200017E
:102420000020087000F040FCFFE702B080BD000013
:1024300081B0009001B07047FFE7FEE780B582B041
:10244000FFE741F21400C4F20200016841F001010B
:102450000160006800F0010001900198FFE70E2084
:10246000009000221146FEF74DFF0098FEF740FF56
:1024700002B080BD80B590B000200F900E900D90FE
:102480000C90FFE741F21800C4F20200016841F02D
:1024900010010160006800F010000B900B98FFE73E
:1024A000FFE741F21800C4F20200016841F0200188
:1024B0000160006800F020000A900A98FFE7FFE73B
:1024C00041F21800C4F20200016841F00401016009
:1024D000006800F0040009900998FFE7FFE741F267
:1024E0001800C4F20200016841F0080101600068B0
:1024F00000F0080008900898FFE74FF6BF700C90B6
:10250000032002900D9041F20000C4F201000390FC
:102510000CA90691FEF7CAFC0298069907220C92B4
:102520000D9041F20040C4F20100FEF7BFFC02989A
:10253000069949F6FF020C920D9040F60000C4F295
:1025400001000590FEF7B2FC029806994FF6FF7263
:102550000C920D9040F60040C4F20100FEF7A6FC7C
:102560000398069940220C920022C1F211020D92AA
:10257000002204920E92FEF799FC049A059806999F
:102580004FF480730C930D920E92FEF78FFCFFE7D1
:102590000421C4F2010108680790079840F0E06048
:1025A0000790079840F40040079007980860FFE7FD
:1025B0001720019000221146FEF7A4FE0198FEF7B5
:1025C00097FE10B080BD000080B582B040F2581078
:1025D000C2F20000019043F60001C4F20101016063
:1025E0004FF4E131416000218160C16001610C2242
:1025F00042618161C161FFF7C1FD18B1FFE7FEF7DC
:102600003FF9FFE7FFE740F25810C2F2000040F246
:102610001011C2F2000181634862FFE702B080BD81
:10262000FFE7FEE780B586B0FEF7D8F8FEF79CF826
:102630000590FEF7AFF80490FEF7A6F8039000F0BF
:10264000A1FC0290029840F2A011C2F200010968B8
:10265000401AC82814D3FFE7029940F2A010C2F232
:10266000000001600599049A039B0068EC46CCF8D1
:10267000000043F6B100C0F6000000F087FCFFE761
:1026800006B080BDFFE7FEE788B00790069105928F
:10269000079800F0070004900498C0F1070005288F
:1026A00003D3FFE70420019004E00498C0F1070081
:1026B0000190FFE70198039004980430062803D89E
:1026C000FFE70020009003E0049803380090FFE744
:1026D0000098029006980399012202FA01F101394B
:1026E0000840029B984005999A40013A11400843DE
:1026F00008B070477047000082B00190019840F226
:102700000401C2F200010968C90844F6D352C1F2BB
:102710006202A1FB0221890948430090FFE700BF44
:10272000FFE70098411E00910028F8D1FFE702B0B2
:102730007047000082B08DF80300EFF3108072B68E
:10274000019040F25410C2F20000008801306FF393
:102750005F20ADF80000BDF8000040F2B811C2F2F1
:1027600000010988884210D0FFE79DF8030040F27D
:102770005411C2F200010B8840F2BB12C2F20002F7
:10278000D054BDF800000880FFE762B602B0704781
:102790007047000080B582B0009000980138B0F119
:1027A000807F03D3FFE70120019019E000980138F2
:1027B0004EF21401CEF2000108604FF0FF300F21FD
:1027C00000F078FB4EF21801CEF200010020086004
:1027D0004EF21002CEF20002072111600190FFE7D5
:1027E000019802B080BD000080B5FEF7F5FC80BD09
:1027F00080B590B006A800902821FDF7CBFC00988A
:102800000021059104910391029101910222069207
:1028100001230A9310230B930D920E914FF4601134
:102820000F91FEF745FF18B1FFE7FEF729F8FFE724
:102830000F20019002210291002003904FF480624A
:102840000492059001A8FEF77FFD18B1FFE7FEF79F
:1028500017F8FFE710B080BD7047000080B582B068
:1028600001900198406A009000990020C885009965
:10287000C8840098FFF768FA02B080BD80B584B0C4
:102880000390002002900398406A0190019800682C
:102890004069C0B2C0090290019890F84100212817
:1028A0000AD1FFE7029838B1FFE701990020C884F8
:1028B000019800F0C9F8FFE7019800684069C0F38B
:1028C00080100290019890F8420022280AD1FFE778
:1028D000029838B1FFE701990020C885019800F0FF
:1028E00055F8FFE70199486C40F0100048640198E2
:1028F000FFF72AFA04B080BD80B584B00390039836
:10290000406A0290039800680068800600282AD474
:10291000FFE702990020C884FFE7FFE702980068FC
:1029200050E8050F20F080000190FFE70199029820
:10293000026842E805100028F0D1FFE7FFE7FFE753
:10294000FFE70298006850E8030F40F04000009055
:10295000FFE700990298026842E803100028F0D1CE
:10296000FFE7FFE703E00298FFF74AFDFFE704B047
:1029700080BD000080B582B001900198406A00904F
:102980000098FFF755FD02B080BD000084B00390B1
:10299000FFE7FFE70398006850E8030F20F490700A
:1029A0000290FFE702990398026842E803100028AA
:1029B000F0D1FFE7FFE7FFE7FFE70398006850E883
:1029C000050F20F001000190FFE7019903980268CC
:1029D00042E805100028F0D1FFE7FFE70398006BFD
:1029E000012814D1FFE7FFE7FFE70398006850E8EC
:1029F000030F20F010000090FFE700990398026891
:102A000042E803100028F0D1FFE7FFE7FFE7039952
:102A1000202081F8420003990020086304B0704729
:102A200080B582B0019001980168C86820F040002C
:102A3000C8600199202081F841000198FFF7E0FC6F
:102A4000002002B080BD000082B00190FFE7FFE7E8
:102A50000198006850E8030F20F0C0000090FFE7E5
:102A600000990198026842E803100028F0D1FFE7BE
:102A7000FFE70199202081F8410002B07047000073
:102A800080B586B00490049890F84200222840F067
:102A9000A480FFE704988068B0F5805F15D1FFE758
:102AA0000498006988B9FFE7002003900498806AC1
:102AB00002900498006840686FF35F2002990880D4
:102AC0000499886A0230886225E00498806A03903D
:102AD0000020029004988068B0F5805F08D0FFE77E
:102AE0000498806850B9FFE70498006930B9FFE79F
:102AF0000498006840680399087007E0049800682B
:102B0000406800F07F0003990870FFE70499886A25
:102B100001308862FFE70499C88D0138C885000438
:102B2000002856D1FFE704980168C86820F020000B
:102B3000C86004980168C86820F48070C860049870
:102B40000168486920F0010048610499202081F85B
:102B500042000499002048630498006B012830D19A
:102B6000FFE7049900200863FFE7FFE70498006887
:102B700050E8030F20F010000190FFE7019904983E
:102B8000026842E803100028F0D1FFE7FFE704984D
:102B900000680068C00600280ED5FFE7FFE70020A8
:102BA00000900498006800680090049800684068ED
:102BB00000900098FFE7FFE70498818DFFF7BEF8CB
:102BC00003E00498FFF7A6FBFFE700208DF817004D
:102BD00007E000208DF8170003E002208DF81700B1
:102BE000FFE79DF8170006B080BD000080B584B0F7
:102BF000039003980068006920F44050039A11681C
:102C0000D26810430861039988680A6949691043CA
:102C10000843029003980068C06841F20C61884341
:102C20000299084303990968C860039800684069DD
:102C300020F44070039A1168926910434861039828
:102C4000006843F60001C4F20101884204D1FFE7A5
:102C5000FEF7BEFC019003E0FEF7A8FC0190FFE741
:102C6000019819214843039A116852689200B0FBF9
:102C7000F2FC48F21F52C5F2EB12ACFB02304309E2
:102C8000642003FB10CC322000EB0C10A0FB0202EE
:102C9000F02000EA521000EB0310C2F3431210447C
:102CA000886004B080BD000080B586B0EFF310806E
:102CB00072B6059040F2BA10C2F20000007810B16E
:102CC000FFE762B680E040F25410C2F200000088D4
:102CD00040F2B811C2F200010988884202D1FFE730
:102CE00062B671E040F2BA11C2F200010120087030
:102CF00062B60020ADF80A00EFF3108072B60490BF
:102D000040F2B810C2F200000088ADF8080040F2AE
:102D10005410C2F200000088ADF8060062B6FFE76A
:102D2000BDF80A100020FF29009009D8FFE7BDF880
:102D30000800BDF80610401A18BF01200090FFE7F8
:102D40000098C007C8B1FFE7BDF8081040F2BB10FB
:102D5000C2F20000405CBDF80A20511CADF80A1018
:102D600040F21001C2F200018854BDF808000130A1
:102D70006FF35F20ADF80800D2E7BDF80A0008B98C
:102D8000FFE721E0BDF80A2040F25810C2F200002F
:102D900040F21001C2F20001FFF7C0FA68B9FFE784
:102DA000EFF3108072B60390BDF8080040F2B8113E
:102DB000C2F20001088062B606E040F2BA11C2F227
:102DC000000100200870FFE706B080BD83B00190CD
:102DD000019890F8410021283AD1FFE701988068D6
:102DE000B0F5805F13D1FFE70198006978B9FFE77C
:102DF0000198006A0090009800886FF35F200199A5
:102E0000096848600199086A0230086208E0019A7E
:102E1000106A411C11620078019909684860FFE757
:102E20000199C88C0138C884000468B9FFE701988B
:102E30000168C86820F08000C86001980168C8680F
:102E400040F04000C860FFE700208DF80B0003E071
:102E500002208DF80B00FFE79DF80B0003B07047D0
:102E600080B540F25810C2F20000FEF771FF80BD3D
:102E7000FFE7FEE781B08DF803009DF9030000280D
:102E80000ED4FFE79DF9031001F01F0201209040CE
:102E90004A094EF20011CEF2000141F82200FFE78C
:102EA00001B070474EF60C50CEF200000068C0F33F
:102EB0000220704782B08DF8070000919DF907004D
:102EC00000280AD4FFE7009800019DF907104EF290
:102ED0000042CEF2000288540BE0009800019DF8F9
:102EE000071001F00F014EF61452CEF20002885482
:102EF000FFE702B07047000083B00290029800F034
:102F0000070000904EF60C51CEF2000108680190C7
:102F100001984FF6FF02104001900198009A40EA94
:102F200002200022C0F2FA5210430190019808607A
:102F300003B0704780B582B0019000919DF8040005
:102F4000FFF7F8FB019802B080BD000080B582B0A9
:102F500000200190FEF74EF9FDF722FCFFF748FC38
:102F6000FFF788FAFFF76AFAFFF72EFB43F6A8008F
:102F7000C0F6000000F00AF8FFE7FFF795FEFFF744
:102F800051FBFAE780B5FEF721F980BD0FB4054B80
:102F900010B503A9044A029800F0DAF810BC5DF8F5
:102FA00014FB0000352F00080000002002E008C8D4
:102FB000121F08C1002AFAD170477047002001E0B3
:102FC00001C1121F002AFBD1704700002DE9FF5FED
:102FD00082B00021DDE90430020DDDF840B003438A
:102FE00018D044F61050A2F2FF3242431514119843
:102FF00001281FD0A5EB0B00401C5FEA000A4FF030
:1030000000064E4FDFF83891B046504615D5CAF14C
:10301000000413E0119801244AA3012801D16FEAAA
:103020000B010298119AC0E90031C0E9024206B0D2
:10303000BDE8F09FCBF10000DFE704460021404AE5
:10304000491842EB0450CDE9001012E0E00707D028
:1030500032463B4640464946FDF795F9804689464B
:1030600032463B4610461946FDF78DF906460F4697
:103070006410002CEAD1DDE90401DDE90023BAF196
:10308000000F06DAFDF77FF942464B46FDF77BF964
:1030900005E0FDF7EAF942464B46FDF7E6F904463E
:1030A0000E460022284BFDF767FA03D84FF0FF3099
:1030B000014607E00022254B20463146FDF7BCF8CB
:1030C000FDF742FA102409E0002C0ADB0A22002353
:1030D000FDF781F8039B30321A55641E50EA010255
:1030E000F2D1641C039AC4F111031444119A012A09
:1030F00003D0012208430DD10AE0084304D0002088
:103100004FF0110B119072E7A3EB0B056D1E0DE054
:103110005B4504DD4FF0000205F1010504E003DA30
:103120004FF00002A5F10105002AECD00298119998
:10313000C0E90231C0E9004579E700000000144011
:103140000000F03F300000000000F0430000E03FCE
:103150002DE9FF4F95B09B468946064600250FE2B4
:10316000252877D100242746F84A0121059400E05C
:10317000044316F8013F203B01FA03F01042F7D157
:1031800030782A2811D06FF02F033078A0F1300268
:10319000092A16D8059A44F0020402EB820203EBD6
:1031A00042021044761C0590EFE759F8042B059273
:1031B000002A03DA504244F40054059044F002041B
:1031C000761C30782E2816D116F8010F44F004042E
:1031D0002A280DD06FF02F023078A0F13003092B90
:1031E00009D807EB870302EB4303C718761CF3E704
:1031F00059F8047B761C30786C280FD006DC4C28FC
:1032000017D068280DD06A2814D104E0742810D093
:103210007A280FD10DE044F400140AE044F480143D
:1032200001E044F440147278824202D104F5801423
:10323000761C761C307866280BD013DC582877D0A3
:1032400009DC002875D04528F6D04628F4D0472858
:103250001AD19DE118E0632835D0642879D065281B
:1032600012D195E1702873D008DC6728F1D0692865
:103270006FD06E280DD06F2806D1B5E073282CD002
:10328000752875D0782874D05A46179990476D1CC8
:1032900075E1C4F30250022809D003280DD0D9F8F3
:1032A000001004280DD00D6009F1040967E1D9F878
:1032B0000010EA17C1E90052F6E7D9F800100D80B6
:1032C000F2E70D70F0E719F8041B8DF800100020EC
:1032D0008DF80100EA46012003E059F804AB4FF0F5
:1032E000FF3061074FF0000102D40DE008F1010149
:1032F0008846B9420FDA8045F8DB1AF80810002931
:10330000F4D108E008F1010188468142FADB1AF89D
:1033100008100029F6D105985B46A0EB0807214666
:103320003846179A00F094FA284400EB080507E0A5
:103330004DE029E10DE01AF8010B5A461799904724
:10334000B8F10108F7D25B4621463846179A13E1D7
:1033500042E00A220092C4F302524FF0000A022A0D
:1033600008D059F804CB032A4FEAEC710AD00DE0DB
:1033700029E02AE009F1070121F00702F2E802C181
:10338000914609E00FFA8CFC4FEAEC71042A03D154
:103390004FFA8CFC4FEAEC71002907DA0A4600214B
:1033A000DCF1000C61EB02012D2202E0220504D5C4
:1033B0002B228DF80420012203E0E20701D0202215
:1033C000F7E7904659E00A2102E010220DE01021B3
:1033D0004FF0000A00910BE010224FF0000A44F079
:1033E00004040827009203E008224FF0000A00922C
:1033F000C4F30252022A05D059F804CB0021032A53
:1034000008D009E009F1070121F00702F2E802C142
:10341000914605E01FFA8CFC042A01D10CF0FF0C48
:103420004FF00008220728D5702806D0009B83F0B3
:10343000100353EA0A0305D00EE040228DF8042061
:10344000012208E05CEA010206D030228DF8042057
:103450008DF8050002229046009B83F0080353EA92
:103460000A030AD15CEA010201D1620705D53022C4
:103470008DF804204FF001087F1E582804D034A096
:1034800003900EA802900DE036A0F9E7534660467F
:10349000009AFCF7A0FE84460398825C0298401EC6
:1034A000029002705CEA0100F0D1029806A9081AA5
:1034B00000F1200A600702D524F4803400E00127DF
:1034C000574502DDA7EB0A0000E0002000EB0A01EF
:1034D000009005984144401A0590E00306D45B46ED
:1034E0002146179A059800F0B3F90544002706E035
:1034F00001A85A46C05D179990476D1C7F1C47452F
:10350000F6DBE0030CD55B462146179A059800F0E0
:103510009FF9054404E030205A46179990476D1CE6
:103520000099481E00900029F5DC08E002980299F5
:103530005A460078491C0291179990476D1CBAF1C0
:103540000001AAF1010AF1DC65E10000092801008F
:103550003031323334353637383961626364656609
:1035600000000000303132333435363738394142CB
:10357000434445460000000000F058F90544761C1D
:10358000307800287FF4ECAD19B02846BDE8F08F04
:10359000620700D4062709F1070222F0070CFCE8B5
:1035A0000223E14603F000485FEA080C02D00FF264
:1035B000702C0DE05FEA045C02D50FF2682C07E086
:1035C0005FEAC47C02D00FF2602C01E0AFF2700C15
:1035D0004FF0FF3823F00043CDF850C065280CD0E1
:1035E00006DC452809D046281DD047283DD13DE0BE
:1035F000662818D067287ED138E00021112F01DB22
:10360000112000E0781CCDE9000106A90EA8FFF703
:10361000DDFCDDE90F010E9A03910021009207F114
:10362000010A04914DE04FF000400097CDE90110F0
:1036300006A90EA8FFF7CAFCDDE90F0203920E9B54
:1036400011990022DDF80CA00093049211B9791CA5
:1036500000EB010AB7EB0A0004D4C0F1FF3007F118
:10366000010A0490AAEB0700019044E0012F00DA60
:1036700001270021112F01DD112000E03846CDE99E
:10368000000106A90EA8FFF7A1FCDDE90F010E9AC3
:103690000391002104910092BA4621070CD40399AA
:1036A000514500DA8A46BAF1010F05DD009AAAF108
:1036B0000101515C302908D0B84202DA10F1040F40
:1036C00006DA0121CDE9011015E0AAF10101E9E7CF
:1036D000002805DC049901440491AAEB000102E0F2
:1036E000411C514500DD8A460499401A401C019056
:1036F0004FF000400290200704D40198504501DBB0
:10370000CDF8048000208DF84F0002980DF14F078E
:10371000B0F1004F25D02B200E9002984FF00208F8
:1037200000280CDA404202902D200E9007E00A217A
:103730000298FCF73AFD3031029007F8011DB8F10C
:103740000001A8F10108F2DC02980028EFD1791EEF
:103750000E980870307800F0200040F0450007F81F
:10376000020D12A8C01B00F107081498007800B1E0
:10377000012000EB0A01019801EBE071059841443A
:10378000401A401E0590E00306D45B462146179A76
:10379000059800F05DF805441498007818B15A4671
:1037A000179990476D1CE00324D55B462146179A74
:1037B000059800F04DF805441CE00498002807DB4C
:1037C000DDE90301884203DD0098405C179901E0C0
:1037D000179930205A469047049805F10105401C7E
:1037E00004900198401E019004D12E205A4617994A
:1037F00090476D1CBAF10001AAF1010ADDDC05E079
:1038000017F8010B5A46179990476D1CB8F1000143
:10381000A8F10108F4DC5B462146179A0598ABE64F
:103820002D0000002B000000200000002DE9F041D9
:10383000044600251E461746880404D405E0394690
:103840002020B0476D1C641EF9D52846BDE8F081E4
:103850002DE9F041044600251E469046C80301D5D7
:10386000302700E02027880404D505E0414638468B
:10387000B0476D1C641EF9D52846BDE8F0810000F4
:103880000000000000000102030406070809000010
:1038900000000102030402030405060708090A0BDD
:1038A0000C0D0E0F101001027374617274210D0A59
:1038B00000636F756E743D256C64207C20737065A9
:1038C00065643D256C6420707073207C2052504DDF
:1038D0003D256C64207C2074696D65203D20256445
:1038E0000D0A000008390008000000201000000048
:1038F000AC2F00081839000810000020B0070000A5
:10390000BC2F0008000000000000000000127A0038
:0839100001000000100000009E
:04000005080000ED02
:00000001FF
