:020000040800F2
:100000008017002055020008951A0008351A0008CC
:10001000911A00084D040008C535000800000000D2
:10002000000000000000000000000000A91A000805
:100030005104000800000000A51A0008AD1A0008CD
:100040006F0200086F0200086F0200086F020008CC
:100050006F0200086F0200086F0200086F020008BC
:100060006F0200086F0200086F0200086F020008AC
:100070006F0200086F0200086F0200086F0200089C
:100080006F0200086F0200086F0200086F0200088C
:100090006F0200086F0200086F0200086F0200087C
:1000A0006F0200086F0200086F0200086F0200086C
:1000B0006F0200086F0200086F0200086F0200085C
:1000C0006F0200086F0200086F0200086F0200084C
:1000D0006F0200086F0200086F0200086F0200083C
:1000E0006F0200086F0200086F0200086F0200082C
:1000F0006F0200086F0200086F0200086F0200081C
:100100006F0200086F0200086F0200086F0200080B
:100110006F0200086F0200086F0200086F020008FB
:100120006F0200086F0200086F0200086F020008EB
:100130006F0200086F0200086F0200086F020008DB
:100140006F0200086F0200086F020008991A000889
:100150006F0200086F0200086F0200086F020008BB
:100160006F0200086F0200086F0200086F020008AB
:100170006F0200086F0200086F0200080000000014
:100180006F0200086F02000800F002F800F052F859
:1001900014A696E8000CB244B344DA4501D100F04D
:1001A00049F8BAE80F000FA696E83000A5EB040561
:1001B00004EB0607AAEB0704A7F101074FEA1515A0
:1001C0004FEA3414A4F10104AC4201D300F032F838
:1001D00013F0010F18BFFB1A43F0010300F001F800
:1001E000DBE718475034000070340000103A24BF99
:1001F00078C878C1FAD8520724BF30C830C144BF8C
:1002000004680C6070470000704700000023002461
:1002100000250026103A28BF78C1FBD8520728BF16
:1002200030C148BF0B6070471FB503F0EEF91FBD2A
:1002300010B510BD00F0D0F81146FFF7F5FF03F040
:10024000C3F900F0EEF803B4FFF7F2FF03BC00F0CF
:10025000F5F800000948804709480047FEE7FEE737
:10026000FEE7FEE7FEE7FEE7FEE7FEE7FEE7FEE766
:1002700004480549054A064B70470000611B000809
:1002800089010008800B00208017002080110020C9
:100290008011002053EA020C00F069802DE9F04B38
:1002A0004FF00006002B1FBFB3FA83F503FA05F4E5
:1002B00024FA05F65E4012BF1643B2FA82F502FA3E
:1002C00005F4C5F120051EBF22FA05FC44EA0C0422
:1002D000203556EA044C4FEA144418BF641C4FF012
:1002E00000084FF00009904271EB030C39D300294C
:1002F00019BFB1FA81F701FA07F6B0FA80F700FAF0
:1003000007F6C7F120071EBF20FA07FC46EA0C06D5
:100310002037B6FBF4FCA7EB0507103F07F01F0BD7
:10032000CBF120062CFA06F60CFA0BFB44BFB346C1
:100330000026202FA4BF5E464FF0000B5BEA060CA0
:1003400008BF4FF0010B19EB0B0948EB0608ABFB9C
:10035000027C06FB02CC0BFB03CCC01B71EB0C0137
:10036000C1E70B46024641464846BDE8F08B13B54F
:10037000084318BF4FF0FF300146AFF30080BDE8DF
:100380001C4070474FF0000200B513469446964655
:10039000203922BFA0E80C50A0E80C50B1F1200198
:1003A000BFF4F7AF090728BFA0E80C5048BF0CC046
:1003B0005DF804EB890028BF40F8042B08BF7047A4
:1003C00048BF20F8022B11F0804F18BF00F8012B16
:1003D0007047704770477047754600F02BF8AE467F
:1003E00005006946534620F00700854618B020B541
:1003F000FFF73EFFBDE820404FF000064FF000073A
:100400004FF000084FF0000BAC46ACE8C009ACE878
:10041000C009ACE8C009ACE8C00921F007018D466D
:10042000704710B50446AFF300802046BDE8104089
:10043000FFF709BF00487047180100200149182044
:10044000ABBEFEE72600020070470000FEE700009A
:1004500070470000EFF3108072B600BFFEE70000A7
:10046000B0B5044600F0DCF8054640F21210C2F2C6
:1004700000000078611C18BF044400BF00F0D0F8F1
:10048000401BA042FAD3B0BD2DE9F04F82B000F17D
:100490003E4707F1FF77860546EA972741F6004673
:1004A000C4F202060822B04208BF0722072F38BF55
:1004B0003A46002400274FF00009009209E000BFEF
:1004C00009F101090237B9F1100F04F1040400F039
:1004D000A4800D68012202FA09FC15EA0C08EFD08D
:1004E000D1F804B00BF0030AAAF10105012D12D8CE
:1004F0000322856802FA07FECA6825EA0E05BA409B
:100500002A4382604268CBF3001522EA0C0205FA06
:1005100009F52A434260BAF1030F1CD0C2680323D5
:100520008E6803FA07F5AA43BE403243BAF1020FC0
:10053000C26010D16FF0030202EA59020244D2F8FD
:1005400020C004F01C050F230E69AB402CEA030306
:10055000AE4033431362026803234E68BB409A43A4
:1005600006F00303BB401A4316F4403F0260A7D0D5
:10057000002243F644030192C4F202031A6843F6D0
:10058000004E42F480421A601A68C4F2010E02F46E
:1005900080420192019A29F003024FF6084C7244FE
:1005A000CFF6FF7C52F80C3004F00C060F25B54056
:1005B000AB43009D05FA06F6334342F80C30DEF8F3
:1005C00008204B6842EA080643F60C4CDD0258BF8F
:1005D00022EA0806CEF80860C4F2010CDCF800201C
:1005E0009D0242EA080658BF22EA0806CCF80060DD
:1005F000DEF804209D0342EA080658BF22EA0806F6
:10060000CEF80460DEF80020DB0342EA080658BF9B
:1006100022EA0806CEF8006052E702B0BDE8F08F8B
:1006200040F67830C2F200000068704740F21210C5
:1006300040F67831C2F20000C2F2000100780A6888
:10064000104408607047000080B543F60040C4F2D3
:100650000200016841F400710160016841F48061A9
:100660000160016841F480710160032000F088F8A6
:100670000F2000F005F800F02BF8002080BD0000EE
:10068000B0B540F21212C2F2000240F268011278D4
:10069000C2F200014FF47A730968B3FBF2F2044628
:1006A000B1FBF2F1084601F0AFF90F2C4FF0010554
:1006B0000CD858B94FF0FF3021460022002500F039
:1006C00033F840F21410C2F2000004602846B0BDB6
:1006D00082B0002043F640010190C4F202014A6852
:1006E00042F480424A604A6802F480420192019AD0
:1006F0000090086840F080500860086800F0805062
:100700000090009802B07047002848BF704700F082
:100710001F01012202FA01F14EF200124009CEF24D
:10072000000242F82010704710B54EF60C5CCEF275
:10073000000CDCF80030C3F3022E8EF00704042C0A
:1007400028BF0424BEF103034FF0FF3E0EFA04F469
:1007500038BF0023A14399400EFA03F39A43114393
:1007600000F1604200F00F03090102F56442043B0E
:100770006344002848BF03F10C02117010BD000053
:100780004EF60C51CEF200010A684FF6FF031A40F4
:1007900060F30A2242F0806040F0FD70086070470C
:1007A000704700000268002051627047B0B5D0F871
:1007B00000E0DEF82400D1B1DEF82830B1F1010C00
:1007C00000EB13430BD05FFA8CF10EF58070002420
:1007D00050F8045F01348C4203EB1543F8D343EA2D
:1007E00002400EEB8C01C1F804010020B0BD40EACC
:1007F0000240CEF828000020B0BD0000D0F8080567
:1008000001F0DABC01EBC102D0F8083500EB820040
:10081000C26C184601F038BC01EBC102D0F80835B3
:1008200000EB8200D0F88C22184601F087BC000053
:10083000D0F8080501F0C2BC10B5044648B2B0F1CA
:10084000FF3F01F00F0000EBC00104EB810205DD6A
:1008500002F51F71002382F87D3204E0012302F1CA
:100860003C0182F83D3094F8BC240870012A04BF92
:10087000022010BD2068012284F8BC2402F0ACF9EB
:10088000002084F8BC0410BDB0B54268044601F0F5
:100890000F0082423CBF0120B0BD49B2B1F1FF3F21
:1008A00009DD00EBC00104EB810202F51F7100239A
:1008B00082F87D3208E000EBC00104EB81020123E5
:1008C00002F13C0182F83D3094F8BC240025012A55
:1008D0008D70087004BF0220B0BD2068012284F82A
:1008E000BC2402F083FB284684F8BC54B0BD000051
:1008F00070B5064648B2B0F1FF3F01F00F0000EBC3
:10090000C00107DD06EB810404F51F71002584F8A2
:100910007D5206E006EB810C01240CF13C018CF8C1
:100920003D404D780870002DCA600B7118BF0881DA
:10093000022B04BF0020487196F8BC04012804BFB4
:10094000022070BD3068012286F8BC2402F074F8E1
:10095000002086F8BC0470BD80B501F00F0C0CEBD4
:10096000CC0100EB810ECEF894320023CEF89C32FD
:100970008EF87D320369CEF88C22012B8EF87CC272
:1009800008BFCEF8902200680EF51F71DAB2BCF1F4
:10099000000F03D002F070FB002080BD02F07AFA55
:1009A000002080BDB0B50446406801F00F058542C7
:1009B00084BF0120B0BD48B2B0F1FF3F09DD01EBBB
:1009C000C10004EB800000F51F71002280F87D2239
:1009D00008E005EBC50004EB8000012200F13C01BA
:1009E00080F83D2094F8BC04012201288A700D7023
:1009F00004BF0220B0BD206884F8BC2402F01EFBB6
:100A00002DB92068217C04F2C44202F0C1FA002012
:100A100084F8BC04B0BD000010B501F00F0C0CEB65
:100A2000CC0100EB810E714601F83CCF8B610023B5
:100A30000B62036901244C70012B0A6108BFCEF8D8
:100A400050200068DAB2BCF1000F03D002F014FBB2
:100A5000002010BD02F01EFA002010BD2DE9F04F5D
:100A600089B005688246284602F06AFC10B109B0D8
:100A7000BDE8F08FDAF8000002F090FC0028F6D014
:100A8000D5F80808C0F30D21DAF80000CAF8FC1404
:100A900002F084FC800705D5DAF80000416901F016
:100AA00002014161DAF8000005F5006602F076FC0B
:100AB000C00606953ED5DAF80000816921F01001E4
:100AC00081612C6AC4F34340062804F00F0519D055
:100AD000022828D147F6F07014EA000823D005EB6D
:100AE000C5000AEB8007D7F88C124FEA1814069855
:100AF000224602F057FCD7F88C0200EB1810C7F81A
:100B00008C0207E006980AF2C441082202F04AFC6F
:100B1000C4F30A1405EBC5000AEB8000D0F89C1260
:100B20002144C0F89C12DAF80000816941F01001FC
:100B30008161069DDAF80000039602F02FFC0003A5
:100B400040F1F780DAF8000002F006FC002800F01F
:100B5000F08006460AF2C4404FF4306800244FF09B
:100B6000000B08901AE000BF05EB0800022181602D
:100B7000B80642BF05EB080020218160B80442BFDF
:100B800005EB08004FF4005181600BF1010B760872
:100B900008F1200804F1240400F0CB80F007F4D021
:100BA000DAF800005FFA8BF9494602F0EFFB0746DE
:100BB000C0076ED005EB080001218160DAF8000063
:100BC00008EB000C036CDCF80820DAF81050012D5B
:100BD00028D115073AD4950654D4069D12F0280F53
:100BE00057D143F20B01C4F654718B4202D312F475
:100BF000004235D10AEB0402D2F89832DCF810102A
:100C00006FF3DF41A3EB0101C2F89C12CCB9D2F81B
:100C10009432002B00F08880D2F88C020844C2F88D
:100C20008C020EE043F20B05C4F65475FF35AB425F
:100C30001BD1100428D4069D900644BF2020CCF878
:100C4000080050464946FFF7E7FD22E043F20B005B
:100C5000C4F65470069D83421BD312F4004018D092
:100C60004FF40040CCF8080013E034B9DAF89412DD
:100C700019B9089A002102F08BF950464946FFF74E
:100C8000CBFD05E0202001E04FF40040CCF8080047
:100C9000069D380728D505EB080008218160DAF8A1
:100CA000000043F20B02056C40448168C4F65472A4
:100CB000954205D311F400411CBF4FF400418160FF
:100CC000504600F0C9FB43F20B00C4F65470854255
:100CD000069D09D3DAF81000012805D1DAF80000E2
:100CE000089A012102F054F9F80642BF05EB08000A
:100CF00010218160B8077FF53BAF6869000604D515
:100D00000399486840F4806048600AEB040090F85A
:100D10007F1201297FF428AF002180F87F1250460E
:100D2000494600F083FA1FE7089A012102F030F9E2
:100D300087E7DAF80000CDF820A002F02FFBDDF8FD
:100D40000CB0400340F1D9800898006802F0FCFA2A
:100D5000002800F0D2808246089805F5106600F25F
:100D6000C44000270190029606E000BF5FEA5A0ADD
:100D700007F1010700F0C1805FEACA70F6D0089859
:100D8000F9B20068079102F0EFFA0446C00726D0D6
:100D900007F00F00DBF83410012202FA00F021EA1C
:100DA0000000CBF8340006EB47108260089D2869EC
:100DB00001280FD107EBC70005EB8000D0E9121224
:100DC0001144C16437B9406D20B92868019A0121E6
:100DD00002F0DEF807992846FFF714FD069D20076C
:100DE00042BF06EB471008218160E00642BF06EBD8
:100DF000471010218160600642BF06EB471040217A
:100E00008160A00716D52846394602F063FA089992
:100E100007EBC70001EB800010F83F1F012905D147
:100E200000210170DDE9071000F0FCF906EB471026
:100E300002218160200699D5089907EBC70001EBD4
:100E40008000814659F8541FC84658F8082F91422F
:100E50008CD3089B83461E685BF8483F891A9942E9
:100E600038BF0B46059606EB4711D1F81829033316
:100E700092B2B2EB930F29D301F5106100F14C054A
:100E8000049100BFD8F80000D9F8001081421DD9A4
:100E9000DBF80040089A081AA0422968167C38BF7F
:100EA00004460598079AA3B2009602F06DFB2868E5
:100EB000D8F80010204428600819C8F800000498E9
:100EC000E11C806980B2B0EB910FDBD2D9F8000051
:100ED000D8F80010069DDDE9026B88423FF646AF68
:100EE000059B07F00F00D3F83418012202FA00F036
:100EF00021EA0000C3F8340838E7DDF82080D8F88C
:100F0000000002F04BFAB0F1FF3F1ADCDBF80400FE
:100F100020F00100CBF8040098F8F404012807D170
:100F2000002088F8F40440460021FFF739FC02E075
:100F3000404600F075FAD8F80000416901F0004120
:100F40004161D8F8000002F029FA00050CD5DBF861
:100F50000800C00702D0404600F0A6FAD8F800000A
:100F6000416901F400614161D8F8000002F016FA0D
:100F7000C0045BD5DBF80400102120F00100CBF8A1
:100F80000400D8F8000002F0A5F9D8F80400D0B1A8
:100F900005F510614FF67F328A600B68013823F443
:100FA00000130B60C1F80822D1F8003223F40013BB
:100FB000C1F80032D1F8003243F00063C1F80032CA
:100FC00001F12001E8D1DBF81C0040F00110CBF862
:100FD0001C00D8F8300040B1DBF8840040F00B0072
:100FE000CBF884000BF1440008E0DBF8140042F277
:100FF0002B010843CBF814000BF11000016808F234
:10100000C44241F00B010160DBF8000020F4FE60F7
:10101000CBF80000D8F8000098F8101001F0B8FFE5
:10102000D8F80000416901F480514161D8F800000E
:1010300002F0B4F980041CD5D8F8000001F03CFDA2
:10104000D8F8000002F06EF9D8F80040C8F80C009B
:1010500000F0F4FA98F80C200146204602F00CFA51
:10106000404600F0C7F9D8F80000416901F400518A
:101070004161D8F8000002F091F9000708D5404618
:1010800000F0D2F9D8F80000416901F0080141618F
:10109000D8F8000002F082F9000629D5069988697F
:1010A00020F080008861D8F80400022820D30124B1
:1010B00040F2A32507E000BFD8F8040001348442C1
:1010C00005F1240514D218F805000128F4D104F024
:1010D0000F0000EBC00008EB80022006D8F80000EB
:1010E00002F13C0158BF02F51F7102F0A5F8E3E7D9
:1010F000D8F8000002F052F9C0022FD5D8F8040049
:10110000022825D3069808F1640500F5126401262B
:10111000012706E0D8F804000137874204F12004D3
:1011200016D22846216815F8242B012AF2D1B1F1F4
:10113000FF3FEFDC00F8016C07F00F0000EBC00090
:1011400008EB8001D8F800003C3102F075F8E1E7C7
:10115000D8F80000416901F480114161D8F800001D
:1011600002F01CF9800236D5D8F8041002292CD3DD
:101170000698013900F5326008F52972012303E071
:10118000013900F1200020D01746066812F8245BD0
:10119000012DF5D1B6F1FF3FF2DCD8F8FC5406F48E
:1011A000803605F00105AE42EAD1069E07F8013C03
:1011B000B76947F08007B76177693F06E0D4DBF88D
:1011C000040040F40070CBF80400D8F80000416936
:1011D00001F400114161D8F8000002F0DFF840008E
:1011E00008D54046FFF70AFBD8F80000416901F036
:1011F00080414161D8F8000002F0D0F840077FF547
:1012000036ACD8F800004468600702D54046FFF7C6
:101210000FFBD8F8000041682143416009B0BDE8E8
:10122000F08F0000D0F8080501F026B8D0F80805C6
:1012300001F038B82DE9F04F8BB0002800F086801F
:101240000446056890F8BD0428B9002084F8BC0461
:10125000204600F08BF8032084F8BD04E86BC0053D
:101260005CBF00202061206801F00CFE206804F1C2
:101270001C0A0A90D4E90C5004F1040E9AE8C00745
:101280009EE80E58CDE9085003A880E8C0030A98EC
:101290008DE80058CDF81CA001F01EFC002852D1AA
:1012A00020680021002502F0A3F8616861B30120E5
:1012B0000023002203EBC30304EB830787F83C20E1
:1012C000D3B20132A7F84430D3B2994287F83D0037
:1012D00087F84050C7E912557D65EBD80020002300
:1012E000002200BF03EBC30304EB830787F87C22D3
:1012F0000132D3B2994287F87D0287F88002C7E9AC
:10130000A200C7F89402EDD8A06822680A90D4E938
:101310000C5004F1140E04F1240AD4E903379EE8BA
:1013200040589AE80007CDE9085002A880E8005824
:1013300010460A9ACDE90076CDE90589CDF81CA0C2
:1013400001F0AEFC38B1022084F8BD040125284626
:101350000BB0BDE8F08F0025012084F8385084F8E8
:10136000BD04206801F08CFCF1E70000B0B586B048
:1013700000680024B0F1A04F0594CDE90344029425
:10138000019401D006B0B0BD43F630050094C4F21C
:101390000205286801A940F001002860286800F0D3
:1013A0000100009000984FF4C05001900220CDE958
:1013B0000204032004900A2005900020C4F20200D9
:1013C000FFF762F86868002140F0800068600094D0
:1013D0006869002240F480406861686900F48040D8
:1013E000009000984320FFF79FF94320FFF78CF906
:1013F00006B0B0BD10B50446C06828B1022801D0BF
:10140000FFF728F8012100E00021D4F8080500F0DA
:10141000CFFFD4F80805BDE8104000F07FBF000002
:10142000D0F8080500F0AABFD0F8080500F0B0BF5A
:1014300010B5044690F8BC04012804BF022010BD7A
:10144000012084F8BC0484F83810206802F002F807
:10145000002084F8BC0410BDD0F8082500F2C44177
:10146000104600F0BBBF000010B5044690F8BC0465
:10147000012804BF022010BDA16A206801220129B1
:1014800084F8BC2406D1A169012903D0816B41F401
:101490008031816301F016FF206801F0E1FB00203C
:1014A00084F8BC0410BD000010B50446D0F808054F
:1014B00000F0E8FF2068D0F8001E41F00101C0F8FC
:1014C000001E206A002808BF10BD4EF61050CEF254
:1014D0000000016841F00601016010BD002804BF52
:1014E000012070472DE9F04143F60808C4F20208D4
:1014F0000446D8F8F8030D4600F00700884207D2EA
:1015000088F8F853D8F8F80300F00700A84276D11D
:101510002068810717D5410705D5D8F8001041F498
:10152000E051C8F80010010705D5D8F8001041F4C3
:101530006041C8F80010D8F80010A26821F0F0014E
:101540001143C8F80010C0073FD1D8F8F80300F0E5
:101550000700A84207D988F8F853D8F8F80300F034
:101560000700A8424BD12068410707D5D8F80010E2
:10157000E26821F4E0511143C8F80010000708D5D3
:10158000D8F80000216920F4604040EAC100C8F8A2
:10159000000000F059F8D8F8001043F22462C1F3BB
:1015A0000311C0F60002515C40F2680220FA01F11A
:1015B00040F21410C2F200000068C2F20002116092
:1015C000FFF75EF80020BDE8F0816068811E022907
:1015D00007D258F8081C89015CBF0120BDE8F081E2
:1015E00010E0012807D158F8081C89035CBF0120CE
:1015F000BDE8F08106E058F8081C890702D40120F4
:10160000BDE8F081D8F8001021F003010843C8F8C4
:101610000000FFF705F8064641F28837D8F80000C9
:10162000616800F00C00B0EB810F8ED0FEF7F8FF80
:10163000801BB842F2D90320BDE8F08140F2680077
:10164000C2F200000068704710B543F60404C4F20B
:101650000204606800F00C0142F200400829C0F268
:10166000F40007D0042918BF10BD41F20020C0F2D9
:101670007A0010BD216801F03F0221682368490209
:10168000C3F3881105D4A1FB00010023FEF702FE7D
:1016900006E041F20020C0F27A004843B0FBF2F0CD
:1016A00021680222C1F3014102EB4101B0FBF1F0DC
:1016B00010BD0000002804BF012070472DE9F04153
:1016C00082B00446007843F60006C007C4F2020662
:1016D00047D0B06800F00C00042808D130688003BF
:1016E0003FD56068E8BB012002B0BDE8F081B0687A
:1016F00000F00C00082802D170684002EED4656842
:10170000B5F5A02F0AD0B5F5803F0BD0306820F496
:1017100080303060306820F4802006E0306840F48B
:1017200080203060306840F480303060FEF778FF11
:10173000002D054612D000BF3068800311D4FEF79B
:101740006FFF401B6428F7D926E100BFFEF768FF52
:10175000401B64284FF0030000F2E28030688003F1
:10176000F4D4207880071BD5B06810F00C0F09D096
:10177000B06800F00C00082840F0878070684002D4
:1017800000F183803068800703D5E068012840F0CD
:101790009E803068216920F0F80040EAC100306086
:1017A0002078000735D42078400748D4A56965B370
:1017B000B06800F00C00082840F09E80012D00F079
:1017C00086807068E16900F480028A4240F07F8080
:1017D000216A00F03F028A4279D147F6C071626AFD
:1017E0000140B1EB821F72D1A16A4FF6FF73C903AA
:1017F000994300F44032A1F580318A4267D1E16A11
:1018000000F07060B0EB016F61D1002002B0BDE864
:10181000F0816069002840F20000C4F247205AD0ED
:101820000121C0F8801EFEF7FBFE0546706F8007A1
:10183000B9D4FEF7F5FE401B0228F7D9ACE0306CB6
:101840005FEAC0080AD400200190306C40F080505C
:101850003064306C00F080500190019847F200072E
:10186000C4F200073868C00524D4386840F480709A
:101870003860FEF7D5FE05463868C0051AD4FEF775
:10188000CFFE401B0228F7D986E0E068002857D039
:101890000020C4F2472001210160FEF7C1FE054689
:1018A000306880073FF575AFFEF7BAFE401B02288F
:1018B000F6D971E0A568052D56D0012D58D0306FAE
:1018C00020F001003067306F20F0040053E0012069
:1018D00002B0BDE8F0810021C0F8801EFEF7A0FE36
:1018E000054600BF706F80077FF55DAFFEF798FE7D
:1018F000401B0228F6D94FE00027C4F247270020FA
:101900003866FEF78DFE022D05460DD13068800148
:1019100059D5FEF785FE401B02284FF00300F5D98C
:1019200002B0BDE8F08100BF306880017FF56DAF87
:10193000FEF776FE401B02284FF00300F4D9EFE7D4
:101940000020C4F2472000210160FEF769FE054631
:10195000306880077FF524AFFEF762FE401B022847
:101960004FF00300F4D9DBE7306F40F0040030673C
:10197000306F40F001003067FEF752FE002D054643
:1019800041F2883713D000BF306F800712D4FEF7C2
:1019900047FE401BB842F7D9032002B0BDE8F081F2
:1019A000FEF73EFE401BB8424FF00300B8D8306F40
:1019B0008007F5D4B8F1000F3FF5F8AE306C20F099
:1019C00080503064F2E604F11C052FCD084340EA54
:1019D0008210D9034FF6FF729143A1F5803140EA9E
:1019E00005600843706001203866FEF719FE044662
:1019F000306880013FF509AFFEF712FE001B022898
:101A00004FF00300F4D98BE7411E0020B0EB116FBB
:101A10001CBF012070474EF21002CEF2000251604E
:101A20004EF62351CEF20001F0230B700721906097
:101A300011607047FEE7000080B540F2903040F240
:101A40000001C2F20000C2F20001002200F0E2FA3E
:101A5000002818BFFEF7FEFC40F2903040F28001F3
:101A6000C2F20000C2F2000100F034FD002818BFED
:101A7000FEF7F0FC40F29030C2F2000000F054FD9E
:101A8000002808BF80BDBDE88040FEF7E3BC000031
:101A9000FEE70000FEE7000040F26C60C2F20000CA
:101AA000FEF7DCBF7047000070470000FEF7BEBDC8
:101AB00070B592B006AC20463021FEF763FC0025DD
:101AC00043F640000595CDE90355CDE90155009554
:101AD000C4F202000168022641F0805101600068F2
:101AE00000F080500090009847F200000095C4F28A
:101AF0000000016841F480410160006800F480400A
:101B000000900098012006904FF4803007904FF429
:101B100080000D9004200E904820CDE90F06032090
:101B2000119020460C96FFF7C5FD20B1EFF3108011
:101B300072B600BFFEE70F20CDE901064FF48050DA
:101B4000CDE9040501A802210395FFF7C7FC20B1E8
:101B5000EFF3108072B600BFFEE712B070BD000058
:101B60004EF68850CEF20000016841F47001016029
:101B70007047000080B5D0F8B8225268904700281E
:101B800018BF032080BD0000002070470020704770
:101B900080B513460A46002100F0AEFB002080BD50
:101BA00080B513460A46002100F076FC002080BD77
:101BB00010B58021044600F041FC20460021BDE81C
:101BC000104000F03BBC000080B50521C0F8941225
:101BD00000210022002300F08FFB002080BD0000C8
:101BE00080B513460A460221C0F894120021C0E9CC
:101BF000063300F051FC002080BD000080B50421B8
:101C0000C0F8941200210022002300F045FC0020BF
:101C100080BD000010B540F27C14C2F200040A46F8
:101C200002A0214600F0BAF8204610BD48494420E1
:101C3000436F6E666967000040F26C001222C2F2C8
:101C400000000A807047000010B540F27C14C2F218
:101C500000040A4602A0214600F0A0F8204610BD6C
:101C600048494420496E74657266616365000000EE
:101C700040F2F4000422C2F200000A807047000023
:101C800010B540F27C14C2F200040A4602A02146BC
:101C900000F084F8204610BD53544D6963726F659F
:101CA0006C656374726F6E696373000010B540F207
:101CB0007C14C2F200040A4602A0214600F06EF82D
:101CC000204610BD53544D33322048756D616E204F
:101CD000696E7465726661636500000070B547F6F1
:101CE0001020C1F6FF70026883684FF01A0CD218FA
:101CF000A1F800C031D0406840F2F80C6FF001014B
:101D0000C2F2000C4FF0370E002300BF0CEB0105B0
:101D10000EEB1276B2F1204F01F102014FEA12747C
:101D200038BF04F1300612010E292E716B71EDD10E
:101D30000CF1100104224FF0370C00230CEB10754E
:101D4000B0F1204F4FEA107638BF06F1300501F8A8
:101D5000025F0001013A4B70F0D140F2F800C2F28C
:101D6000000070BDB0F802C003789C459CBF002005
:101D7000704780B508E000BF82788A4208BF80BD06
:101D800073449AB2624506D290F800E070444278FB
:101D9000052AF1D0F4E7002080BD0000002808BF2C
:101DA000704780B503786BB1431E4FF0000C00BF45
:101DB00093F802E00CF1010CBEF1000F03F10103F6
:101DC000F6D101E04FF0000C5FFA8CFC022303EB2C
:101DD0004C03138003220B704A7090F800E0BEF1B0
:101DE000000F12D0013802234FF0000CDAB201F8D4
:101DF00002E042F0010201F802C090F802E0023372
:101E0000BEF1000F00F10100F0D1BDE88040704745
:101E1000D0F8D412002200EB8100D0F8C0120020CC
:101E20000A737047B0B58121044600F01BF9D4F85D
:101E3000D4020025A56304EB8000D0F8C00238B1BD
:101E400000F0F2FDD4F8D40204EB8000C0F8C052D8
:101E50000020B0BD014640F2E8000A22C2F20000B4
:101E60000A80704710B5044640F2B800C2F2000084
:101E70008121FFF777FF00281CBF0A21817140F202
:101E8000B8002221C2F20000218010BD10B5044626
:101E900040F2B800C2F200008121FFF763FF002882
:101EA0001CBF0721817140F2B8002221C2F200005C
:101EB000218010BD10B5044640F2B800C2F2000007
:101EC0008121FFF74FFF00281CBF0A21817140F2DA
:101ED000B8002221C2F20000218010BDB0B5044636
:101EE000102000F0A3FDD4F8D412054604EB8100C5
:101EF00000F530709DB10560207C0A21C4F8BC5209
:101F0000002808BF0721618720468121032204237E
:101F100000F0DEF90120208700202873B0BD0021E9
:101F200001600220B0BD000080B582B0D0F8D4229C
:101F300000EB8202D2F8C0320022002BADF806205E
:101F400000F057800A7812F0600211D0202A4ED19A
:101F50004A78A2F1020CBCF1090F48D8DFE80CF076
:101F6000051E4747474747472125191D01224CE0D9
:101F700091F801C0BCF10B0F39D80022DFE80CF05A
:101F8000063A3737373719373737272F90F89C22DB
:101F9000032A2CD10DF10601022236E01946012256
:101FA00033E0C8780022586024E088780022186066
:101FB00020E0CA78212A20D0222A18D1CA8840F2EB
:101FC0001C014A2A28BF4A22C2F200011DE090F8F3
:101FD0009C22032A0BD103F10801012215E090F89D
:101FE0009C22032A03D188780022986002E0FFF740
:101FF000DFFD0322104602B080BDCA8840F2DC013A
:10200000C2F20001092A28BF0922FFF7E9FD0022D8
:10201000F0E70000002804BF032070470023C0F849
:10202000B832C0F8C4320029C0F8D03218BFC0F8A6
:10203000B412012180F89C12027000F0D1B80000A7
:1020400080B5D0F8C802FEF71FFC40F20032C10094
:10205000C0F2013222FA01F1032888BF0321C8B27D
:1020600080BD000080B5D0F8C802FEF7E5FB40F265
:102070000032C100C0F2013222FA01F1032888BF08
:102080000321C8B280BD0000B0B5044689B194F800
:102090009C0203284FD1D4F8B8024269002A4AD0E2
:1020A0000020C4F8D40220469047002808BF002032
:1020B000B0BDD4F89402022836D1D4E90710814289
:1020C0000DD90B1A204611461A46E361FFF768FD49
:1020D000204600210022002300F00EF924E00FD159
:1020E000A16981420CD3D4F89802814208D22046DB
:1020F000002100220025FFF753FDC4F89852E7E7BE
:1021000094F89C02032808D1D4F8B802C16821B120
:102110000020C4F8D402204688472046802100F0E1
:102120008DF92046FFF750FD94F8A00200281CBF4F
:10213000002084F8A0020020B0BD000010B50446C5
:1021400069B194F89C0203281ED1D4F8B8028269C0
:102150000020D2B1C4F8D4022046904715E0D4F84C
:102160009402032825D1D4E95703984211D9C01A03
:10217000C4F85C01984238BF0346204611461A460F
:10218000FFF706FD002010BD0020002808BF00203A
:1021900010BD94F89C02032808D1D4F8B802016954
:1021A00021B10020C4F8D402204688472046FFF71A
:1021B00025FD002010BD000000207047012180F89F
:1021C0009C12D0F8B812002904BF0020704780B5D7
:1021D0004A6801799047002818BF032080BD00009D
:1021E000017809B10020704710B540F26C61C2F26D
:1021F0000001C1F80805C0F8C8124FF0A040042241
:10220000C1E9000202200022C1E90302C1E906027D
:102210000846C1E90822C1E90B22FFF70BF80028A4
:1022200018BFFEF717F940F26C64C2F200042046B2
:102230008021FEF7B7FA204600214022FEF7B6FAC9
:10224000204601218022FEF7B1FABDE810400020AF
:10225000704700004AB2D0F8C80201F07F0101EBDC
:10226000C10100EB810000F27E21002A48BF00F18D
:102270003E01087870470000D0F8D42200EB8202BB
:10228000D2F8B822002A04BF0320704790F89C328D
:10229000032B05D1126A1AB180B59047002080BD8A
:1022A00000207047D0F8D42200EB8202D2F8B82286
:1022B000002A04BF0320704790F89C32032B05D1FD
:1022C000526A1AB180B59047002080BD0020704747
:1022D00080B59446D0F8C8021A466346FEF708FB5C
:1022E00040F20032C100C0F2013222FA01F10328AB
:1022F00088BF0321C8B280BD80B5D0F8C802FEF700
:102300002BFB40F20032C100C0F2013222FA01F18F
:10231000032888BF0321C8B280BD0000F0B581B09A
:102320000126002580F89C62C0F89452044645605E
:10233000D0F8B802C4F8A45284F8A05240B1426860
:1023400032B12046002190470546002818BF0325DA
:1023500020460021002240234027FFF7B9FF2046F6
:10236000802100224023A4F86461C4F86071FFF763
:10237000AFFFA6842846276201B0F0BD90F89C12FA
:10238000042904BF90F89D1280F89C120020704729
:1023900090F89C12032908D1D0F8B81229B1C96964
:1023A00019B180B58847BDE8804000207047000023
:1023B000024600201174704780B5D0F8C802FFF7BC
:1023C00037F840F20032C100C0F2013222FA01F1C6
:1023D000032888BF0321C8B280BD0000B0B500F259
:1023E000AA250446284600F069F80120C4F89402A2
:1023F00094F8AA02B4F8B02200F01F010229C4F830
:10240000982208D001290CD089B920462946BDE878
:10241000B04000F08BB820462946BDE8B04000F03F
:1024200021BA20462946BDE8B04000F0C1BA00F00C
:1024300080012046BDE8B040AFF3008080B5D0F801
:10244000C802FEF7AFFA40F20032C100C0F201321A
:1024500022FA01F1032888BF0321C8B280BD000021
:1024600080B5D0F8C802FEF7FFFF40F20032C1008D
:10247000C0F2013222FA01F1032888BF0321C8B259
:1024800080BD0000014690F89C02042281F89D0264
:10249000002081F89C22704780B5D0F8C802FEF772
:1024A000BBFA40F20032C100C0F2013222FA01F15F
:1024B000032888BF0321C8B280BD00000A780270DB
:1024C0004A7842704A8842808A888280C988C1805E
:1024D0007047000010B582B004460020ADF8060039
:1024E000B1B1D4F8D42204F52E70C4F8B81250F863
:1024F0002200C16A21B10DF106008847C4F8D0025C
:10250000D4F8D8020130C4F8D802002002B010BDBF
:10251000032002B010BD0000D0F8B822002A04BF8A
:102520000020704712681047FFF79ABF70B582B05D
:102530000D460978044611F0600111D0402902D0FF
:10254000202940F0CD80D4F8D402294604EB800045
:10255000D0F8B8028268204602B0BDE8704010474B
:102560006878092800F2BC80DFE800F0051BBA2C6F
:10257000BA5D7DBA374A94F89C020138022800F20D
:10258000AF80E888022840F0AB80D4F8A402032290
:10259000002808BF0122214641F80C2F20460222C4
:1025A0004CE194F89C020138022800F29980688876
:1025B0000025012840F09D80C4F8A4522046FFF772
:1025C0001DFB96E06888022800F07C80012840F01E
:1025D00087800120C4F8A40277E0E888012840F051
:1025E0007F8094F89C02411E022980F073800025B0
:1025F000214641F8085F20460122FFF7F1FA78E012
:10260000688840F27815C2F2000510F0FE0F2870BD
:102610003ED020468021FFF711FF20460021FFF722
:102620000DFF032565E0A888002859D1E888002817
:1026300056D168887F2853D894F89C1203294FD02C
:1026400000F07F052046294684F89E52FFF7B4FE2D
:102650002046FFF7D3FA002D14BF0220012084F892
:102660009C02002545E068884FF0FF3101EB102106
:1026700000220629ADF8062000F2C980DFE801F04B
:1026800004493CC7C7566000D4F8B4020268B7E0FA
:1026900094F89C22C1B2032A60D0022A40F07F80C5
:1026A00099B120466160FFF737FF0546002800F02A
:1026B0008C8020468021FFF7C1FE20460021FFF7D5
:1026C000BDFE68E0687984F8A0022046FFF796FA1C
:1026D00000250EE0032803D1211D20460122ADE094
:1026E00020468021FFF7AAFE204600210025FFF7A3
:1026F000A5FE284602B070BDC0B2052800F2878052
:10270000DFE800F0036A6E72767AD4F8B4024268A9
:1027100075E0217CD4F8B80200290CBF816AC16A37
:102720000DF1060088470646022014E0207C0028B0
:102730006DD1D4F8B802416B0DF10600884763E013
:10274000207C002863D1D4F8B802016B0DF106009B
:102750008847064607207070012062E069B3606810
:102760008842B2D0C1B22046FFF704FA2978204649
:102770006160FFF7D1FE054600283FF41FAF2046F9
:102780008021FFF75BFE20460021FFF757FE2179ED
:102790002046FFF7EFF9022084F89C02A9E72046C3
:1027A0008021FFF74BFE20460021FFF747FE2978E6
:1027B0002046FFF7DFF903259BE7022084F89C02FF
:1027C00020466160FFF7D6F97FE72046FFF716FA4B
:1027D000032084F89C028CE7D4F8B40282680EE0EF
:1027E000D4F8B402C2680AE0D4F8B402026906E080
:1027F000D4F8B402426902E0D4F8B402826932B17A
:10280000207C0DF1060190470646012009E0204694
:102810008021FFF713FE204600210026FFF70EFE61
:10282000002090B1EA886AB1BDF8060078B1904204
:1028300038BF0246ADF8062020463146FFF7D0F9F2
:10284000002556E72046FFF7D9F9002551E7204635
:102850008021FFF7F3FD20460021FFF7EFFD002563
:1028600047E7000070B50E460978357911F0600130
:1028700004460AD0402901D0202977D12046294694
:10288000FFF782F9D8B1002070BD707820B301281D
:102890003BD003286AD194F89C02032839D1708870
:1028A00040B915F07F0005D0F08818B920462946B8
:1028B000FFF7C4FD2046FFF7A1F9002070BDD4F852
:1028C000B80282680020002AC4F8D402DBD0204677
:1028D0003146BDE87040104794F89C02032823D08D
:1028E000022808BF5FEA456040D105F07F0000EB99
:1028F000800004EB800000F114012A0658BF00F5A7
:10290000AA710020086020464CE094F89C0203283D
:1029100036D002282AD1680628D020462946FFF75B
:102920008DFD2046802127E005F00F0000EB8000A0
:10293000802D04EB80002CBF808CB0F86401A8B11E
:1029400005F07F0000EB800004EB800000F114062E
:10295000802D38BF00F5AA7668061FD0204629468C
:10296000FFF778FC002818BF012018E020468021DE
:10297000FFF764FD20460021FFF760FD002070BDD9
:10298000708800287FF47FAF680603D02046294670
:10299000FFF756FB2046FFF731F96FE70020306064
:1029A000204631460222FFF71BF9002070BD0000CF
:1029B00070B50D460978044611F0600118BF402932
:1029C0000FD194F89C02013802280CD8A88810F086
:1029D000FE0F08D1C1B22046FFF7D8F870B1032628
:1029E00018E02029EDD020468021FFF727FD204662
:1029F00000210026FFF722FD304670BDD4F8B80252
:102A00008268002AEBD00020C4F8D4022046294670
:102A100090470646E888002808BF002EECD12046E3
:102A2000FFF7ECF8304670BD7047000040F27C3094
:102A3000C2F200007047000010B50A784B78D0F859
:102A40001CE802F00F04012B4FEA421C17D10123AE
:102A5000A34043EA0E03C0F81C386044D0F80039A4
:102A60001B0427D4CB6800F51060097904686FF364
:102A7000DF2343EA814144EA8252114315E04FF4D7
:102A80008032A24042EA0E02C0F81C286044D0F80E
:102A9000002B12040ED4CA6800F5306009796FF378
:102AA000DF22036842EA8141194341F0805141F439
:102AB00000410160002010BD0146D0F8000940F23D
:102AC000FF729043C1F80009D1F8040840F4807205
:102AD0000020C1F80428704782B00499DDF808C0CE
:102AE000012940F64051C0F2030135D1826B4FF607
:102AF000BF7322F480328263C268CFF6BD731A407E
:102B0000C260C2680B9B22F44012012BC26003D149
:102B1000C26842F48012C26000220092009A013220
:102B20000092009A8A423AD80269B2F1FF3FF5DC7E
:102B300000220092026942F001020261009A013211
:102B40000092009A8A422AD80269D207F6D100215F
:102B5000BCF1010F3CD133E0C268089B42F0400257
:102B6000C2600022019200BF019A01320192019AD3
:102B70008A4219D80269B2F1FF3FF5DC00220192C6
:102B8000026942F001020261019A01320192019A46
:102B90008A4209D80269D207F6D1002105E0032153
:102BA000BCF1010F14D10BE00321826B002B14BF89
:102BB00022F4803242F480328263BCF1010F07D1EB
:102BC000826842F006028260826842F020028260DF
:102BD000084602B07047000080B54A780978012A9B
:102BE0004FEA41122AD10244D2F8003947F6000CCC
:102BF000CEF6334C02F51062B3F1FF3F4FF0010EF9
:102C000007DC136843F000631360136843F08043EC
:102C1000136001F00F01D0F83C380EFA01F18B433C
:102C2000C0F83C38D0F81C3823EA0101C0F81C1861
:102C3000106800EA0C010020116080BD831803F5C4
:102C40003062D3F800EB47F60003CEF6334303F1CE
:102C5000707CBEF1FF3F4FF4803EDADCD1E700002C
:102C60000146D0F8000E20F00300C1F8000ED1F8A4
:102C7000040820F002020020C1F804287047000078
:102C80000146D0F8000E20F00300C1F8000ED1F884
:102C9000040840F002020020C1F804287047000038
:102CA0002DE9F04F82B0DDF84880DDE90D4CDDF80C
:102CB0002CE000F580720F25002600BF013D42F890
:102CC000046FFBD1B8F1000F07D0826B22F4001221
:102CD0008263826B42F4002210E0D0F8042842F0B4
:102CE0000202C0F80428826B42F400128263826BF5
:102CF00022F400228263826B22F48022826300220B
:102D0000C0F8002ED0F80028012CC0F8002806D109
:102D1000D0F80028002B18BF42F0010203E0D0F8E1
:102D2000002842F0030240F64055C0F20305C0F807
:102D300000280022009200BF009A01320092009AFF
:102D4000AA4216D80269B2F1FF3FF5DC00220092D8
:102D50004FF48462026100BF009A002301320092A6
:102D6000009AAA4288BF012304D802699206F3D4CC
:102D700000E0012300220192019A01320192019A9E
:102D8000AA4214D80269B2F1FF3FF5DC0022019299
:102D900010220261019A002401320192019AAA4292
:102DA00088BF012404D80269D206F3D400E00124CC
:102DB0004FF00009C0F81098C0F81498C0F81C989B
:102DC00089B300F510664FF67F3A002235684FF060
:102DD0009047002A08BF4FF0006707EAE575013207
:102DE0003560C6F81090C6F808A0914206F120069A
:102DF000ECD100F530664FF0000A4FF67F3B00251E
:102E000037684FF09042002D08BF4FF0006202EA91
:102E1000E77201353260C6F810A0C6F808B0A942C2
:102E200006F12006ECD1D0F81018BEF1000F21F405
:102E30008071C0F810186FF08041C0F8189041619F
:102E400003D1816941F010018161816943F600027B
:102E5000C8F23C021143BCF1000F816103D08169CB
:102E600041F008018161B8F1010F05D1816941F09C
:102E7000804141F00401816143EA040002B0BDE8F1
:102E8000F08F00000146806820F0010200208A6077
:102E900070470000F0B54B7891F800C0012B23D1AA
:102EA0008E6900EB4C1E00254FF6FF74DEF810799A
:102EB000CFF6F875CEF20704002E0EF510633FD062
:102EC0003D401D611D6925401D61CD6804F1005420
:102ED000AE4288BF8D611D6945F400251D618D6975
:102EE0001E692C40344333E000EB4C13D3F8100B35
:102EF0006FF31200C3F8100BD3F8100B6FF3DC4024
:102F0000C3F8100B8F6903F53063002F1CBFCF6827
:102F10008F61CF684FF6FF70CF611E69CEF2070058
:102F200046F400261E6100F100501E69384030430F
:102F3000012A186114D10869002818BF58610FE0F0
:102F40003C401C611C6944F400241C611C692C4039
:102F5000012A1C610BD14869002818BFCEF814095A
:102F60004FF004411868084318600020F0BDDEF8F7
:102F7000002942F00442CEF8002989690029F4D0E2
:102F80000CF00F01012202FA01F100F63403E9E727
:102F9000D0F840C043F20B03C4F654739C4503D3EE
:102FA000D0F8003B002B1ED40023C0F8103BD0F813
:102FB000103B012943F40023C0F8103BD0F8103B2C
:102FC00043F01803C0F8103BD0F8103B43F0C04367
:102FD000C0F8103B07D1C0F8142BD0F8001B41F00B
:102FE0008021C0F8001B0020704700004A780B7851
:102FF000012A4FEA431210440DD1D0F8002922F4DF
:103000000012C0F80029097901F0FE01022913D14C
:1030100000F510600CE0D0F8002B22F40012C0F88C
:10302000002B097901F0FE01022905D100F530607D
:10303000016841F080510160002070470A784B78A8
:103040005101012B084406D1D0F80019002900F5E0
:10305000106106D50AE0D0F8001B002900F53061A8
:1030600004D41AB1086820F080400860086840F471
:10307000001200200A607047F0B54B7891F800C04C
:10308000012B30D1D1F818E000EB4C14D4F81059D2
:10309000BEF1000F04F510634BD06FF312051D61F4
:1030A0001D696FF3DC451D61CD681F690EEB0506D8
:1030B000013EB6FBF5F50026C1F6F87606EAC545F1
:1030C0003D431D6175461E696FF3DF4535431D6144
:1030D0000D79012D38D11D6925F0C0451D611D698F
:1030E00045F000552FE000EB4C13D3F8107B6FF345
:1030F0001207C3F8107BD3F8107B6FF3DC47C3F8DB
:10310000107B8D69CC68002D03F5306363D02F19D7
:10311000013FB7FBF4F7BEB27443CC610026C1F6A1
:10312000F8761D6906EAC7472F436FF3DF441F6136
:1031300058E06FF3DC451D611D6945F400251D61F4
:103140001D696FF312051D61012A15D14A69002A14
:1031500018BFC4F81429097901295BD1D0F80808EF
:10316000D4F80019C0054FF0805058BF4FF0005000
:103170000843C4F800094DE000F510634FEA4C1411
:103180001D5945F004451D510D79012D49D1D0F847
:103190000858E658ED054FF0805558BF4FF00055E0
:1031A0003543E550AAB91FFA8EF292B10B6903219B
:1031B00011FA8EF7BE0800F580504FEA0C3101225B
:1031C000043B012E88BFBA0853F8047F013A0F5020
:1031D000FAD10020F0BD1F696FF3DF4427431F6160
:1031E0004FF400241F69012A47EA04071F6103D135
:1031F0000A69002A18BF5A61097901290AD1D0F851
:1032000008081968C0054FF0805058BF4FF00050B3
:10321000084318604FF00441186808431860002004
:10322000F0BDBEF1000FD4D00CF00F01012202FA64
:1032300001F100F63403EFE781B0002200924A78F2
:103240000978012A4FEA41111BD100F5106042585C
:10325000B2F1FF3F2FDC0A5842F000620A500A58D0
:1032600042F080420A5042F2107200BF009B0133CC
:103270000093009B934221D84358B3F1FF3FF5DD03
:1032800019E000F530604258B2F1FF3F13DC0A58F4
:1032900042F000620A500A5842F080420A5042F25C
:1032A000107200BF009B01330093009B934205D82E
:1032B0004358002BF6D4002001B07047012001B024
:1032C000704700000146806840F0010200208A60DB
:1032D0007047000081B040F64052C0F20302002364
:1032E000009300BF009B01330093009B934215D8CD
:1032F0000369B3F1FF3FF5DC89010023203100931E
:10330000016100BF0099013100910099914205D8F7
:1033100001698906F6D4002001B07047032001B08E
:1033200070470000D0F8080800F0060180074FF051
:10333000020058BF0F20002908BF08467047000050
:10334000406900F001007047D0F81818D0F81C0848
:10335000084080B270470000D0F81818D0F81C0858
:103360000840000C70470000D0F810C8D0F834387E
:1033700001F00F0223FA02F2D20100EB4110D2B2A7
:10338000D0F8080942EA0C010840704700EB4111EF
:10339000D1F8081BD0F814080840704741698069CB
:1033A0000840704780B5930802F003020DD004393D
:1033B0004FF4805C012B98BF012300BF50F80CE054
:1033C000013B41F804EFF9D1043172B14FF480535D
:1033D00050F803C0002300BF2CFA03F0013A01F8B3
:1033E000010B100403F10803F6D1084680BD00006C
:1033F000B0B50446C06820F0C040E06091B101293A
:1034000026D1E068002540F00050E0600120FDF783
:1034100027F86069C00705F1010014D1312D054678
:10342000F4D310E0E068002540F08040E06000BF89
:103430000120FDF715F86069C00705F1010002D011
:10344000312D0546F4D33238B0FA80F04009B0BDD2
:103450000120B0BD0246D0F8000801F07F0120F441
:10346000FE60C2F80008D2F8000840EA011100200E
:10347000C2F8001870470000022A02465CD145F2EB
:103480004030CFF6277043F200530844C0F20C03DB
:10349000984202D24FF4705050E041F64060CFF6AF
:1034A0001B7044F240230844C0F20F03984202D23A
:1034B0004FF4605042E0A1F5740044F68073A0F52B
:1034C0001050C0F21203984202D24FF4505035E02F
:1034D000A1F183704DF22063A0F5E740C0F2130321
:1034E000984202D24FF4405028E04BF26060CFF691
:1034F000E5604EF260330844C0F21603984202D2EF
:103500004FF430501AE04DF20030CFF6CE6047F263
:1035100040730844C0F21B03984202D24FF420507B
:103520000CE045F6C030CFF6B36049F2C013084452
:10353000C0F2210398420AD24FF41050D16821F40E
:103540007051D160D16801430020D1607047A1F172
:10355000B77047F22053A0F55850C0F23803984294
:1035600002D24FF40050E9E745F2E040CFF659604F
:1035700049F6E0430144C0F241034FF4C050994280
:1035800038BF4FF4E050D9E710B5DDF808C0BCF102
:10359000000F14D19BB103F1030C4FEA9C0E00F510
:1035A0008054120301230439BEF1010F88BF4FEA92
:1035B0009C0300BF51F8040F013B1051FAD10020C9
:1035C00010BD0000FEE7000082B0FDF73DF8FEF7F9
:1035D0006FFA002043F630010190C4F202010A683C
:1035E00042F080020A600A6802F080020192019AA9
:1035F0000090086840F001000860086800F00100D1
:1036000000900098FEF718FAFEE7F1EE100A4FF668
:10361000FF71C0F2C03120EA010040F04070E1EEDD
:10362000100A7047000000000000000001020304BF
:10363000060708095836000800000020180100009D
:10364000EC0100087037000818010020681600001F
:103650000C02000800000000391C0008711C000862
:10366000811C0008AD1C0008DD1C0008151C0008AA
:10367000491C000805010902A1010901A100050971
:103680001901290315002501950375018102950192
:103690007505810105010930093109381581257F3A
:1036A000750895038106C0093C05FF090115002531
:1036B0000175019502B12275069501B101C00000A6
:1036C0000024F400120100020000004083042B5784
:1036D0000002010203010000DD1E0008251E000893
:1036E000291F00080000000000000000111E000853
:1036F00000000000000000000000000000000000CA
:103700008D1E0008651E0008B51E0008551E000825
:1037100009022200010100E0320904000001030156
:103720000200092111010001224A0007058103045A
:10373000000A0000092111010001224A00000000D6
:103740000A06000200000040010000000403090412
:103750001A0300000000000000000000000000004C
:103760000000000000000000000001001000000048
:040000050800018965
:00000001FF
