:020000040800F2
:1000000068290020550200086D2A000825290008EB
:10001000692A00084D040008B96A000800000000C1
:10002000000000000000000000000000792E000821
:100030008D05000800000000752E0008092F00083B
:100040006F0200086F0200086F0200086F020008CC
:100050006F0200086F0200086F0200086F020008BC
:100060006F0200086F0200086F0200086F020008AC
:100070006F0200086F0200086F0200086F0200089C
:100080006F0200086F0200086F0200086F0200088C
:100090006F0200086F0200086F0200086F0200087C
:1000A0006F0200086F0200086F0200086F0200086C
:1000B0006F0200086F0200086F0200086F0200085C
:1000C0006F0200086F0200086F0200086F0200084C
:1000D0006F0200086F0200086F0200086F0200083C
:1000E0006F0200086F0200086F0200086F0200082C
:1000F0006F0200086F0200086F0200086F0200081C
:100100006F0200086F0200086F0200086F0200080B
:100110006F0200086F0200086F0200086F020008FB
:100120006F0200086F0200086F0200086F020008EB
:100130006F0200086F0200086F0200086F020008DB
:100140006F0200086F0200086F020008DD2A000835
:100150006F0200086F0200086F0200086F020008BB
:100160006F0200086F0200086F0200086F020008AB
:100170006F0200086F0200086F0200080000000014
:100180006F0200086F02000800F002F800F052F859
:1001900014A696E8000CB244B344DA4501D100F04D
:1001A00049F8BAE80F000FA696E83000A5EB040561
:1001B00004EB0607AAEB0704A7F101074FEA1515A0
:1001C0004FEA3414A4F10104AC4201D300F032F838
:1001D00013F0010F18BFFB1A43F0010300F001F800
:1001E000DBE71847206A0000406A0000103A24BF8D
:1001F00078C878C1FAD8520724BF30C830C144BF8C
:1002000004680C6070470000704700000023002461
:1002100000250026103A28BF78C1FBD8520728BF16
:1002200030C148BF0B6070471FB506F0B5FC1FBD5D
:1002300010B510BD00F0D0F81146FFF7F5FF06F03D
:100240009DFC00F0EEF803B4FFF7F2FF03BC00F0F2
:10025000F5F800000948804709480047FEE7FEE737
:10026000FEE7FEE7FEE7FEE7FEE7FEE7FEE7FEE766
:1002700004480549054A064B70470000C92F00088D
:1002800089010008681D00206829002068230020DB
:100290006823002053EA020C00F069802DE9F04B3E
:1002A0004FF00006002B1FBFB3FA83F503FA05F4E5
:1002B00024FA05F65E4012BF1643B2FA82F502FA3E
:1002C00005F4C5F120051EBF22FA05FC44EA0C0422
:1002D000203556EA044C4FEA144418BF641C4FF012
:1002E00000084FF00009904271EB030C39D300294C
:1002F00019BFB1FA81F701FA07F6B0FA80F700FAF0
:1003000007F6C7F120071EBF20FA07FC46EA0C06D5
:100310002037B6FBF4FCA7EB0507103F07F01F0BD7
:10032000CBF120062CFA06F60CFA0BFB44BFB346C1
:100330000026202FA4BF5E464FF0000B5BEA060CA0
:1003400008BF4FF0010B19EB0B0948EB0608ABFB9C
:10035000027C06FB02CC0BFB03CCC01B71EB0C0137
:10036000C1E70B46024641464846BDE8F08B13B54F
:10037000084318BF4FF0FF300146AFF30080BDE8DF
:100380001C4070474FF0000200B513469446964655
:10039000203922BFA0E80C50A0E80C50B1F1200198
:1003A000BFF4F7AF090728BFA0E80C5048BF0CC046
:1003B0005DF804EB890028BF40F8042B08BF7047A4
:1003C00048BF20F8022B11F0804F18BF00F8012B16
:1003D0007047704770477047754600F02BF8AE467F
:1003E00005006946534620F00700854618B020B541
:1003F000FFF73EFFBDE820404FF000064FF000073A
:100400004FF000084FF0000BAC46ACE8C009ACE878
:10041000C009ACE8C009ACE8C00921F007018D466D
:10042000704710B50446AFF300802046BDE8104089
:10043000FFF709BF00487047F80000200149182065
:10044000ABBEFEE72600020070470000FFE7FEE7B4
:1004500084B08DF80F000291ADF806209DF80F00D2
:100460000146009123281DD80099DFE801F01213FE
:100470001415161B1B1B1B1B1B1B1B1B1B1B1B1BDE
:100480001B1B1B1B1B1B1B1B1B1B1B1B1B1B1718C3
:10049000191A08E007E006E005E004E003E002E0E6
:1004A00001E000E0FFE7002004B070470020704743
:1004B00080B582B041F27C50C2F20000009040F65C
:1004C0007C51C2F200010022019203F021F9009850
:1004D00040F27C51C2F2000103F0FCF8019802B036
:1004E00080BD000080B584B003900291039802990A
:1004F000098800F01BF8039941F27C50C2F2000019
:10050000019003F0E7F8019803F08AF8002004B0A6
:1005100080BD000083B0029001918DF8032000207F
:100520008DF802009DF9020003B0704780B586B0D7
:100530000490ADF80E1000208DF80D0041F27C50B3
:10054000C2F20000D0F8BC0202900298D0F8140267
:1005500020B1FFE701208DF8170013E00499BDF8E2
:100560000E2041F27C50C2F20000019003F0D0F85E
:10057000019803F0D7F98DF80D009DF80D008DF866
:100580001700FFE79DF8170006B080BD7047000018
:1005900081B0EFF3108072B60090FFE7FEE7000035
:1005A00080B584B047F61020C1F6FF700068039054
:1005B00047F61420C1F6FF700068029047F6182035
:1005C000C1F6FF70006801900199039808440390F8
:1005D000039888B1FFE7039840F2D801C2F2000106
:1005E00000910231082202F09FF90099029812311D
:1005F000042202F099F9FFE704B080BD80B584B011
:10060000039000F0F9F902900398019001980130ED
:1006100048B1FFE740F2F200C2F200000178019811
:1006200008440190FFE7FFE700F0E6F90299401A5D
:100630000199884201D2FFE7F6E704B080BD0000CF
:100640008EB00D900C9100200A90099008900B90AC
:10065000FFE70B980F2800F2CC81FFE70B990120F0
:1006600088400A900C9800680A99084009900998F7
:100670000A99884240F0B881FFE70C98406800F082
:100680000300012807D0FFE70C98406800F0030042
:1006900002282FD1FFE70D98806808900B98410041
:1006A000032000FA01F10898884308900C98C0686C
:1006B0000B99490000FA01F108980843089008983E
:1006C0000D9988600D98406808900B99012000FAF8
:1006D00001F10898884308900C984068C0F3001016
:1006E0000B9900FA01F108980843089008980D99B1
:1006F0004860FFE70C98406800F00300032818D01A
:10070000FFE70D98C06808900B984100032000FA9D
:1007100001F10898884308900C9880680B9949006B
:1007200000FA01F108980843089008980D99C860EC
:10073000FFE70C98406800F00300022826D1FFE78D
:100740000D980B996FF0030202EA51010844006A08
:1007500008900B9800F0070081000F2000FA01F1CB
:100760000898884308900C9800690B9901F00701DC
:10077000890000FA01F108980843089008980D993B
:100780000B9B02EA530211440862FFE70D980068D0
:1007900008900B984100032000FA01F10898884363
:1007A00008900C98406800F003000B99490000FA8B
:1007B00001F108980843089008980D9908600C9872
:1007C00080798007002800F00E81FFE7FFE7002016
:1007D000079043F64400C4F20200016841F48041EE
:1007E0000160006800F4804007900798FFE70B98CD
:1007F00020F0030043F60801C4F2010140580890BC
:100800000B9800F0030081000F2000FA01F1089816
:10081000884308900D980021C4F20201884203D158
:10082000FFE7002006905EE00D9840F20041C4F220
:100830000201884203D1FFE70120059050E00D98A6
:1008400040F60001C4F20201884203D1FFE7022012
:10085000049042E00D9840F60041C4F20201884243
:1008600003D1FFE70320039034E00D9841F200012B
:10087000C4F20201884203D1FFE70420029026E07F
:100880000D9841F20041C4F20201884203D1FFE712
:100890000520019018E00D9841F60001C4F2020114
:1008A000884203D1FFE7062000900AE00D9941F647
:1008B0000042C4F202020820914208BF07200090C3
:1008C000FFE700980190FFE701980290FFE7029888
:1008D0000390FFE703980490FFE704980590FFE773
:1008E00005980690FFE70698C0B20B9901F0030146
:1008F000890000FA01F108980843089008980B99BC
:1009000021F0030143F60802C4F20102885043F6C5
:100910000840C4F2010000680890099908988843CB
:1009200008900C988079C006002805D5FFE7099942
:10093000089808430890FFE7089843F60841C4F276
:100940000101086043F60C40C4F201000068089001
:1009500009990898884308900C98807980060028A7
:1009600005D5FFE70999089808430890FFE708981C
:1009700043F60C41C4F20101086043F60440C4F29E
:1009800001000068089009990898884308900C981D
:1009900080798007002805D5FFE709990898084362
:1009A0000890FFE7089843F60441C4F2010108608B
:1009B00043F60040C4F201000068089009990898C5
:1009C000884308900C988079C00728B1FFE70999FF
:1009D000089808430890FFE7089843F60041C4F2DE
:1009E00001010860FFE7FFE7FFE70B9801300B907C
:1009F0002FE60EB07047000041F66450C2F20000CE
:100A00000068704740F2F200C2F20000027841F63E
:100A10006451C2F200010868104408607047000089
:100A200080B543F60041C4F20201086840F400704A
:100A30000860086840F480600860086840F48070CE
:100A40000860032000F08AF80F2000F005F800F09D
:100A50003BF8002080BD000080B582B0009040F2DD
:100A60002000C2F20000006840F2F201C2F2000170
:100A70000A784FF47A71B1FBF2F1B0FBF1F001F0BA
:100A800049FF20B1FFE701208DF8070018E000982A
:100A90000F280DD8FFE700994FF0FF30002200F03B
:100AA00043F8009840F2F401C2F20001086003E04C
:100AB00001208DF8070003E000208DF80700FFE714
:100AC0009DF8070002B080BD82B0FFE700200190D2
:100AD00043F64400C4F20200016841F48041016021
:100AE000006800F4804001900198FFE7FFE70020D4
:100AF000009043F64000C4F20200016841F08051CA
:100B00000160006800F0805000900098FFE702B09C
:100B10007047000080B582B08DF807009DF907008E
:100B200005F0CCFF02B080BD80B586B08DF817000F
:100B3000049103920020029005F0D8FF02909DF9E5
:100B40001700019002980499039A01F091FF014661
:100B5000019805F0D3FF06B080BD000080B582B0DB
:100B60000190019805F0ECFF02B080BD82B00190C9
:100B70008DF8031002B0704782B00190ADF80210FA
:100B8000BDF80200019909684862002002B0704770
:100B900084B003908DF80B10ADF80820039800681E
:100BA000406A00909DF80B0048B9FFE7BDF80810B7
:100BB000009840EA014003990968886233E003988D
:100BC0000068816A009800EB1140009000208DF8C9
:100BD0000700FFE79DF807009DF80B1001398842D8
:100BE00013D2FFE7039800689DF8071000EB81001F
:100BF000D0F80411009800EB11400090FFE79DF839
:100C0000070001308DF80700E4E7BDF808100098F0
:100C100040EA0140039909689DF80B2001EB82012D
:100C2000C1F80001FFE7002004B0704780B582B032
:100C300001900198D0F8080503F00EFD02B080BDC8
:100C400080B582B001908DF80310019AD2F80805A2
:100C50009DF8031001EBC10302EB8302D26C03F099
:100C600057FB02B080BD000080B582B001908DF8C6
:100C70000310019AD2F808059DF8031001EBC10397
:100C800002EB8302D2F88C2203F00CFC02B080BD90
:100C900080B582B001900198D0F8080503F0E2FC1D
:100CA00002B080BD80B584B003908DF80B109DF824
:100CB0000B00000600280CD5FFE703989DF80B10E9
:100CC00001F00F0101EBC10100EB81003C3001900C
:100CD0000CE003989DF80B1001F00F0101EBC1012E
:100CE00000EB810000F51F700190FFE7039800689A
:100CF000019905F00DFB8DF80A009DF80A0004B07B
:100D000080BD000080B584B002908DF807109DF87A
:100D10000700000600280FD5FFE702989DF807108E
:100D200001F00F0101EBC10100EB81003C300090AC
:100D30000099012048700FE002989DF8071001F01B
:100D40000F0101EBC10100EB810000F51F70009065
:100D5000009900204870FFE79DF8070000F00F00A1
:100D600000990870FFE7029890F8BC04012804D1AC
:100D7000FFE702208DF80F0014E00299012081F8AE
:100D8000BC04FFE7FFE702980068009904F0E8FC64
:100D9000FFE70299002081F8BC04FFE700208DF8EE
:100DA0000F00FFE79DF80F0004B080BD80B584B050
:100DB00002908DF807109DF8070000F00F000299CF
:100DC0004968884204D9FFE701208DF80F004DE003
:100DD0009DF80700000600280FD5FFE702989DF850
:100DE000071001F00F0101EBC10100EB81003C3065
:100DF00000900099012048700FE002989DF80710BC
:100E000001F00F0101EBC10100EB810000F51F7043
:100E10000090009900204870FFE70099002088703A
:100E20009DF8070000F00F0000990870FFE7029896
:100E300090F8BC04012804D1FFE702208DF80F00D0
:100E400014E00299012081F8BC04FFE7FFE7029853
:100E50000068009905F004F8FFE70299002081F886
:100E6000BC04FFE700208DF80F00FFE79DF80F009E
:100E700004B080BD82B001908DF8031001989DF8F8
:100E8000031001F00F0101EBC10100EB8100D0F86C
:100E90009C0202B07047000080B586B004908DF8C7
:100EA0000F10ADF80C208DF80B3000208DF80A00E3
:100EB0009DF80F00000600280FD5FFE704989DF865
:100EC0000F1001F00F0101EBC10100EB81003C307C
:100ED00001900199012048700FE004989DF80F10CF
:100EE00001F00F0101EBC10100EB810000F51F7063
:100EF0000190019900204870FFE79DF80F0000F075
:100F00000F0001990870BDF80C000199C8609DF8A8
:100F10000B00019908710198407820B1FFE7019911
:100F200008780881FFE79DF80B00022804D1FFE74D
:100F3000019900204871FFE7FFE7049890F8BC048E
:100F4000012804D1FFE702208DF8170015E004996D
:100F5000012081F8BC04FFE7FFE7049800680199CD
:100F600004F0B8FAFFE70499002081F8BC04FFE719
:100F70009DF80A008DF81700FFE79DF8170006B0EE
:100F800080BD000080B586B005908DF813100392E7
:100F9000029305989DF8131001F00F0101EBC101B8
:100FA00000EB810000F51F70019003980199086122
:100FB000029801998861019900200862019948709E
:100FC0009DF8130000F00F00019908700598006962
:100FD000012804D1FFE7039801994861FFE79DF8D4
:100FE0001300000738B9FFE7059A10680199127CD1
:100FF00004F0EAFD06E0059A10680199127C04F0FD
:10100000D3FFFFE7002006B080BD000080B584B0AC
:1010100002908DF807109DF8070000F00F0002996C
:101020004968884204D9FFE701208DF80F0058E095
:101030009DF80700000600280FD5FFE702989DF8ED
:10104000071001F00F0101EBC10100EB81003C3002
:1010500000900099012048700DE002989DF807105B
:1010600001EBC10100EB810000F51F7000900099B9
:1010700000204870FFE70099012088709DF8070064
:1010800000F00F0000990870FFE7029890F8BC0488
:10109000012804D1FFE702208DF80F0021E002991A
:1010A000012081F8BC04FFE7FFE70298006800997F
:1010B00004F026FF9DF80700000740B9FFE7029AF9
:1010C0001068117C02F2C44204F07AFEFFE7FFE7E9
:1010D0000299002081F8BC04FFE700208DF80F0082
:1010E000FFE79DF80F0004B080BD000080B586B01A
:1010F00005908DF813100392029305989DF8131034
:1011000001F00F0101EBC10100EB81003C300190C7
:10111000039801990861029801998861019900205A
:1011200008620199012048709DF8130000F00F003B
:101130000199087005980069012804D1FFE7039818
:1011400001994861FFE79DF81300000738B9FFE7F0
:10115000059A10680199127C04F036FD06E0059AA4
:1011600010680199127C04F01FFFFFE7002006B011
:1011700080BD000080B58CB00B900B9800680A9081
:101180000A9809900B98006805F004FA002840F0CE
:101190000D84FFE70B98006805F068FA10B9FFE7C7
:1011A00000F004BC0998D0F80808C0F30D200B9992
:1011B000C1F8FC040B98006805F058FA8007002875
:1011C00007D5FFE70B980168486900F00200486105
:1011D000FFE70B98006805F049FAC006002862D5C1
:1011E000FFE70B980168886920F0100088610A9871
:1011F000006A02900B98029901F00F0101EBC10106
:1012000000EB810000F51F700890029800F4F011C7
:101210000220B0EB514F23D1FFE7BDF8080047F69D
:10122000F07108421BD0FFE70A9808990969029AF1
:10123000C2F30A1205F028FA029847F6F07100EAA4
:101240000103089A106900EB13101061029800EA7C
:1012500001020899086A00EB12100862FFE71BE020
:10126000029800F4F0110620B0EB514F12D1FFE7C5
:101270000A980B9901F2C441082205F005FA029878
:1012800047F6F07100EA01020899086A00EB1210B3
:10129000086200E0FFE7FFE70B980168886940F00B
:1012A00010008861FFE70B98006805F0DFF9000384
:1012B000002840F1A680FFE7002004900B9800680A
:1012C00005F082F90690FFE70698002800F0988064
:1012D000FFE79DF81800C007002800F08A80FFE7AC
:1012E0000B9800689DF8101005F0A8F905909DF87E
:1012F0001400C00760B1FFE70998049900EB4111A1
:101300000120C1F8080B0B98049901F035FCFFE7A8
:101310009DF81400000700280CD5FFE709980499F0
:1013200000EB41110820C1F8080B0B98049901F05B
:10133000DDFBFFE79DF81400C006002808D5FFE795
:101340000998049900EB41111020C1F8080BFFE740
:101350009DF81400800700282DD5FFE70A98406902
:101360000006002808D5FFE70999D1F8040840F4E1
:101370008060C1F80408FFE70B98049901EBC101F4
:1013800000EB810000F51F7008900898C0780128D4
:1013900009D1FFE708990020C8700B989DF810103C
:1013A00000F014FBFFE70998049900EB41110220BB
:1013B000C1F8080BFFE79DF814008006002808D547
:1013C000FFE70998049900EB41112020C1F8080BB0
:1013D000FFE79DF815008006002809D5FFE709986A
:1013E000049900EB41114FF40050C1F8080BFFE7DE
:1013F000FFE704980130049006984008069063E7E0
:10140000FFE70B98006805F031F94003002840F130
:10141000C680FFE70B98006805F0C4F8069000202E
:101420000490FFE70698002800F0B880FFE79DF8D9
:101430001800C007002800F0AA80FFE70B9800689A
:101440009DF8101005F0D2F805909DF81400C00723
:1014500000283ED0FFE7049800F00F01012000FAB9
:1014600001F10391039B099AD2F834189943C2F809
:1014700034180999049A01EB4211C1F808090B9834
:10148000006901281FD1FFE70B98049901EBC10106
:1014900000EB81018A6CC86C1044C864049888B958
:1014A000FFE70B98049901EBC10100EB8100406D4F
:1014B00040B9FFE70B99086801F2C442012104F02A
:1014C0007FFCFFE7FFE70B989DF81010FFF7B8FBD4
:1014D000FFE79DF814000007002808D5FFE70998EA
:1014E000049900EB41110820C1F80809FFE79DF8B5
:1014F0001400C006002808D5FFE70998049900EBFE
:1015000041111020C1F80809FFE79DF814004006BA
:10151000002808D5FFE70998049900EB4111402005
:10152000C1F80809FFE79DF814008007002822D5BC
:10153000FFE70A98049904F0C3FF0B98049901EBA4
:10154000C10100EB81003C3008900898C078012868
:1015500009D1FFE708990020C8700B989DF810107A
:1015600000F026FAFFE70998049900EB41110220E8
:10157000C1F80809FFE79DF814000006002805D50A
:10158000FFE70B98049901F0DBFBFFE7FFE7049806
:101590000130049006984008069043E7FFE70B9857
:1015A000006805F063F8C00F00B3FFE70999D1F8B0
:1015B000040820F00100C1F804080B9890F8F40426
:1015C000012808D1FFE70B98002180F8F4140B984C
:1015D000FFF7CCFA03E00B9800F0E2FBFFE70B9873
:1015E0000168486900F000404861FFE70B98006817
:1015F00005F03CF80005002811D5FFE70998D0F860
:101600000808C00720B1FFE70B9800F057FCFFE780
:101610000B980168486900F400604861FFE70B9887
:10162000006805F023F8C004002840F18680FFE739
:101630000999D1F8040820F00100C1F804080B98BA
:101640000068102104F03CFF00200790FFE7079896
:101650000B994968884231D2FFE70998079900EB56
:1016600041114FF67F30C1F808090999079A01EB3B
:101670004212D2F8001921F40011C2F80019099998
:10168000079A01EB4211C1F8080B0998079900EB82
:101690004111D1F8000B20F40010C1F8000B09989B
:1016A000079900EB4111D1F8000B40F00060C1F840
:1016B000000BFFE7079801300790C8E70999D1F8B8
:1016C0001C0840F00110C1F81C080B98006B78B1A1
:1016D000FFE70999D1F8840840F00B00C1F88408AD
:1016E0000999D1F8440840F00B00C1F844080FE014
:1016F0000999D1F8140842F22B021043C1F81408DA
:101700000999D1F8100840F00B00C1F81008FFE764
:101710000999D1F8000820F4FE60C1F800080B9A7E
:101720001068117C02F2C44204F04AFB0B98016875
:10173000486900F480504861FFE70B98006804F0A6
:1017400095FF800400281FD5FFE70B98006803F081
:1017500031FF0B98006804F0F7FE0B99C8600B98F6
:101760000068019000F0FCFC014601980B9A127B86
:1017700005F082F80B9800F0E9FA0B9801684869C7
:1017800000F400504861FFE70B98006804F06EFF1A
:10179000000700280AD5FFE70B9800F00BFB0B9819
:1017A0000168486900F008004861FFE70B9800688D
:1017B00004F05CFF0006002825D5FFE70A99886938
:1017C00020F08000886101200490FFE704980B99C5
:1017D0004968884216D2FFE70B98049901EBC101D2
:1017E00000EB810090F87F02012806D1FFE70B98FB
:1017F0009DF81010FFF756FAFFE7FFE70498013055
:101800000490E3E7FFE70B98006804F02FFFC002A5
:1018100000283ED5FFE701200490FFE704980B99CC
:10182000496888422ED2FFE70998049900EB4110DD
:10183000D0F8000902900B98049901EBC10100EB6C
:10184000810090F84000012817D1FFE79DF80B00B8
:101850000006002811D5FFE70B98049901EBC101A0
:1018600000EB8101012081F83F000B989DF81010DA
:1018700041F08001FFF716FAFFE7FFE70498013017
:101880000490CBE70B980168486900F48010486128
:10189000FFE70B98006804F0E9FE8002002855D5A8
:1018A000FFE701200490FFE704980B9949688842FC
:1018B00045D2FFE70998049900EB4110D0F8000BDE
:1018C00002900B98049901EBC10100EB810090F8A4
:1018D000800201282ED1FFE79DF80B0000060028AA
:1018E00028D5FFE7029800F480300B99D1F8FC145A
:1018F00001F0010188421DD1FFE70B98049901EB2B
:10190000C10100EB8101012081F87F020A998869F9
:1019100040F0800088610A9840690006002808D4D9
:10192000FFE70999D1F8040840F40070C1F80408F1
:1019300005E0FFE7FFE7049801300490B4E70B9857
:101940000168486900F400104861FFE70B980068DF
:1019500004F08CFE400000280AD5FFE70B98FFF743
:1019600065F90B980168486900F080404861FFE71D
:101970000B98006804F07AFE4007002815D5FFE7B1
:101980000B980068406802909DF808004007002806
:1019900004D5FFE70B98FFF77BF9FFE7029A0B9856
:1019A0000168486810434860FFE7FFE70CB080BD5E
:1019B00080B582B001908DF803100198D0F8080529
:1019C0009DF8031002F0EAFE02B080BD80B582B03F
:1019D00001908DF803100198D0F808059DF80310C8
:1019E00002F014FF02B080BD2DE9F04F97B01590C2
:1019F000159820B9FFE701208DF85B0049E11598A3
:101A000000681490159890F8BD0440B9FFE7159947
:101A1000002081F8BC04159800F040F9FFE7159903
:101A2000032081F8BD041498C06BC005002804D4BD
:101A3000FFE7159900200861FFE71598006804F09A
:101A4000B9F8159810900168119141688268C368CF
:101A5000D0F810C044698569C669076AD0F8248047
:101A6000D0F82890D0F82CA0D0F830B0D0F834E0DE
:101A700068461290C0F824E01198DDF848E0CEF8EE
:101A800020B0CEF81CA0CEF81890CEF81480CEF876
:101A90001070CEF80C60CEF80850CEF80440CEF8A6
:101AA00000C003F09DFD40B1FFE71599022081F8C9
:101AB000BD0401208DF85B00EBE015980068002163
:101AC0000F9104F03BFE0F988DF84F00FFE79DF853
:101AD0004F0015994968884245D2FFE715989DF84F
:101AE0004F1001EBC10100EB8101012081F83D00A5
:101AF0009DF84F00159900EBC00201EB820181F8BF
:101B00003C009DF84F00159900EBC00201EB8201EB
:101B1000A1F8440015989DF84F1001EBC10100EBAE
:101B20008101002081F8400015999DF84F2002EBBB
:101B3000C20201EB8201886415999DF84F2002EBE7
:101B4000C20201EB8201C86415999DF84F2002EB97
:101B5000C20201EB82014865FFE79DF84F000130AA
:101B60008DF84F00B3E700208DF84F00FFE79DF898
:101B70004F001599496888423ED2FFE715989DF8B5
:101B80004F1001EBC10100EB8101002081F87D02C3
:101B90009DF84F10159A01EBC10302EB830282F806
:101BA0007C1215999DF84F2002EBC20201EB8201D5
:101BB00081F8800215999DF84F2002EBC20201EBDB
:101BC0008201C1F8880215999DF84F2002EBC202EC
:101BD00001EB8201C1F88C0215999DF84F2002EBB0
:101BE000C20201EB8201C1F89402FFE79DF84F00A9
:101BF00001308DF84F00BAE715980C9001680D91EF
:101C000041688268C368D0F810C044698569C669B4
:101C1000076AD0F82480D0F82890D0F82CA0D0F80B
:101C200030B0D0F834E068460E90C0F824E00D984B
:101C3000DDF838E0CEF820B0CEF81CA0CEF8189031
:101C4000CEF81480CEF81070CEF80C60CEF80850A4
:101C5000CEF80440CEF800C003F04AFE40B1FFE7E2
:101C60001599022081F8BD0401208DF85B0010E079
:101C7000159900200B9081F838001599012081F802
:101C8000BD041598006803F01DFE0B988DF85B00ED
:101C9000FFE79DF85B0017B0BDE8F08F80B58AB014
:101CA00009900020089007900690059004900998EC
:101CB0000068B0F1A04F47D1FFE7FFE70020039095
:101CC00043F63000C4F20200016841F001010160F6
:101CD000006800F0010003900398FFE74FF4C05044
:101CE00004900220059000200690032007900A200F
:101CF00008900020C4F2020004A9FEF7A1FCFFE74F
:101D000043F63401C4F20201086840F08000086024
:101D1000FFE70020029043F64400C4F2020001688D
:101D200041F480410160006800F480400290029814
:101D3000FFE7FFE74320019000221146FEF7F4FE83
:101D40000198FEF7E7FEFFE70AB080BD80B582B0DC
:101D5000019001208DF803000198C06820B9FFE7C9
:101D600000208DF803000CE00198C068022804D11F
:101D7000FFE701208DF8030002E0FEF709FCFFE712
:101D8000FFE70198D0F808059DF8031002F03EFE29
:101D90000198D0F8080502F0B9FD02B080BD00003E
:101DA00080B582B001900198D0F8080502F0FCFDE2
:101DB00002B080BD80B582B001900198D0F80805CE
:101DC00002F004FE02B080BD80B584B002908DF8B0
:101DD0000710FFE7029890F8BC04012804D1FFE740
:101DE00002208DF80F001AE00299012081F8BC044E
:101DF000FFE7FFE79DF80700029981F83800029895
:101E000000689DF8071004F009FDFFE70299002023
:101E100081F8BC04FFE700208DF80F00FFE79DF874
:101E20000F0004B080BD000080B582B00190019920
:101E3000D1F8080501F2C44102F012FE02B080BDE3
:101E400080B584B00290029800680190FFE7029884
:101E500090F8BC04012804D1FFE702208DF80F00A0
:101E600027E00299012081F8BC04FFE7FFE7029810
:101E7000806A01280BD1FFE702988069012806D00B
:101E8000FFE70199886B40F480308863FFE7029890
:101E9000006804F0CBFA0298006803F0FDFCFFE74D
:101EA0000299002081F8BC04FFE700208DF80F00A4
:101EB000FFE79DF80F0004B080BD000080B582B040
:101EC00001900198D0F8080502F04CFE01980168D5
:101ED000D1F8000E40F00100C1F8000E0198006A30
:101EE00048B1FFE74EF61051CEF20001086840F00D
:101EF00006000860FFE702B080BD000080B584B036
:101F000002900191029820B9FFE701208DF80F009F
:101F100021E1019843F60041C4F20201096801F091
:101F20000701884212D9FFE7019943F60040C4F245
:101F300002000170006800F007000199884204D097
:101F4000FFE701208DF80F0005E1FFE70298007818
:101F5000800700282AD5FFE702980078400700286C
:101F600009D5FFE743F60801C4F20201086840F40E
:101F7000E0500860FFE7029800780007002809D5C4
:101F8000FFE743F60801C4F20201086840F460402C
:101F90000860FFE743F60801C4F20201086820F078
:101FA000F000029A926810430860FFE702980078F8
:101FB000C00700286ED0FFE702984068012811D1C1
:101FC000FFE743F60000C4F20200006800F40031AD
:101FD0000020B0EB514F04D1FFE701208DF80F0036
:101FE000B9E02CE002984068022805D0FFE702988B
:101FF0004068032811D1FFE743F60000C4F2020055
:10200000006800F000710020B0EB516F04D1FFE7D1
:1020100001208DF80F009EE010E043F60000C4F2AE
:102020000200006800F002010020B0EB510F04D163
:10203000FFE701208DF80F008DE0FFE7FFE743F693
:102040000801C4F20201086820F00300029A5268F5
:1020500010430860FEF7D0FC0090FFE743F608004D
:10206000C4F20200006800F00C0002994968B0EB6D
:10207000810F0ED0FFE7FEF7BFFC0099401A41F236
:102080008931884204D3FFE703208DF80F0062E016
:10209000E4E7FFE7019843F60041C4F20201096852
:1020A00001F00701884212D2FFE7019943F6004090
:1020B000C4F202000170006800F007000199884234
:1020C00004D0FFE701208DF80F0044E0FFE70298FD
:1020D0000078400700280CD5FFE743F60801C4F25A
:1020E0000201086820F4E050029AD26810430860A8
:1020F000FFE702980078000700280DD5FFE743F6B8
:102100000801C4F20201086820F46040029A1269D2
:1021100040EAC2000860FFE700F028F843F6080133
:10212000C4F202010968C9B20A0946F6B231C0F622
:102130000001895CC84040F22001C2F20001086041
:1021400040F2F400C2F200000068FEF785FC0020B7
:102150008DF80F00FFE79DF80F0004B080BD000070
:1021600040F22000C2F200000068704780B586B0DF
:102170000020059004900390029043F60800C4F2FA
:102180000200006800F00C000146019140B1FFE739
:10219000019804280AD0FFE7019808280CD04FE0E6
:1021A00042F20040C0F2F40002904FE041F2002001
:1021B000C0F27A00029049E043F60400C4F2020043
:1021C000016801F03F01059100684002002813D525
:1021D000FFE743F60400C4F202000068C0F3881071
:1021E00041F20021C0F27A01A0FB0101059A00230F
:1021F000FEF750F8049012E043F60400C4F2020027
:102200000068C0F3881042F20041C0F2F401A0FB64
:102210000101059A0023FEF73DF80490FFE743F61D
:102220000400C4F20200006800F44031022000EB18
:10223000D130039004980399B0FBF1F0029005E0CF
:1022400042F20040C0F2F4000290FFE7029806B0AC
:1022500080BD000080B586B00490049820B9FFE7E7
:1022600001208DF8170050E304980078C00700287B
:1022700000F0A580FFE743F60800C4F20200006802
:1022800000F00C00042813D0FFE743F60800C4F266
:102290000200006800F00C0008281ED1FFE743F69A
:1022A0000400C4F2020000684002002815D5FFE7D0
:1022B00043F60000C4F20200006800F40031002080
:1022C000B0EB514F08D0FFE70498406820B9FFE712
:1022D00001208DF8170018E370E0FFE704984068CC
:1022E000B0F5803F09D1FFE743F60001C4F20201D7
:1022F000086840F48030086020E004984068B0F539
:10230000A02F0DD1FFE743F60001C4F202010868D7
:1023100040F480200860086840F4803008600CE0D9
:1023200043F60001C4F20201086820F4803008601E
:10233000086820F480200860FFE7FFE7FFE70498C3
:102340004068E8B1FFE7FEF757FB0390FFE743F66D
:102350000000C4F20200006800F400310020B0EB7D
:10236000514F0CD1FFE7FEF747FB0399401A652850
:1023700004D3FFE703208DF81700C6E2E7E71CE06F
:10238000FEF73AFB0390FFE743F60000C4F20200B9
:10239000006800F400310020B0EB514F0CD0FFE793
:1023A000FEF72AFB0399401A652804D3FFE70320B0
:1023B0008DF81700A9E2E7E7FFE7FFE7FFE70498DA
:1023C00000788007002840F19680FFE743F6080078
:1023D000C4F20200006810F00C0F13D0FFE743F6C0
:1023E0000800C4F20200006800F00C0008282CD19C
:1023F000FFE743F60400C4F2020000684002002830
:1024000023D4FFE743F60000C4F20200006800F0A6
:1024100002010020B0EB510F09D0FFE70498C0681B
:10242000012804D0FFE701208DF817006DE243F684
:102430000001C4F20201086820F0F800049A126951
:1024400040EAC2000860FFE754E00498C06870B337
:10245000FFE70021C4F2472101200860FEF7CCFA13
:102460000390FFE743F60000C4F20200006800F0AA
:1024700002010020B0EB510F0CD1FFE7FEF7BCFAD0
:102480000399401A032804D3FFE703208DF81700AF
:102490003BE2E7E743F60001C4F20201086820F0DE
:1024A000F800049A126940EAC200086021E00021A5
:1024B000C4F2472100200860FEF79EFA0390FFE770
:1024C00043F60000C4F20200006800F002010020A0
:1024D000B0EB510F0CD0FFE7FEF78EFA0399401ACC
:1024E000032804D3FFE703208DF817000DE2E7E788
:1024F000FFE7FFE7FFE704980078000700284BD5C7
:10250000FFE70498406918B3FFE740F68061C4F222
:10251000472101200860FEF76FFA0390FFE743F6BA
:102520007400C4F20200006800F002010020B0EB69
:10253000510F0CD1FFE7FEF75FFA0399401A032809
:1025400004D3FFE703208DF81700DEE1E7E722E080
:1025500040F68061C4F2472100200860FEF74CFA83
:102560000390FFE743F67400C4F20200006800F035
:1025700002010020B0EB510F0CD0FFE7FEF73CFA50
:102580000399401A032804D3FFE703208DF81700AE
:10259000BBE1E7E7FFE7FFE7049800784007002882
:1025A00040F1CE80FFE700208DF8070043F64000A1
:1025B000C4F202000068C000002815D4FFE7FFE75E
:1025C0000020009043F64000C4F20200016841F090
:1025D00080510160006800F0805000900098FFE793
:1025E00001208DF80700FFE747F20000C4F2000069
:1025F0000068C005002822D4FFE747F20001C4F2BA
:102600000001086840F480700860FEF7F5F9039057
:10261000FFE747F20000C4F200000068C005002890
:102620000CD4FFE7FEF7E8F90399401A032804D316
:10263000FFE703208DF8170067E1EAE7FFE7FFE710
:1026400004988068012809D1FFE743F67001C4F2BD
:102650000201086840F0010008601FE004988068EB
:1026600005280DD1FFE743F67001C4F202010868A6
:1026700040F004000860086840F0010008600CE0C9
:1026800043F67001C4F20201086820F001000860FE
:10269000086820F004000860FFE7FFE7FFE7049800
:1026A0008068F8B1FFE7FEF7A7F90390FFE743F66C
:1026B0007000C4F20200006800F002010020B0EBDC
:1026C000510F0ED1FFE7FEF797F90399401A41F237
:1026D0008931884204D3FFE703208DF8170014E105
:1026E000E5E71EE0FEF788F90390FFE743F6700088
:1026F000C4F20200006800F002010020B0EB510FAC
:102700000ED0FFE7FEF778F90399401A41F28931BC
:10271000884204D3FFE703208DF81700F5E0E5E7D2
:10272000FFE79DF80700012809D1FFE743F64001C4
:10273000C4F20201086820F080500860FFE7FFE75C
:1027400004988069002800F0DC80FFE743F6080069
:10275000C4F20200006800F00C00082800F0858038
:10276000FFE70498806902285CD1FFE76021C4F28A
:10277000472100200860FEF73FF90390FFE743F68A
:102780000000C4F20200006800F000710020B0EB0D
:10279000516F0CD0FFE7FEF72FF90399401A032879
:1027A00004D3FFE703208DF81700AEE0E7E70499B4
:1027B000C869D1F820C04B6A8A6A40EA0C0040EA36
:1027C0008310D2034FF6FF739A43A2F58032104371
:1027D000C96A40EA016043F60401C4F202010860DC
:1027E0006021C4F2472101200860FEF705F903903B
:1027F000FFE743F60000C4F20200006800F0007139
:102800000020B0EB516F0CD1FFE7FEF7F5F803990C
:10281000401A032804D3FFE703208DF8170074E063
:10282000E7E721E06021C4F2472100200860FEF7BD
:10283000E3F80390FFE743F60000C4F202000068EB
:1028400000F000710020B0EB516F0CD0FFE7FEF7F5
:10285000D3F80399401A032804D3FFE703208DF827
:10286000170052E0E7E7FFE74AE004988069012893
:1028700004D1FFE701208DF8170046E043F604007D
:10288000C4F202000068029004988069012831D0E7
:10289000FFE7029800F480000499C969884229D1B1
:1028A000FFE7029800F03F000499096A884221D1AD
:1028B000FFE7029847F6C07108400499496AB0EBF7
:1028C000811F17D1FFE7029800F440300499896A0C
:1028D000C9034FF6FF729143A1F58031884209D1B7
:1028E000FFE7029800F070600499C96AB0EB016FCD
:1028F00004D0FFE701208DF8170006E0FFE7FFE7AF
:10290000FFE700208DF81700FFE79DF8170006B0DD
:1029100080BD000080B582B00190019800F0CAFA35
:1029200002B080BDFFE7FEE783B0029001918DF811
:10293000032000208DF802008DF80200FFE79DF8CB
:1029400002009DF80310884229DAFFE70298000F81
:10295000092809D8FFE70298000F303001999DF847
:10296000022001F8120009E00299372000EB1170F3
:1029700001999DF8022001F81200FFE7029800017A
:10298000029001989DF8021000EB41010020487070
:10299000FFE79DF8020001308DF80200CFE703B099
:1029A0007047000082B0FFE70020019043F630003E
:1029B000C4F20200016841F080010160006800F08B
:1029C000800001900198FFE7FFE70020009043F6A8
:1029D0003000C4F20200016841F0010101600068AA
:1029E00000F0010000900098FFE702B0704700007F
:1029F00080B541F27C50C2F2000040F20401C2F204
:102A00000001002201F012FC18B1FFE7FDF7C0FD44
:102A1000FFE741F27C50C2F2000040F22401C2F212
:102A2000000102F003F918B1FFE7FDF7B1FDFFE780
:102A300041F27C50C2F2000040F2C001C2F200013B
:102A400000F02EFE18B1FFE7FDF7A2FDFFE741F20F
:102A50007C50C2F2000002F073FA18B1FFE7FDF7F4
:102A600097FDFFE780BD0000FFE7FEE7FFE7FEE719
:102A700088B0079006910592079800F0070004902F
:102A80000498C0F10700052803D3FFE70420019054
:102A900004E00498C0F107000190FFE7019803905B
:102AA00004980430062803D8FFE70020009003E0D4
:102AB000049803380090FFE7009802900698039965
:102AC000012202FA01F101390840029B9840059960
:102AD0009A40013A1140084308B0704780B541F66A
:102AE0005800C2F20000FEF745FB80BD80B586B0FD
:102AF000059004910598006803900398029003984C
:102B0000006C01900298049900EB4110D0F8080B7A
:102B10000090019843F20B01C4F6547188420FD320
:102B2000FFE79DF801000006002809D5FFE702989D
:102B3000049900EB41114FF40040C1F8080BFFE786
:102B40000598FFF771F9019843F20B01C4F654712F
:102B500088420DD3FFE705980069012808D1FFE7F7
:102B60000599086801F2C442012103F029F9FFE741
:102B7000002006B080BD000080B588B007900691A7
:102B8000079800680490049803900498006C0290E1
:102B90000398069900EB4110D0F8080B01900798B4
:102BA0000069012840F08180FFE79DF804000007DC
:102BB000002818D5FFE7029843F20B01C4F65471C0
:102BC00088420FD3FFE79DF805000006002809D5CD
:102BD000FFE70398069900EB41114FF40040C1F85C
:102BE000080BFFE760E09DF804008006002808D588
:102BF000FFE70398069900EB41112020C1F8080B6C
:102C000051E09DF8040010F0280F4AD1FFE7029828
:102C100043F20B01C4F6547188420FD3FFE79DF8CD
:102C200005000006002809D5FFE70398069900EB88
:102C300041114FF40040C1F8080B31E007980699A4
:102C400001EBC10100EB810000F51F7005900598B4
:102C5000C0690399069A01EB4211D1F8101B6FF37A
:102C6000DF41401A05990862069898B9FFE7059870
:102C7000806940B9FFE70799086801F2C442012161
:102C800003F09EF805E0059908690A6A1044086196
:102C9000FFE7FFE707989DF81810FDF7E5FFFFE74E
:102CA00000E0FFE7FFE7FFE747E0029843F20A1181
:102CB000C4F65471884224D1FFE79DF80500000650
:102CC000002809D5FFE70398069900EB41114FF45E
:102CD0000040C1F8080B13E09DF8040080060028AE
:102CE00008D5FFE70398069900EB41112020C1F8B1
:102CF000080BFFE707989DF81810FDF7B5FFFFE7F1
:102D00001AE0069890B9FFE70798069901EBC10110
:102D100000EB8100D0F8940240B9FFE707990868FA
:102D200001F2C442002103F04BF8FFE707989DF839
:102D30001810FDF799FFFFE7FFE7002008B080BDFE
:102D400080B58CB00A9009910A980068089008989C
:102D500007900A98099901EBC10100EB81003C3012
:102D6000069006988169006A884204D9FFE701202D
:102D70008DF82F0079E006998869096A401A059054
:102D800005980699C968884204D9FFE70698C06883
:102D90000590FFE70598033080080490FFE7079847
:102DA000099900EB4110D0F8180981B2049A00206B
:102DB000914202900FD3FFE706988269016A0020D2
:102DC0009142029007D2FFE706988069002818BF59
:102DD00001200290FFE70298C00770B3FFE7069951
:102DE0008869096A401A059005980699C968884259
:102DF00004D9FFE70698C0680590FFE705980330FF
:102E0000800804900898069909699DF82420BDF867
:102E10001430DDF828C09CF810C0EE46CEF800C093
:102E200003F008FE059A0699086910440861059A9E
:102E30000699086A10440862B1E706998869096A28
:102E400088420ED8FFE7099800F00F010120884062
:102E50000390039A0799D1F834089043C1F83408D5
:102E6000FFE700208DF82F00FFE79DF82F000CB042
:102E700080BD0000704700007047000084B00390E0
:102E80000398009000980078ADF808000098013091
:102E9000009000980078ADF80600BDF80610BDF867
:102EA000080040EA0120ADF80A00BDF80A0004B0AD
:102EB0007047000080B582B0009000980138B0F1F2
:102EC000807F03D3FFE70120019019E000980138CB
:102ED0004EF21401CEF2000108604FF0FF300F21D6
:102EE00003F00CFE4EF21801CEF200010020086043
:102EF0004EF21002CEF20002072111600190FFE7AE
:102F0000019802B080BD000080B5FDF77BFD80BD5B
:102F100080B594B008A83021FDF734FA002007905E
:102F20000690059004900390FFE70020029043F67E
:102F30004000C4F20200016841F080510160006865
:102F400000F0805002900298FFE7FFE70020019018
:102F500047F20000C4F20000016841F480410160C2
:102F6000006800F4804001900198FFE7012008907C
:102F70004FF48030099002200E904FF480010F91A1
:102F8000042110914821119112900320139008A858
:102F9000FFF760F918B1FFE7FDF7FAFAFFE70F2036
:102FA000039002210491002005904FF48052069274
:102FB000079003A8FEF7A2FF18B1FFE7FDF7E8FAB4
:102FC000FFE714B080BD00004EF68851CEF200013C
:102FD000086840F4700008607047000080B586B053
:102FE00004908DF80F100498D0F8C802019004984E
:102FF000D0F8D41200EB8100D0F8C00220B9FFE76E
:1030000003208DF817005FE00498D0F8D41200EB8D
:103010008100D0F8C002029004989DF80F1001F0D2
:103020000F0101EB810100EB8100806940B3FFE7F4
:1030300004989DF80F1001F00F0101EB810200EBE5
:1030400082008269019801EBC10100EB8100816C73
:10305000B2FBF1F000FB112090B9FFE704989DF856
:103060000F1001F00F0101EB810100EB8100002343
:10307000836104989DF80F101A4601F083FD1FE04C
:1030800002990020C1F814020498D0F8D41200EB81
:103090008100D0F8C402006988B1FFE70498D0F835
:1030A000D41200EB8100D0F8C40203690299D1F870
:1030B000080201F504719DF80F209847FFE7FFE72C
:1030C00000208DF81700FFE79DF8170006B080BDBF
:1030D00080B584B002908DF807100298D0F8D41211
:1030E00000EB8100D0F8C00200900298D0F8D41212
:1030F00000EB8100D0F8C00220B9FFE703208DF873
:103100000F0019E002989DF8071001F0CBFA009922
:10311000C1F80C020298D0F8D41200EB8100D0F86C
:10312000C402C2680099D1F8040201F50371904706
:1031300000208DF80F00FFE79DF80F0004B080BD60
:1031400080B586B005908DF81310059840F2010106
:10315000C2F200010091097801F0BCF800990598CD
:10316000097801F00F0101EB810100EB81010020E2
:1031700003908884059840F20201C2F20001019197
:10318000097801F0A7F8019A03980599127802F0DE
:103190000F0202EB820201EB8201A1F864010598A3
:1031A00040F20001C2F200010291097801F092F8A8
:1031B000029A03980599137803F00F0303EB830336
:1031C00001EB830188840599127802F00F0202EB6B
:1031D000820201EB8201C8840598D0F8D41200EB7A
:1031E0008100D0F8C002F0B1FFE70598D0F8D41202
:1031F00000EB8100D0F8C402406880470598D0F801
:10320000D41200EB8100D0F8C00202F057F9059803
:10321000D0F8D41200EB81010020C1F8C00205995A
:10322000C1F8BC02FFE7002006B080BD80B584B0C5
:1032300002900298D0F8D41200EB8100D0F8C002BE
:103240000190019820B9FFE703208DF80F0025E0D9
:103250000298D0F8D41200EB8100D0F8C402C8B1B3
:10326000FFE7019890F80002FF2813D0FFE70298CB
:10327000D0F8D41200EB8100D0F8C4028368019921
:1032800091F8000291F8012298470199FF2081F8F6
:103290000002FFE700208DF80F00FFE79DF80F0008
:1032A00004B080BD81B0009000990A20088040F2EF
:1032B000A000C2F2000001B07047000080B586B0E7
:1032C000059040F25C00C2F200000190822100F003
:1032D0009BFE014601980491012100F095FE0146F4
:1032E00001980391812100F08FFE0290049820B193
:1032F000FFE7049910208871FFE7039820B1FFE7EA
:10330000039940208880FFE7029820B1FFE70299E7
:1033100040208880FFE705994320088040F25C0048
:10332000C2F2000006B080BD80B586B0059040F2C4
:103330005C00C2F200000190822100F065FE0146AF
:1033400001980491012100F05FFE0146019803916C
:10335000812100F059FE0290049820B1FFE7049902
:1033600010208871FFE7039828B1FFE703994FF415
:1033700000708880FFE7029828B1FFE702994FF4B8
:1033800000708880FFE705994320088040F25C00C8
:10339000C2F2000006B080BD80B586B0059040F254
:1033A0005C00C2F200000190822100F02DFE014677
:1033B00001980491012100F027FE01460198039134
:1033C000812100F021FE0290049820B1FFE70499CA
:1033D00010208871FFE7039820B1FFE70399402090
:1033E0008880FFE7029820B1FFE70299402088809B
:1033F000FFE705994320088040F25C00C2F200001C
:1034000006B080BD80B590B00E908DF837104FF4A7
:10341000077002F057F80C900C9860B9FFE70E980F
:10342000D0F8D41200EB81010020C1F8C0020220C4
:103430008DF83F00F0E00C984FF40771FCF7A2FF05
:103440000C980E99D1F8D42201EB8201C1F8C00288
:103450000E99D1F8D40201EB8000D0F8C002C1F877
:10346000BC020E98007C002840D1FFE70E9840F285
:103470000101C2F2000107910978022208924FF47B
:103480000073099301F0FAF90799089A099B0E98BD
:10349000097801F00F0101EB810100EB81010120AE
:1034A0000B9088840E9840F20201C2F200010A914A
:1034B000097801F0E3F90A9A0B980E99127802F054
:1034C0000F0202EB820201EB8201A1F864010E9867
:1034D00040F20001C2F20001097801F00F0101EB96
:1034E000810100EB81011020C8843EE00E9840F27B
:1034F0000101C2F2000102910978022203924023E5
:10350000049301F0BBF90299039A049B0E98097881
:1035100001F00F0101EB810100EB81010120069018
:1035200088840E9840F20201C2F2000105910978E8
:1035300001F0A4F9059A06980E99127802F00F028C
:1035400002EB820201EB8201A1F864010E9840F2C5
:103550000001C2F20001097801F00F0101EB8101C5
:1035600000EB81011020C884FFE70E9840F20001B3
:10357000C2F20001009109780322082301F07EF9CC
:1035800000990E98097801F00F0101EB810100EB21
:103590008101012088840C9900200190C1F8040267
:1035A0000E98D0F8D41200EB8100D0F8C402006865
:1035B000804701980C99C1F814020C99C1F81802BF
:1035C0000C98D0F8040220B9FFE702208DF83F00E4
:1035D00022E00E98007C70B9FFE70E9840F20201DD
:1035E000C2F2000109780C9AD2F804224FF4007359
:1035F00001F06AF90CE00E9840F20201C2F20001FB
:1036000009780C9AD2F80422402301F05DF9FFE713
:1036100000208DF83F00FFE79DF83F0010B080BD0F
:1036200080B584B002900298D0F8D41200EB8100EB
:10363000D0F8C00201900298D0F8D41200EB8100BB
:10364000D0F8C00220B9FFE703208DF80F0022E078
:103650000298007C70B9FFE7029840F20201C2F2C2
:1036600000010978019AD2F804224FF4007301F0A6
:103670002BF90CE0029840F20201C2F20001097835
:10368000019AD2F80422402301F01EF9FFE700203E
:103690008DF80F00FFE79DF80F0004B080BD00001B
:1036A00083B001900091009820B9FFE703208DF8C6
:1036B0000B000BE000980199D1F8D42201EB8201B4
:1036C000C1F8C40200208DF80B00FFE79DF80B0045
:1036D00003B0704784B0029001910298D0F8D412E0
:1036E00000EB8100D0F8C0020090009820B9FFE7FD
:1036F00003208DF80F0007E001980099C1F804023B
:1037000000208DF80F00FFE79DF80F0004B0704710
:1037100085B00390029101920398D0F8D41200EB87
:103720008100D0F8C0020090009820B9FFE7032084
:103730008DF813000BE002980099C1F80802019877
:103740000099C1F8100200208DF81300FFE79DF8E2
:10375000130005B07047000080B58AB0089007914B
:103760000898D0F8D41200EB8100D0F8C00206907F
:1037700000208DF81500ADF812008DF811000698A4
:1037800020B9FFE703208DF82700C7E007980078ED
:1037900000F060000146039100285ED0FFE7039827
:1037A000202840F0AE80FFE70798C088002846D068
:1037B000FFE7079800780006002823D5FFE7089860
:1037C000D0F8D41200EB8100D0F8C4028368079AC5
:1037D00050780699D28898470798C088082803D35C
:1037E000FFE70720029003E00798C0880290FFE7F8
:1037F0000298ADF8160008980699BDF8162000F05A
:1038000081F91BE007984078069981F80002079833
:10381000C0883F2804D8FFE70798C088019002E0DD
:1038200040200190FFE70198069981F8010208986D
:10383000069991F8012200F037F9FFE70CE00898AB
:10384000D0F8D41200EB8100D0F8C4028368079945
:10385000487800229847FFE75BE0079840780146E8
:1038600000910B2844D80099DFE801F0064142425C
:103870004242424242421C32089890F89C0203287D
:1038800007D1FFE708980DF11201022200F03AF982
:1038900007E00898079900F0F9F803208DF8110067
:1038A000FFE72DE0089890F89C02032807D1FFE776
:1038B00008980DF11501012200F024F907E008989D
:1038C000079900F0E3F803208DF81100FFE717E0F7
:1038D000089890F89C02032808D0FFE708980799F9
:1038E00000F0D4F803208DF81100FFE708E007E0AE
:1038F0000898079900F0CAF803208DF81100FFE737
:1039000007E00898079900F0C1F803208DF811002E
:10391000FFE79DF811008DF82700FFE79DF82700CD
:103920000AB080BD80B584B002900298D0F8D4125D
:1039300000EB8100D0F8C002019001208DF8030057
:103940000298D0F8D41200EB8100D0F8C00220B960
:10395000FFE703208DF80F002AE00198D0F8140249
:1039600008BBFFE701990120C1F814020198D0F8C3
:103970001002029A40F20101C2F200010B7803F03A
:103980000F0303EB830302EB830290610298097833
:10399000019BD3F80822D3F8103201F0F3F800208D
:1039A0008DF80300FFE79DF803008DF80F00FFE797
:1039B0009DF80F0004B080BD80B582B001908DF8F5
:1039C000031000208DF802000198D0F8B8124A6860
:1039D0009DF80310904720B1FFE703208DF8020007
:1039E000FFE79DF8020002B080BD000080B582B004
:1039F00001900091019890F89C02013802280ED89D
:103A0000FFE700984088012808D1FFE701990020CE
:103A1000C1F8A402019800F08FF8FFE704E00198D4
:103A2000009900F033F8FFE702B080BD82B001904A
:103A30008DF80310002002B07047000082B00190A2
:103A40008DF80310002002B07047000080B584B0EC
:103A50000390029101920398029A019B0021009128
:103A600000F032FF009804B080BD000080B584B043
:103A70000390029101920398029A019B0021009108
:103A800001F080F8009804B080BD000080B582B0DD
:103A9000019000910198802101F02CF801980021FB
:103AA00001F028F802B080BD80B584B00390029187
:103AB000019203990320C1F8940201980399C1F877
:103AC000580101980399C1F85C010398029A019B7F
:103AD0000021009100F0F8FE009804B080BD0000C5
:103AE00080B582B0019001990520C1F89402019837
:103AF0000023009319461A4600F0E6FE009802B033
:103B000080BD000080B584B00390029101920399BA
:103B10000220C1F8940201980399886101980399E1
:103B2000C8610398029A019B0021009101F02AF8D4
:103B3000009804B080BD000080B582B0019001996A
:103B40000420C1F8940201980023009319461A46F4
:103B500001F018F8009802B080BD000080B582B076
:103B60008DF8070000919DF8070060B9FFE7009A03
:103B700046F6D030C0F6000040F25C11C2F20001FF
:103B800000F0DEFA0BE0009A46F6D030C0F60000F6
:103B900040F25C11C2F2000100F0D2FAFFE740F2FD
:103BA0005C10C2F2000002B080BD000082B08DF84F
:103BB0000700009100991220088040F2AC00C2F288
:103BC000000002B07047000080B582B08DF8070099
:103BD00000919DF8070060B9FFE7009A46F6C230F1
:103BE000C0F6000040F25C11C2F2000100F0A8FA39
:103BF0000BE0009A46F6C230C0F6000040F25C11BD
:103C0000C2F2000100F09CFAFFE740F25C10C2F241
:103C1000000002B080BD000082B08DF80700009166
:103C200000990420088040F2D400C2F2000002B0E3
:103C30007047000080B584B08DF80F000291029AA1
:103C400046F6DB30C0F6000040F25C11C2F2000123
:103C5000019100F075FA019804B080BD80B582B082
:103C60008DF8070000919DF8070060B9FFE7009A02
:103C700046F6EE30C0F6000040F25C11C2F20001E0
:103C800000F05EFA0BE0009A46F6EE30C0F6000057
:103C900040F25C11C2F2000100F052FAFFE740F27C
:103CA0005C10C2F2000002B080BD000080B582B09E
:103CB0008DF80700009100991A200880FCF770FC2D
:103CC00040F2D800C2F2000002B080BD80B584B0DE
:103CD000039002910298C088012805D0FFE703985D
:103CE0000299FFF7D3FE21E0039890F89C12481E3A
:103CF0000191022804D3FFE7019803280AD00FE0BE
:103D0000039900208860039800F108010122FFF761
:103D1000F9FE0AE00398011D0122FFF7F3FE04E01B
:103D200003980299FFF7B2FEFFE7FFE704B080BDFA
:103D300080B588B0079006910020ADF81600049079
:103D40008DF80F000698C0780138014602910628C8
:103D500000F21E810299DFE811F0070011002E0029
:103D60001B011B01E80000010798D0F8B4120A6893
:103D7000007C0DF116019047049013E10798007C38
:103D800060B9FFE70798D0F8B802816A0DF1160014
:103D9000884704900499022048700BE00798D0F8F7
:103DA000B802C16A0DF116008847049004990220F8
:103DB0004870FFE7F6E006988078014601910528F3
:103DC00000F2A8800199DFE801F0031E39546F8AE0
:103DD0000798D0F8B402406850B1FFE70798D0F8D0
:103DE000B4124A68007C0DF116019047049009E076
:103DF00007980699FFF74AFE9DF80F0001308DF8ED
:103E00000F00FFE790E00798D0F8B402806850B147
:103E1000FFE70798D0F8B4128A68007C0DF116010C
:103E20009047049009E007980699FFF72FFE9DF848
:103E30000F0001308DF80F00FFE775E00798D0F80C
:103E4000B402C06850B1FFE70798D0F8B412CA684E
:103E5000007C0DF116019047049009E0079806993F
:103E6000FFF714FE9DF80F0001308DF80F00FFE7FB
:103E70005AE00798D0F8B402006950B1FFE70798FC
:103E8000D0F8B4120A69007C0DF116019047049035
:103E900009E007980699FFF7F9FD9DF80F0001303A
:103EA0008DF80F00FFE73FE00798D0F8B4024069B3
:103EB00050B1FFE70798D0F8B4124A69007C0DF1C1
:103EC00016019047049009E007980699FFF7DEFD78
:103ED0009DF80F0001308DF80F00FFE724E00798F0
:103EE000D0F8B402806950B1FFE70798D0F8B41257
:103EF0008A69007C0DF116019047049009E007984B
:103F00000699FFF7C3FD9DF80F0001308DF80F00F3
:103F1000FFE709E007980699FFF7B8FD9DF80F0045
:103F200001308DF80F00FFE73CE00798007C48B9AE
:103F3000FFE70798D0F8B802416B0DF116008847EB
:103F4000049009E007980699FFF7A0FD9DF80F007F
:103F500001308DF80F00FFE724E00798007C60B97E
:103F6000FFE70798D0F8B802016B0DF116008847FB
:103F7000049004990720487009E007980699FFF714
:103F800085FD9DF80F0001308DF80F00FFE709E077
:103F900007980699FFF77AFD9DF80F0001308DF81C
:103FA0000F00FFE79DF80F0008B1FFE72AE0069831
:103FB000C08818B3FFE7BDF81600C8B1FFE7BDF829
:103FC00016000699C988884204DAFFE7BDF8160092
:103FD000009003E00698C0880090FFE70098ADF8D5
:103FE000160007980499BDF81620FFF78BFD04E032
:103FF00007980699FFF74AFDFFE703E00798FFF7E8
:104000009BFDFFE708B080BD80B586B005908DF8B8
:1040100013100598039005980290002001900299D2
:1040200048880978884227DDFFE702980078ADF8D4
:104030000200FFE7BDF802000299498888421ADAB7
:10404000FFE703980DF1020100F034F803900398A4
:10405000407805280ED1FFE70398019001988078F9
:104060009DF81310884201D1FFE704E00020019081
:10407000FFE7FFE7DEE7FFE7019806B080BD00003D
:1040800083B0029000208DF8070002980090FFE7AF
:104090000098007848B1FFE79DF8070001308DF8DF
:1040A0000700009801300090F2E79DF8070003B088
:1040B0007047000083B00290019102980090009830
:1040C00002780199088810440880029800990978BC
:1040D00008440090009803B07047000080B582B09B
:1040E00001900091019890F89C02013802281FD895
:1040F000FFE70098C088022805D0FFE701980099E3
:10410000FFF7C4FC19E001990120C8600198D0F8BC
:10411000A40230B1FFE70199C86840F00200C8600E
:10412000FFE7019800F10C010222FFF7EBFC04E02D
:1041300001980099FFF7AAFCFFE702B080BD0000DC
:1041400080B586B005900491039200208DF80B0095
:10415000059808B9FFE73DE0059801900198FFF741
:104160008FFF0146022000EB41000399088003986D
:10417000007804999DF80B2088549DF80B000130BD
:104180008DF80B0004999DF80B20032088549DF8AE
:104190000B0001308DF80B00FFE701980078C8B1E3
:1041A000FFE70198007804999DF80B208854019846
:1041B000013001909DF80B0001308DF80B0004993F
:1041C0009DF80B20002088549DF80B0001308DF8DD
:1041D0000B00E2E706B080BD82B08DF8070000203A
:1041E0008DF806009DF8070001460091032814D8B9
:1041F0000099DFE801F002060A0E00208DF80600A3
:104200000FE003208DF806000BE001208DF806007A
:1042100007E003208DF8060003E003208DF8060078
:10422000FFE79DF8060002B07047000080B584B03B
:10423000029001918DF80320029820B9FFE7032036
:104240008DF80F0023E002990020C1F8B80202990E
:10425000C1F8C4020299C1F8D002019828B1FFE761
:1042600001980299C1F8B402FFE70299012081F890
:104270009C029DF8030002990870029800F020FA51
:104280008DF802009DF802008DF80F00FFE79DF801
:104290000F0004B080BD000080B582B001908DF8A1
:1042A000031000208DF802008DF801000198D0F86D
:1042B000C8029DF80310FCF779FD8DF802009DF807
:1042C0000200FFF789FF8DF801009DF8010002B0A0
:1042D00080BD000080B582B001908DF803100020F1
:1042E0008DF802008DF801000198D0F8C8029DF801
:1042F0000310FCF707FD8DF802009DF80200FFF7A0
:104300006BFF8DF801009DF8010002B080BD000038
:1043100080B588B006908DF8171004929DF81700AC
:10432000002875D1FFE70698143003900698D0F85E
:10433000940202285DD1FFE703998868C968884222
:1043400012D9FFE703998868CA68801A88600698BE
:104350000499039A9268FFF789FB0698002319468F
:104360001A4600F0B1FA43E003988168C0688842B9
:104370001ED1FFE703994868C968884218D3FFE750
:10438000039840680699D1F89812884210D2FFE746
:104390000698002201921146FFF768FB019B0698E0
:1043A000C0F89832069819461A4600F08DFA1EE0B9
:1043B000069890F89C02032811D1FFE70698D0F8E0
:1043C000B802C06850B1FFE706990020C1F8D402D6
:1043D0000698D0F8B812C9688847FFE7FFE7069843
:1043E000802100F087FB0698FFF77AFBFFE7FFE7E5
:1043F00000E0FFE7069890F8A00240B1FFE70698BA
:1044000000F04EFC0699002081F8A002FFE740E092
:1044100006989DF8171041F08001FFF707FB8DF813
:104420000A009DF80A00FF2832D0FFE79DF80A0035
:1044300070BBFFE7069890F89C02032827D1FFE79E
:1044400006989DF80A1000EB8100D0F8B802406988
:10445000E0B1FFE79DF80A000699C1F8D40206987A
:104460009DF80A1000EB8101D1F8B8124A699DF855
:10447000171090478DF80B009DF80B0028B1FFE74F
:104480009DF80B008DF81F0007E0FFE7FFE7FFE74F
:10449000FFE700208DF81F00FFE79DF81F0008B020
:1044A00080BD000080B58AB008908DF81F1006927C
:1044B00000208DF813009DF81F00002840F0838035
:1044C000FFE7089800F5AA7005900898D0F89402C4
:1044D000032876D1FFE705998868C96888421DD905
:1044E000FFE705998868CA68801A88600898029072
:1044F0000698039005998868C968884204D2FFE746
:1045000005988068019003E00598C0680190FFE776
:1045100003990298019AFFF799FA51E0089890F8E8
:10452000AA0200F01F000146009140B1FFE7009889
:10453000012808D0FFE7009802280CD013E00020E3
:104540008DF8120013E0089890F8AE12FFF776FA93
:104550008DF812000BE0089890F8AE12FFF766FA9B
:104560008DF8120003E000208DF81200FFE79DF89F
:10457000120008BBFFE7089890F89C0203281AD1A4
:10458000FFE708989DF8121000EB8100D0F8B80200
:10459000006978B1FFE79DF812000899C1F8D402CC
:1045A00008989DF8121000EB8101D1F8B812096942
:1045B0008847FFE7FFE7FFE70898FFF7BDFAFFE747
:1045C00000E0FFE740E008989DF81F1001F07F0130
:1045D000FFF72CFA8DF812009DF81200FF2832D058
:1045E000FFE79DF8120070BBFFE7089890F89C0267
:1045F00003281ED1FFE708989DF8121000EB8100F8
:10460000D0F8B802806998B1FFE79DF812000899C8
:10461000C1F8D40208989DF8121000EB8101D1F87E
:10462000B8128A699DF81F1090478DF81300FFE7B4
:10463000FFE79DF8130028B1FFE79DF813008DF800
:10464000270005E0FFE7FFE700208DF82700FFE7E0
:104650009DF827000AB080BD81B00090002001B015
:104660007047000080B582B0019000208DF80300F3
:104670000199012081F89C020198D0F8B80268B134
:10468000FFE70198D0F8B8124A680179904720B145
:10469000FFE703208DF80300FFE7FFE79DF8030025
:1046A00002B080BD80B582B001908DF803100198F2
:1046B000D0F8C8029DF80310FCF7DCFB02B080BD07
:1046C00080B584B0039003980078A8BBFFE70399F6
:1046D00041F65800C2F200000290C0F80815039994
:1046E000C1F8C8024FF0A0410160042141600222DC
:1046F000C260002101618261C16101624162C162E7
:104700000163FDF771F918B1FFE7FBF741FFFFE720
:1047100041F65800C2F20000019080210091FCF7A0
:104720002BFA019800214022FCF732FA009A0198F6
:104730000121FCF72DFAFFE7002004B080BD000046
:1047400084B002908DF807100298D0F8C80200904B
:104750009DF80700000600280ED5FFE700989DF899
:10476000071001F07F0101EBC10100EB810090F81F
:104770003E008DF80F000DE000989DF8071001F045
:104780007F0101EBC10100EB810090F87E028DF802
:104790000F00FFE79DF80F0004B0704780B584B0AC
:1047A00002908DF807100298D0F8D41200EB810027
:1047B000D0F8B80220B9FFE703208DF80F0020E001
:1047C000029890F89C02032817D1FFE70298D0F8CE
:1047D000D41200EB8100D0F8B802006A60B1FFE7A4
:1047E0000298D0F8D41200EB8101D1F8B8120A6A0D
:1047F0009DF807109047FFE7FFE700208DF80F00B6
:10480000FFE79DF80F0004B080BD000080B584B0C4
:1048100002908DF807100298D0F8D41200EB8100B6
:10482000D0F8B80220B9FFE703208DF80F0020E090
:10483000029890F89C02032817D1FFE70298D0F85D
:10484000D41200EB8100D0F8B802406A60B1FFE7F3
:104850000298D0F8D41200EB8101D1F8B8124A6A5C
:104860009DF807109047FFE7FFE700208DF80F0045
:10487000FFE79DF80F0004B080BD000080B584B054
:1048800003908DF80B108DF80A20ADF80830002049
:104890008DF807008DF806000398D0F8C8029DF83F
:1048A0000B10BDF808209DF80A30FCF7F5FA8DF8DA
:1048B00007009DF80700FFF78FFC8DF806009DF8B4
:1048C000060004B080BD000080B586B005908DF86C
:1048D00013100392029300208DF807008DF8060054
:1048E0000598D0F8C8029DF81310039A029BFCF7B4
:1048F00049FB8DF807009DF80700FFF76DFC8DF868
:1049000006009DF8060006B080BD000080B586B0A8
:10491000059000208DF81300059A012182F89C1261
:104920000599C1F89402059948600599C1F8A40257
:10493000059981F8A0020598D0F8B802A0B1FFE768
:104940000598D0F8B802406868B1FFE70598D0F83C
:10495000B8124A680179904720B1FFE703208DF82B
:104960001300FFE7FFE7FFE70598002201924023CD
:1049700003931146FFF782FF019A039B05990120DB
:104980000290A1F864010598C0F860310598802173
:10499000FFF774FF02990398059A918405990862BC
:1049A0009DF8130006B080BD81B00090009890F88B
:1049B0009C02042807D1FFE7009890F89D02009917
:1049C00081F89C02FFE7002001B0704780B582B0FB
:1049D0000190019890F89C02032813D1FFE70198F9
:1049E000D0F8B80268B1FFE70198D0F8B802C06902
:1049F00030B1FFE70198D0F8B812C9698847FFE7DE
:104A0000FFE7FFE7002002B080BD000082B0019008
:104A10008DF803109DF8030001990874002002B07E
:104A20007047000080B582B001908DF8031000201F
:104A30008DF802008DF801000198D0F8C8029DF8A9
:104A40000310FDF7C1F98DF802009DF80200FFF791
:104A5000C3FB8DF801009DF8010002B080BD00008D
:104A600080B584B003900291039800F2AA200299C5
:104A700000F0AAF803990120C1F894020399B1F853
:104A8000B002C1F89802039890F8AA0200F01F0043
:104A90000146009140B1FFE7009801280CD0FFE7E4
:104AA0000098022810D017E0039800F2AA2100F025
:104AB0004FFA8DF8070019E0039800F2AA2100F0E0
:104AC00083FC8DF8070011E0039800F2AA2100F0A2
:104AD000A5FA8DF8070009E0039890F8AA1201F0F2
:104AE000800100F007F88DF80700FFE79DF8070048
:104AF00004B080BD80B582B001908DF80310002015
:104B00008DF802008DF801000198D0F8C8029DF8D8
:104B10000310FCF77BFA8DF802009DF80200FFF706
:104B20005BFB8DF801009DF8010002B080BD000024
:104B300080B582B0019000208DF803008DF802004E
:104B40000198D0F8C802FDF77BF98DF803009DF8B5
:104B50000300FFF741FB8DF802009DF8020002B050
:104B600080BD000081B00090009890F89C020099F0
:104B700081F89D020099042081F89C02002001B078
:104B80007047000080B586B005908DF81310039231
:104B9000029300208DF807008DF806000598D0F8E4
:104BA000C8029DF81310039A029BFCF79FFA8DF838
:104BB00007009DF80700FFF70FFB8DF806009DF832
:104BC000060006B080BD000080B584B0039002915D
:104BD00002980190019800780399087001980130BB
:104BE0000190019800780399487001980130019074
:104BF0000198FEF743F9039948800198013001902C
:104C00000198013001900198FEF738F903998880E6
:104C10000198013001900198013001900198FEF750
:104C20002DF90399C88004B080BD000080B584B020
:104C3000029001910020ADF80200019820B9FFE731
:104C400003208DF80F0026E001980299C1F8B80200
:104C50000298D0F8D41200EB8100D0F8B802C06AF4
:104C600078B1FFE70298D0F8D41200EB8100D0F8B9
:104C7000B802C16A0DF1020088470299C1F8D0025A
:104C8000FFE70299D1F8D8020130C1F8D80200201C
:104C90008DF80F00FFE79DF80F0004B080BD000005
:104CA00081B00090002001B07047000080B584B052
:104CB0000390029102988088B8BBFFE70298C088F1
:104CC00098BBFFE7029840887F282ED8FFE702981C
:104CD000807800F07F008DF80700039890F89C0220
:104CE000032805D1FFE703980299FEF7CFFE1BE0EA
:104CF0009DF80700039981F89E0203989DF807101C
:104D0000FFF790FE0398FEF717FF9DF8070028B104
:104D1000FFE70399022081F89C0204E00399012037
:104D200081F89C02FFE7FFE704E003980299FEF791
:104D3000ADFEFFE704B080BD80B582B001908DF874
:104D4000031000208DF802000198D0F8B80250B18D
:104D5000FFE70198D0F8B8120A689DF80310904751
:104D60008DF80200FFE79DF8020002B080BD000050
:104D700080B586B00490039100208DF80B00039855
:104D8000817840F25810C2F20000017000780228C9
:104D900008D3FFE704980399FEF778FE03208DF807
:104DA0001700A0E0049890F89C02014601910228A7
:104DB00004D0FFE7019803282FD07FE040F258107D
:104DC000C2F20000007818B3FFE740F25811C2F2B7
:104DD00000010878049A506004980978FFF7ACFF46
:104DE0008DF80B009DF80B0048B1FFE7049803997C
:104DF000FEF74CFE0499022081F89C0207E004981B
:104E0000FEF79AFE0499032081F89C02FFE703E075
:104E10000498FEF791FEFFE760E040F25810C2F2FE
:104E20000000007898B9FFE70499022081F89C02FD
:104E300040F25811C2F200010878049A50600498B8
:104E40000978FEF7B9FD0498FEF776FE35E040F2EA
:104E50005810C2F20000007804994968884227D0AF
:104E6000FFE704980179FEF7A7FD40F25811C2F25E
:104E700000010878049A506004980978FFF75CFFF5
:104E80008DF80B009DF80B0068B1FFE704980399BB
:104E9000FEF7FCFD04980179FEF78EFD04990220CF
:104EA00081F89C0203E00498FEF746FEFFE703E06A
:104EB0000498FEF741FEFFE7FFE70FE0049803992F
:104EC000FEF7E4FD049840F25811C2F2000109789F
:104ED000FEF772FD03208DF80B00FFE79DF80B0035
:104EE0008DF81700FFE79DF8170006B080BD0000A1
:104EF00080B582B00190009100984088012808D1C7
:104F0000FFE701990120C1F8A4020198FEF714FE01
:104F100013E000984088022809D1FFE70098407903
:104F2000019981F8A0020198FEF706FE04E00198BD
:104F30000099FEF7ABFDFFE7FFE702B080BD000080
:104F400080B582B001900198FFF7F2FD02B080BDFC
:104F500080B586B00590049100208DF80F0004986C
:104F6000007800F0600001460291A8B1FFE70298C6
:104F7000202804D0FFE70298402846D1FFE7059893
:104F8000D0F8D41200EB8101D1F8B8128A680499E4
:104F900090478DF80F003DE004984078014601915C
:104FA00009282CD80199DFE801F01B252A202A0ABC
:104FB000052A160F05980499FEF7BAFE24E0059815
:104FC0000499FFF773FE1FE005980499FFF7D0FEE0
:104FD0008DF80F0018E005980499FEF777FE13E0AE
:104FE00005980499FFF77AF80EE005980499FFF701
:104FF0007FFF09E005980499FEF7F8FC04E00598A6
:105000000499FEF743FDFFE704E005980499FEF7D5
:105010003DFDFFE79DF80F0006B080BD80B58CB068
:105020000B900A9100208DF821000A9880888DF855
:1050300023000A98007800F0600001460791B8B399
:10504000FFE70798202805D0FFE70798402840F0A1
:10505000B281FFE70B989DF82310FEF7E7FC8DF86F
:1050600022009DF82200FF2821D0FFE79DF82200B2
:10507000E8B9FFE79DF822000B99C1F8D4020B981C
:105080009DF8221000EB8100D0F8B802806868B16A
:10509000FFE70B989DF8221000EB8101D1F8B812C0
:1050A0008A680A9990478DF82100FFE7FFE787E1BA
:1050B0000A98407801460691002800F0BD80FFE77D
:1050C000069801284CD0FFE70698032840F06D8130
:1050D000FFE70B9890F89C0201460591022804D046
:1050E000FFE70598032819D034E09DF8230078B134
:1050F000FFE79DF8230080280AD0FFE70B989DF872
:105100002310FFF7F7FC0B988021FFF7F3FC04E076
:105110000B980A99FEF7BAFCFFE720E00A9840884E
:10512000A0B9FFE79DF8230078B1FFE79DF82300C1
:1051300080280AD0FFE70A98C08830B9FFE70B98AB
:105140009DF82310FFF7D6FCFFE7FFE70B98FEF76B
:10515000F3FC04E00B980A99FEF798FCFFE729E1BD
:105160000B9890F89C0201460491022804D0FFE7B6
:105170000498032819D059E09DF8230078B1FFE77F
:105180009DF8230080280AD0FFE70B989DF8231094
:10519000FFF7B0FC0B988021FFF7ACFC04E00B9804
:1051A0000A99FEF773FCFFE745E00A984088E0BBE8
:1051B000FFE79DF82300400630B1FFE70B989DF80C
:1051C0002310FFF769F8FFE70B98FEF7B5FC0B9883
:1051D0009DF82310FEF72AFC8DF822009DF822008E
:1051E000FF2821D0FFE79DF82200E8B9FFE79DF8EE
:1051F00022000B99C1F8D4020B989DF8221000EB05
:105200008100D0F8B802806868B1FFE70B989DF87C
:10521000221000EB8101D1F8B8128A680A999047F0
:105220008DF82100FFE7FFE7FFE704E00B980A99FC
:10523000FEF72CFCFFE7BDE00B9890F89C020146BE
:105240000391022804D0FFE70398032838D0A6E092
:105250009DF8230050B1FFE79DF82300802805D07A
:10526000FFE70B980A99FEF711FC9DE09DF82300DB
:10527000000600280CD5FFE70B989DF8231001F0DD
:105280007F0101EB810100EB8100143002900CE002
:105290000B989DF8231001F07F0101EB810100EBD9
:1052A000810000F5AA700290FFE702980990099921
:1052B000002008600B9809990222FEF723FC73E096
:1052C0009DF823000006002812D5FFE70B989DF8F3
:1052D000231001F00F0101EB810100EB8100808CB4
:1052E00028B9FFE70B980A99FEF7D0FB5CE012E0C3
:1052F0000B989DF8231001F00F0101EB810100EBE9
:105300008100B0F8640128B9FFE70B980A99FEF70D
:10531000BDFB49E0FFE79DF82300000600280CD5FF
:10532000FFE70B989DF8231001F07F0101EB81014D
:1053300000EB8100143001900CE00B989DF82310D5
:1053400001F07F0101EB810100EB810000F5AA7003
:105350000190FFE7019809909DF8230028B1FFE72D
:105360009DF82300802804D1FFE7099900200860F8
:105370000FE00B989DF82310FFF7E2F920B1FFE74B
:1053800009990120086003E0099900200860FFE7FF
:10539000FFE70B9809990222FEF7B4FB04E00B9893
:1053A0000A99FEF773FBFFE704E00B980A99FEF7F2
:1053B0006DFBFFE704E00B980A99FEF767FBFFE738
:1053C0009DF821000CB080BD80B584B0039002919F
:1053D00000208DF807000298007800F06000014678
:1053E000009140B1FFE70098202804D0FFE7009823
:1053F00040285AD1FFE7039890F89C020138022810
:105400004DD8FFE702980079012842D8FFE70398BA
:1054100002990979FEF712FB8DF806009DF8060047
:10542000FF2825D0FFE79DF8060008BBFFE703989B
:105430009DF8061000EB8100D0F8B802806890B1AA
:10544000FFE79DF806000399C1F8D40203989DF880
:10545000061000EB8101D1F8B8128A6802999047D2
:105460008DF8070003E003208DF80700FFE703E055
:1054700003208DF80700FFE70298C08840B9FFE7D6
:105480009DF8070020B9FFE70398FEF755FBFFE7FB
:1054900004E003980299FEF7F9FAFFE704E00398A5
:1054A0000299FEF7F3FAFFE704E003980299FEF78A
:1054B000EDFAFFE79DF8070004B080BD81B00090D1
:1054C00001B0704781B0009040F25C30C2F2000041
:1054D00001B0704784B00390029103980190029844
:1054E0000078009002984078012830D1FFE70298B8
:1054F000007800F00F01012000FA01F20199D1F8C3
:105500001C081043C1F81C080198009900EB4110D9
:10551000D0F800090004002818D4FFE70299C868F1
:105520006FF3DF20097940EA8140009A40EA825017
:10553000019901EB4211D1F80029104348F2000211
:10554000C1F200021043C1F80009FFE72EE0029803
:10555000007800F00F01012000FA01F20199D1F862
:105560001C0840EA0240C1F81C080198009900EBB1
:105570004110D0F8000B0004002816D4FFE7029970
:10558000C8686FF3DF20097940EA81400199009AE9
:1055900001EB4211D1F8002B104348F20002C1F296
:1055A00000021043C1F8000BFFE7FFE7002004B042
:1055B0007047000082B00190019800900099D1F8E6
:1055C000000940F2FF729043C1F800090099D1F838
:1055D000040840F48070C1F80408002002B070474D
:1055E0002DE9F04F91B00191DDF88CB0DDF888A085
:1055F000DDF88490DDF880801F9F1E9E1D9D1C9C01
:10560000DDF86CE0DDF868C001990199CDF840B093
:10561000CDF83CA0CDF83890CDF834800C970B969F
:105620000A950994CDF820E0CDF81CC006930592A8
:10563000049103900998012822D1FFE70399886B10
:1056400020F4803088630399C8684FF6BF72CFF6A4
:10565000BD721040C8600399C86820F44010C8604B
:105660001098012806D1FFE70399C86840F480101C
:10567000C860FFE7039800F031F88DF80B0019E0DF
:105680000399C86840F04000C860039800F026F80D
:105690008DF80B000D9830B9FFE70399886B40F443
:1056A0008030886305E00399886B20F4803088633C
:1056B000FFE7FFE7079801280BD1FFE70399886808
:1056C00040F0060088600399886840F020008860F8
:1056D000FFE79DF80B0011B0BDE8F08F83B001909B
:1056E00000200090FFE7009801300090009840F6FD
:1056F0004151C0F20301884204D3FFE703208DF833
:105700000B0028E0FFE701980069C00F0028EAD0ED
:10571000FFE7002000900199086940F0010008614E
:10572000FFE7009801300090009840F64151C0F228
:105730000301884204D3FFE703208DF80B000AE041
:10574000FFE701980069C0070028EAD1FFE70020C1
:105750008DF80B00FFE79DF80B0003B070470000C9
:1057600084B0039002910398019002980078009011
:1057700002984078012845D1FFE70198009900EB95
:105780004110D0F80009C00FA8B1FFE701980099B7
:1057900000EB4111D1F8000940F00060C1F80009A8
:1057A0000198009900EB4111D1F8000940F08040C8
:1057B000C1F80009FFE70298007800F00F0101200E
:1057C00000FA01F3019AD2F83C189943C2F83C1848
:1057D0000299097801F00F0100FA01F20199D1F85C
:1057E0001C089043C1F81C080198009900EB411176
:1057F000D1F8000947F60002CEF633421040C1F856
:10580000000946E00198009900EB4110D0F8000B28
:10581000C00FA8B1FFE70198009900EB4111D1F842
:10582000000B40F00060C1F8000B0198009900EBFC
:105830004111D1F8000B40F08040C1F8000BFFE7A8
:105840000298007800F00F01012000FA01F3019A9C
:10585000D2F83C1821EA0341C2F83C1802990978B1
:1058600001F00F0100FA01F20199D1F81C0820EAB9
:105870000240C1F81C080198009900EB4111D1F8D1
:10588000000B47F60002CEF6F3721040C1F8000B91
:10589000FFE7002004B0704782B0019001980090AB
:1058A0000099D1F8000E20F00300C1F8000E009915
:1058B000D1F8040820F00200C1F80408002002B06A
:1058C0007047000082B00190019800900099D1F8D3
:1058D000000E20F00300C1F8000E0099D1F8040872
:1058E00040F00200C1F80408002002B07047000038
:1058F0002DE9F04F93B00191DDF894B0DDF890A060
:10590000DDF88C90DDF88880219F209E1F9D1E9CD5
:10591000DDF874E0DDF870C001990199CDF848B068
:10592000CDF844A0CDF84090CDF83C800E970D9670
:105930000C950B94CDF828E0CDF824C0089307927D
:105940000691059000208DF81300059903910290AF
:10595000FFE702980E280CD8FFE70598029900EBA4
:1059600081010020C1F80401FFE702980130029094
:10597000EFE71098B8B9FFE70399D1F8040840F0B1
:105980000200C1F804080599886B40F40010886390
:105990000599886B20F4002088630599886B20F4B2
:1059A000802088630AE00599886B20F400108863E2
:1059B0000599886B40F400208863FFE70399002075
:1059C000C1F8000E0399D1F80008C1F800080B983F
:1059D00001280ED1FFE7089828B9FFE705980021B4
:1059E00000F038FF04E00598012100F033FFFFE7E5
:1059F00004E00598032100F02DFFFFE70598102132
:105A000000F05EFD20B1FFE701208DF81300FFE7F5
:105A1000059800F015FD20B1FFE701208DF8130077
:105A2000FFE703990020C1F810080399C1F8140892
:105A30000399C1F81C080290FFE702980699884272
:105A40003BD2FFE70398029900EB4110D0F8000920
:105A5000C00FB0B1FFE7029848B9FFE70398029979
:105A600000EB41114FF00060C1F8000908E0039815
:105A7000029900EB41114FF09040C1F80009FFE797
:105A800007E00398029900EB41110020C1F80009DA
:105A9000FFE70398029900EB41110020C1F81009BB
:105AA0000398029900EB41114FF67F30C1F80809C5
:105AB000FFE7029801300290BFE700200290FFE765
:105AC0000298069988423BD2FFE70398029900EBBF
:105AD0004110D0F8000BC00FB0B1FFE7029848B9F1
